:100000000C94EC000C9414010C9414010C941A1B25
:100010000C94441B0C946E1B0C9414010C9414014E
:100020000C9414010C9414010C9414010C941401FC
:100030000C9414010C9414010C9414010C941401EC
:100040000C94661F0C9414010C944C010C948801C0
:100050000C9414010C9414010C9414010C941401CC
:100060000C9414010C9414010A0240024A025A0230
:1000700069027B02C502C5021B02C502C502C50298
:10008000C502C502C502C702DF02F70223036103EE
:100090007D0384038D039B03F0020803340376037E
:1000A000C502C502C502C502D80219035703A7033A
:1000B000B203BD03C5020904C502C502C502C502DB
:1000C000C502C502C502C502C502C502C502C502F8
:1000D000C502C502C502C502C502CD03DE0300C2CA
:1000E00001000100110011000C0000E100000A00F5
:1000F0002500250021000096000019003900390074
:100100003600127A00001F0046004600440080704E
:10011000000022004D004D004A00004B0000360058
:10012000750075007200403800004A009C009C0079
:100130009900802500007200EC00EC00E900C0127C
:100140000000E900DA01DA01D70160090000D701F7
:10015000B603B603B303B0040000B3036E076E0723
:100160006B07580200006E07DC0EDC0ED80E2C0167
:100170000000DC0EC11DC11DBE1D000000002400DA
:1001800027002A0000000000250028002B000000A6
:1001900000002300260029000404040404040404CD
:1001A0000202020202020303030303030102040822
:1001B00010204080010204081020010204081020D1
:1001C0000000000700020100000304060000000018
:1001D00000000000A1059A0511241FBECFEFD8E052
:1001E000DEBFCDBF14E0A0E0B1E0E0E9FDE402C075
:1001F00005900D92A23FB107D9F717E0A2EFB4E046
:1002000001C01D92A938B107E1F711E0C6EDD1E0B8
:1002100004C02297FE010E94B726C43DD107C9F74A
:100220000E946F210C94BB260C940000CF92DF92A9
:10023000EF92FF920F931F93CF93DF938C016B018B
:100240007A01C0E0D0E01CC0F601EC0FFD1F608118
:100250000115110521F00130110589F405C0E09167
:10026000AB05F091AC0504C0E091AD05F091AE0591
:10027000A081B1812D913C91CF01F9010995219681
:10028000CE15DF0508F3DF91CF911F910F91FF90FD
:10029000EF90DF90CF9008951F920F920FB60F92BC
:1002A00011242F933F934F938F939F93EF93FF933B
:1002B0004091C60020912607309127072F5F3F4FBE
:1002C00080912A0790912B072823392380912807B2
:1002D000909129072817390779F080912607909186
:1002E0002707E0912C07F0912D07E80FF91F4083B5
:1002F0003093270720932607FF91EF919F918F91CD
:100300004F913F912F910F900FBE0F901F90189516
:100310001F920F920FB60F9211242F933F938F933A
:100320009F93EF93FF932091300730913107809195
:100330002E0790912F0728173907E9F08091300791
:1003400090913107E0913407F0913507E80FF91FDC
:1003500080818093C600809130079091310701968B
:1003600020913207309133078223932390933107F2
:100370008093300710C020912E0730912F07809175
:100380003007909131072817390729F48091C1006F
:100390008F7D8093C100FF91EF919F918F913F914D
:1003A0002F910F900FBE0F901F901895423049F477
:1003B00020E031E040E050E00E949A26C901DA01D5
:1003C0000FC06F3F71058105910549F044F0413040
:1003D00031F4DC01CB019070A070B07001C003C09B
:1003E000BC012A2F9B2F822F0895EF92FF920F932B
:1003F0001F93CF93DF9390E0FC013197EB33F1052E
:1004000008F0C3C0EC5CFF4FEE0FFF1F0590F491A6
:10041000E02D099480913305C82FD0E0CF5FDA4FEB
:1004200081E088836091F1057091F2058091F30578
:100430009091F405E9C1E090F105F090F20500918A
:10044000F3051091F40580913305C82FD0E0CF5FFC
:10045000DA4F89E08883C801B7010E94D824882731
:1004600077FD8095982F0E940B259B01AC01C80158
:10047000B7010E94072420E030E44CE156E4C2C1F9
:10048000E0913305F0E0EF5FFA4F82E080838091E6
:1004900003065AC180913305E82FF0E0EF5FFA4F71
:1004A00083E080838091F704882311F086E64CC1B5
:1004B00084E34AC180913305C82FD0E0CF5FDA4F83
:1004C00084E08883E090D005F090D10500E010E052
:1004D000B0C1E0913305F0E0EF5FFA4F85E0808333
:1004E0008091CF052AE0829FC00111242091CE0582
:1004F000280F21832AC1E0903E056091D205E616BF
:1005000008F041C070E0882777FD8095982F0E9401
:100510000B259B01AC016091AF057091B0058091F6
:10052000B1059091B2050E94702420E030E443E0D0
:1005300055E40E94BF2526E636E646E850E40E94D0
:1005400070240E94D82460933F05709340058093E7
:10055000410590934205E0913305F0E0EF5FFA4FDB
:1005600026E02083272F382F492F552747FD5A95FE
:100570002F70AE2DA295A07FA22BA1836283E3945E
:10058000E0923E0562C110923E0580E05FC180911D
:100590003305C82FD0E0CF5FDA4F80E188836091C8
:1005A000FF0570910006809101069091020699C0A6
:1005B000E0913305F0E0EF5FFA4F81E2ABC080914C
:1005C0003305C82FD0E0CF5FDA4F81E18883609197
:1005D000F5057091F6058091F7059091F80581C0B9
:1005E000E0913305F0E0EF5FFA4F89E193C080912D
:1005F0003305C82FD0E0CF5FDA4F82E18883609166
:10060000ED057091EE058091EF059091F00569C0C0
:1006100080913305C82FD0E0CF5FDA4F8AE188831D
:10062000E090ED05F090EE050091EF051091F005DA
:100630002BC0E0913305F0E0EF5FFA4F82E2808358
:100640008091F30481C080913305C82FD0E0CF5F43
:10065000DA4F83E188836091D3057091D40580914E
:10066000D5059091D6053DC080913305C82FD0E0C7
:10067000CF5FDA4F8BE18883E090D305F090D4050B
:100680000091D5051091D605C801B7010E94D82464
:100690000E940B259B01AC01C801B7010E940724F1
:1006A00020E030E44CE156E40E94BF251AC0E091FE
:1006B0003305F0E0EF5FFA4F83E280838091F2042C
:1006C00043C080913305C82FD0E0CF5FDA4F84E17B
:1006D00088836091F9057091FA058091FB059091EE
:1006E000FC050E94D8247B018C01A3C0E091330556
:1006F000F0E0EF5FFA4F8CE10DC0E0913305F0E0E0
:10070000EF5FFA4F85E106C0E0913305F0E0EF5F5F
:10071000FA4F86E18083118218C0E0913305F0E042
:10072000EF5FFA4F87E18083809134058183809168
:10073000350582838AC0E0913305F0E0EF5FFA4F20
:1007400088E1808380913605818312827EC080910A
:100750003305C82FD0E0CF5FDA4F84E28883E09082
:10076000050615C080913305C82FD0E0CF5FDA4F62
:1007700085E28883E09004060AC080913305C82F83
:10078000D0E0CF5FDA4F86E28883E090060684E609
:100790009E2D98027001112448C080913305C82F06
:1007A000D0E0CF5FDA4F8AE388836091AF05709124
:1007B000B0058091B1059091B20526C080913305B6
:1007C000C82FD0E0CF5FDA4F8BE38883E090AF058E
:1007D000F090B0050091B1051091B205C801B701C4
:1007E0000E94D824882777FD8095982F0E940B259A
:1007F0009B01AC01C801B7010E94072420E030E052
:100800004AE754E40E94BF250E94D8247B018C0152
:100810000CC080913305C82FD0E0CF5FDA4F88E25B
:100820008883E090F404F090F5040027F7FC00952D
:10083000102FC801B70141E00E94D6016983C801A9
:10084000B70142E00E94D6016A8383E0DF91CF9135
:100850001F910F91FF90EF900895809136058C3392
:1008600038F010923605809135058F5F80933505FD
:10087000809135058C3348F010923605109235057D
:10088000809134058F5F80933405809134058831E1
:1008900030F0109236051092350510923405089507
:1008A0006330B1F0643028F4613071F0623070F47C
:1008B00009C0653089F0653068F0663079F06730DE
:1008C00089F40EC080780895807408958072089528
:1008D00080710895887008958470089582700895D5
:1008E0008170089508958091D205843099F1853002
:1008F00020F4833009F07EC057C08530B9F08630CF
:1009000009F078C06091FF0470E0882777FD80953A
:10091000982F0E940B252CEE31E548E35EE30E9400
:10092000BF2520E030E040E951E427C06091FF049A
:1009300070E0882777FD8095982F0E940B252AE983
:1009400039E949E15EE30E94BF2520E030E040E75D
:1009500051E413C06091FF0470E0882777FD809513
:10096000982F0E940B252FE832EC45EF5DE30E94A3
:10097000BF2520E030E040E451E40E9408249B01C0
:10098000AC016091AF057091B0058091B105909177
:10099000B2050E946C24882324F483E080939E0295
:1009A000089510929E0208956091FF0470E08827D8
:1009B00077FD8095982F0E940B252CEE31E548EBB2
:1009C0005DE30E94BF2520E030E040E151E40E9459
:1009D00008249B01AC016091AF057091B005809136
:1009E000B1059091B2050E946C24880F880B83702A
:1009F00080939E020895CF93DF93C0919C02D09183
:100A00009D02BE01882777FD8095982F0E940B25B7
:100A10009B01AC016091AF057091B0058091B1056B
:100A20009091B2050E94702420E030E443E055E448
:100A30000E94BF2526E636E646E850E40E94702470
:100A40000E94D82488E0653378072CF4E3EBF5E0C6
:100A500020E030E00DC0C630D105C4F72196D09318
:100A60009D02C0939C0207C0619371932F5F3F4F1B
:100A70002C173D07CCF3DF91CF9108958F92AF9261
:100A8000CF92EF92FF920F931F9381309105E9F57A
:100A90006F5F7F4F09F046C08BE495E060E045EC66
:100AA00050E024EC30E000EC10E0F1ECEF2EF12C03
:100AB000CC24C394E8E9AE2E70E2872E0E948517FD
:100AC0001092690510926A0510926B0510926C05E0
:100AD00010926D0510926E0510926F0510927005C0
:100AE00010927205109271051092680583E795E0E7
:100AF00066E045E021E00E94031E8FE895E06CE08F
:100B00004BE020E00E94031E0DC0892B59F46F5F5B
:100B10007F4F41F48FE895E00E948A1C83E795E0BF
:100B20000E948A1C1F910F91FF90EF90CF90AF9081
:100B30008F90089580E090E06FEF7FEF0E943E0578
:100B4000089581E090E06FEF7FEF0E943E050895E9
:100B5000EF92FF920F931F930E94AE1F9B01AC0177
:100B600020930D0730930E0740930F075093100703
:100B70008091110790911207A0911307B09114076B
:100B800079018A01E81AF90A0A0B1B0BD801C7017F
:100B9000855F9140A040B04044F02093110730930E
:100BA000120740931307509314071F910F91FF9062
:100BB000EF9008952F923F924F925F926F927F92A3
:100BC0008F929F92AF92BF92CF92DF92EF92FF925D
:100BD0000F931F93DF93CF93CDB7DEB72E970FB64A
:100BE000F894DEBF0FBECDBF80919502882331F00F
:100BF0008FE895E060E071E00E94F42303EC13E0DD
:100C000065EBE62E63E0F62E53E0C52ED12CCC0E1C
:100C1000DD1E42E4242E3AE0432E512C4C0E5D1E84
:100C20002FE0622E712C6C0E7D1E99E0892E912C86
:100C30008C0E9D1E84E9382E5E010894A11CB11C07
:100C40002091C2053091C305F8014081F7018081F0
:100C500091819C838B832D833E834F83F1E0F887C2
:100C60008EEF898796E09A879091F2069B87809114
:100C700096028C87809197028D872E869F5F909336
:100C8000F2066FEF7FEFF2011CC021912627822F21
:100C90008295807F822790E0382F2227AC01A3E045
:100CA000440F551FAA95E1F724273527672F77278B
:100CB00062277327A4E095958795AA95E1F76827A1
:100CC0007927E615F70509F7F6011AC081918627FD
:100CD000282F2295207F282730E0722F6627C90110
:100CE00043E0880F991F4A95E1F7682779276A271B
:100CF0007B27B4E035952795BA95E1F762277327EE
:100D0000A72FBB27E815F90509F7862F8325282F7C
:100D10002295207F282730E0922F8827A90163E0C1
:100D2000440F551F6A95E1F7842795278A279B274B
:100D3000A4E035952795AA95E1F782279327898323
:100D40009A8380E090E0BF0146E050E00E941601E7
:100D500080E090E0B60146E050E00E94160180E09D
:100D600090E0B50142E050E00E9416010F5F1F4F76
:100D7000E2E0F0E0EE0EFF1EF3E00A3C1F0709F090
:100D80005FCF2E960FB6F894DEBF0FBECDBFCF91CA
:100D9000DF911F910F91FF90EF90DF90CF90BF9068
:100DA000AF909F908F907F906F905F904F903F900B
:100DB0002F90089580919502882331F08FE895E077
:100DC0006DE171E00E940A2380919502882341F031
:100DD0008FE895E06091CF054AE050E00E946822DC
:100DE00080919502882331F08FE895E063E271E00D
:100DF0000E940A2380919502882341F08FE895E0B4
:100E00006091CE054AE050E00E94682280919502F0
:100E1000882331F08FE895E069E271E00E940A23AF
:100E200080919502882351F06091C5057091C605A7
:100E30008FE895E04AE050E00E94572280919502A9
:100E4000882331F08FE895E061E371E00E940A2386
:100E500080919502882341F08FE895E06091F70436
:100E60004AE050E00E94682280919502882331F088
:100E70008FE895E069E371E00E940A238091950272
:100E8000882351F06091FD057091FE058FE895E093
:100E90004AE050E00E94572280919502882331F069
:100EA0008FE895E06FE371E00E940A23809195023C
:100EB000882371F0409138055091390560913A05C9
:100EC00070913B058FE895E022E030E00E94F1232D
:100ED00080919502882331F08FE895E069E471E014
:100EE0000E940A2380919502882371F04091AF05FA
:100EF0005091B0056091B1057091B2058FE895E011
:100F000022E030E00E94F12380919502882331F0A5
:100F10008FE895E063E571E00E940A2380919502D5
:100F2000882371F04091FF05509100066091010601
:100F3000709102068FE895E022E030E00E94F123F4
:100F400080919502882331F08FE895E069E571E0A2
:100F50000E940A2380919502882371F04091F9053F
:100F60005091FA056091FB057091FC058FE895E0C2
:100F700022E030E00E94F12380919502882331F035
:100F80008FE895E06FE571E00E940A238091950259
:100F9000882371F04091F5055091F6056091F705B1
:100FA0007091F8058FE895E022E030E00E94F1238F
:100FB00080919502882331F08FE895E065E671E035
:100FC0000E940A2380919502882371F04091D305F5
:100FD0005091D4056091D5057091D6058FE895E0C4
:100FE00022E030E00E94F12380919502882331F0C5
:100FF0008FE895E06BE671E00E940A2380919502EC
:10100000882371F04091ED055091EE056091EF0558
:101010007091F0058FE895E022E030E00E94F12326
:1010200080919502882331F08FE895E060E771E0C8
:101030000E940A2380919502882351F06091D70580
:101040007091D8058FE895E04AE050E00E94572261
:1010500080919502882331F08FE895E06BE171E093
:101060000E94F42308958F929F92AF92BF92CF92E5
:10107000DF92FF920F931F93CF93DF93F62E4901D8
:10108000C82EDD248601000F111F5801AC0CBD1CB9
:10109000E501CC0FDD1FCC0FDD1FC551D94F1882E4
:1010A0008B819C818430910509F48EC08530910537
:1010B0005CF48230910509F443C0833091050CF053
:1010C000BFC09923C4F44FC28730910509F443C1CE
:1010D0008830910544F48530910509F4DEC0069707
:1010E00009F041C207C18830910509F47AC1099716
:1010F00009F039C2E7C18EEF681709F034C282E007
:1011000090E09C838B8380E790E0C89ED001C99ECD
:10111000B00DD89EB00D1124A55FB94F13961C9247
:10112000139788E390E0C89EF001C99EF00DD89E09
:10113000F00D1124EE0FFF1FE35FF94F6083A4C190
:10114000E5E6E61788F489818F5F8983F501EE0F64
:10115000FF1FEE0FFF1FE351F94F80818F5F8083E8
:10116000188281E090E02DC080E790E0C89EF001F9
:10117000C99EF00DD89EF00D1124E55FF94F6383F1
:101180001D8280818627282F2295207F282730E006
:10119000522F4427C90163E0880F991F6A95E1F730
:1011A00048275927818190E04827592784E03595C1
:1011B00027958A95E1F7422753275183408384E09E
:1011C00090E09C838B83CFC18CE190E0C89EF001BE
:1011D000C99EF00DD89EF00D1124EE0FFF1FEE0FEB
:1011E000FF1FE15FF94F608380E790E0C89EF00148
:1011F000C99EF00DD89EF00D1124E55FF94F808156
:101200008627282F2295207F282730E0522F442739
:10121000C901B3E0880F991FBA95E1F7482759270C
:10122000818190E048275927A4E035952795AA9514
:10123000E1F7422753275183408383E090E0C1CFF9
:1012400080E790E0C89EF001C99EF00DD89EF00D99
:101250001124E55FF94F658380818627282F229529
:10126000207F282730E0522F4427C90163E0880FF0
:10127000991F6A95E1F748275927818190E048270F
:10128000592704E0359527950A95E1F7422753271A
:101290005183408385E090E094CF80E790E0C89E42
:1012A000F001C99EF00DD89EF00D1124E55FF94FB5
:1012B000668380818627282F2295207F282730E08B
:1012C000522F4427C901B3E0880F991FBA95E1F75F
:1012D00048275927818190E048275927A4E0359570
:1012E0002795AA95E1F7422753275183408386E04B
:1012F00090E067CF80E790E0C89EF001C99EF00DB6
:10130000D89EF00D1124E55FF94F67838081862711
:10131000282F2295207F282730E0522F4427C9010B
:1013200063E0880F991F6A95E1F748275927818163
:1013300090E04827592794E0359527959A95E1F74D
:1013400042275327518340838381882309F446C071
:1013500087E090E036CF6D81F80183E0EE0FFF1F4C
:101360008A95E1F7E01BF10B319603E0EE0FFF1FCA
:101370000A95E1F7E60FF11DE55FF94FF0826F5F27
:101380006D8380E790E0C89EF001C99EF00DD89E65
:10139000F00D1124E55FF94F80818F25282F2295CC
:1013A000207F282730E0522F4427C901B3E0880F5F
:1013B000991FBA95E1F748275927818190E048277E
:1013C0005927A4E035952795AA95E1F74227532799
:1013D000518340838381681709F0C5C088E090E09D
:1013E000F0CE80E790E0C89ED001C99EB00DD89E97
:1013F000B00D1124A55FB94F9C911796EC911797EA
:10140000F0E0EB54FD4F80818927482F4295407FC3
:10141000482750E0342F2227CA0173E0880F991F14
:101420007A95E1F72827392711968C91119790E04A
:101430002827392764E0559547956A95E1F72427D1
:10144000352711963C932E938F2D90E030708217A4
:101450009307F9F0F501EE0FFF1FEE0FFF1FE351A9
:10146000F94F80818F5F8083188281E090E09C83B8
:101470008B83FEEFFF1609F076C082E090E09C833C
:101480008B8313961C9213978FEF9FEF8D939C93F2
:101490006AC089E090E09C838B83F80183E0EE0FC3
:1014A000FF1F8A95E1F7E01BF10B319613E0EE0F79
:1014B000FF1F1A95E1F78D81E80FF11DE55FF94FE8
:1014C000F08251C0262F30E080E790E0C89EB00146
:1014D000C99E700DD89E700D1124655F794FFB0178
:1014E000818190E028173907E9F0F501EE0FFF1F21
:1014F000EE0FFF1FE351F94F80818F5F80831882C9
:1015000081E090E09C838B83FEEFFF1661F582E023
:1015100090E09C838B83EB011B828FEF9FEF99837D
:10152000888321C081E0888381E090E09C838B8365
:10153000F801A3E0EE0FFF1FAA95E1F7E01BF10B06
:10154000319633E0EE0FFF1F3A95E1F78D81E80FFA
:10155000F11DE45FF94FF082DA01FB0180E70190B1
:101560000D928150E1F7D601AA0FBB1FAC0DBD1D36
:10157000AA0FBB1FAA0FBB1FA551B94F8C91813079
:1015800069F58CE190E0C89EF001C99EF00DD89EEF
:10159000F00D1124EE0FFF1FEE0FFF1FE15FF94F5B
:1015A000808116968C93169718968D919C91199719
:1015B000892B21F41B961C921E921A97F601EE0FAE
:1015C000FF1FEC0DFD1DEE0FFF1FEE0FFF1FE5517E
:1015D000F94F80859185019691878087F601EE0FFE
:1015E000FF1FEC0DFD1DEE0FFF1FEE0FFF1FDF01B4
:1015F000A551B94F16968C9116978F5FE4018E8393
:1016000018968D919C91199799878887E351F94F86
:1016100080818A871B8610828C91DF91CF911F91E8
:101620000F91FF90DF90CF90BF90AF909F908F90E1
:101630000895DF92EF92FF920F931F938C01262F54
:10164000D42E37E3E32E37E0F32EC701B801422F43
:101650000E94FB190F5F1F4FC701B8014D2D0E945B
:10166000FB191F910F91FF90EF90DF9008959C015F
:10167000462F87E397E0B9010E94FB1908958091F6
:101680009502882331F08FE895E066E771E00E94CB
:10169000F42380E090E060EC40E00E94190B82E0CF
:1016A00090E060EF40EF0E94190B84E090E068EF5B
:1016B00044E00E94190B86E090E06CEC4CEC0E9438
:1016C000190B88E090E068E848E80E94190B8AE06E
:1016D00090E06AEA40EA0E94190B8CE090E06AEA26
:1016E0004AEA0E94190B8EE090E060EA40EA0E940C
:1016F000190B80E190E060EC40EC0E94190B82E154
:1017000090E060E840E80E94190B84E190E060E816
:1017100040E80E94190B86E190E060E840E80E94F2
:10172000190B88E190E060E840E80E94190B8AE11B
:1017300090E060E840E80E94190B8CE190E060E8DE
:1017400040E80E94190B8EE190E060E840E80E94BA
:10175000190B80E290E060E040E00E94190B82E209
:1017600090E060E040E00E94190B84E290E060E0CD
:1017700040E00E94190B86E290E060E040E00E94A9
:10178000190B88E290E060E040E00E94190B8AE2C9
:1017900090E060E040E00E94190B8CE290E060E095
:1017A00040E00E94190B8EE290E060E040E00E9471
:1017B000190B80E390E060E040E00E94190B82E3A7
:1017C00090E060E040E00E94190B84E390E060E06C
:1017D00040E00E94190B86E390E060E040E00E9448
:1017E000190B88E390E060E040E00E94190B8AE367
:1017F00090E060E040E00E94190B8CE390E060E034
:1018000040E00E94190B8EE390E060E040E00E940F
:10181000190B80E490E060E041EA0E94190B82E439
:1018200090E061E042EA0E94190B84E490E062E0FB
:1018300043EA0E94190B86E490E063E044EA0E94C8
:10184000190B88E490E064E045EA0E94190B8AE4F1
:1018500090E065E046EA0E94190B8CE490E066E0B7
:1018600047EA0E94190B8EE490E067E048EA0E9484
:10187000190B80E590E068E049EA0E94190B82E5C7
:1018800090E069E04AEA0E94190B84E590E06AE082
:101890004BEA0E94190B86E590E06BE04CEA0E944F
:1018A000190B88E590E06CE04DEA0E94190B8AE57F
:1018B00090E06DE04EEA0E94190B8CE590E06EE03E
:1018C0004FEA0E94190B8EE590E06FE04FEB0E940B
:1018D000190B80E890E061E00E94370B81E890E00E
:1018E00062E00E94370B82E890E063E00E94370BD1
:1018F00083E890E064E00E94370B84E890E060E0C9
:101900000E94370B85E890E06AE00E94370B8CE874
:1019100090E061E00E94370B88E990E06FE00E9460
:10192000370B88EE93E066E10E94370B8EEE93E072
:1019300065E10E94370B82EF93E06BE20E94370B68
:1019400084EF93E065E00E94370B8DE890E060E063
:101950000E94370B0895BC0187E397E00E94F419B9
:1019600008950E94AE1F9B01AC0170930407609321
:1019700003078091050790910607B901681B790B51
:10198000663071058CF1309306072093050720918E
:1019900007078091080790910907222311F001960B
:1019A00001C0019790930907809308076091080789
:1019B000709109076F3F71052CF0213059F4109296
:1019C000070708C0653171052CF4222319F481E062
:1019D00080930707E091FC04F0E0EE0FFF1FE15653
:1019E000FD4F80810E947C2008950F931F93A0914A
:1019F000FA04B0E00FE912E0AA0FBB1FA00FB11F5D
:101A000080910A07E0919E02F0E074E0EE0FFF1F64
:101A10007A95E1F7E80FF11DE653FC4F8C91608158
:101A20000E941B218091FB0490E0880F991F080FF2
:101A3000191F80910A07E0919E02F0E054E0EE0F3A
:101A4000FF1F5A95E1F7E80FF11DE65BFB4FD80148
:101A50008C9160810E941B211F910F910895E0914C
:101A6000FD04F0E0EE0FFF1FE156FD4F808160E0C6
:101A70000E941B21089560910A07683018F4809134
:101A80000B0703C0685080910C070E945004E0913E
:101A9000FD04882341F0F0E0EE0FFF1FE156FD4FFB
:101AA000808161E007C0F0E0EE0FFF1FE156FD4FBF
:101AB000808160E00E941B210895EF92FF920F93B6
:101AC0001F930E94AE1F0E9409257B018C0160912B
:101AD000CA057091CB058091CC059091CD0520E091
:101AE00030E84BE355E40E9408249B01AC01C80197
:101AF000B7010E946C248823BCF48091BF05882321
:101B000049F010929E0280913705882319F081E0F8
:101B100080939E028091F704882319F00E943B0D68
:101B200006C00E942F0D03C081E08093AD021F917B
:101B30000F91FF90EF900895CF93DF9380919502DE
:101B4000882331F08BE495E067E971E00E94F4238B
:101B5000CFE9D2E0888160E00E941B21229682E0DA
:101B6000CB3AD807B9F7DF91CF910895CF93DF93A0
:101B700080919502882331F08BE495E06EE971E065
:101B80000E94F423CFE9D2E0888161E00E941B210A
:101B9000229682E0CB3AD807B9F7DF91CF9108952A
:101BA0000F931F93CF93DF939091C405923009F068
:101BB00061C02091C5053091C6052115310531F46C
:101BC0001092F60481E080934A051CC02130310553
:101BD00031F481E08093F60490934A051CC02230D2
:101BE000310531F49093F60483E080934A051DC0DB
:101BF0002330310539F483E08093F60484E0809348
:101C00004A051DC02430310531F485E08093F60487
:101C100080934A0519C02530310539F484E080935A
:101C2000F60486E080934A0514C02630310539F465
:101C300086E08093F60481E080934A0512C0273045
:101C4000310511F487E061C02830310511F488E0D6
:101C500064C02930310529F489E08093F60484E0DA
:101C60005FC02A30310509F05DC08AE08093F60438
:101C700085E056C0913009F055C02091C5053091DE
:101C8000C6052230310529F41092F60490934A05D6
:101C90001EC02115310539F48BE08093F60482E0F3
:101CA00080934A051EC02C30310539F484E08093BE
:101CB000F60483E080934A051CC02B30310539F4CB
:101CC00086E08093F60484E080934A051AC02530AC
:101CD000310539F48CE08093F60485E080934A0561
:101CE00018C02630310529F48DE08093F60486E093
:101CF00017C02F30310529F485E08093F60481E088
:101D00000FC02A30310529F483E08093F60482E085
:101D100007C02130310531F487E08093F60483E079
:101D200080934A05809195028823B9F06091F6046A
:101D300070E0605C7F4F8FE895E04AE050E00E94E1
:101D4000EB220BC0992341F08FE895E06091F604F7
:101D50004AE050E00E947A220E5F1091F604C02FF4
:101D6000D0E0CE01805C9F4F0E94AB0C9091950219
:101D7000181741F7992339F08FE895E0602F4AE072
:101D800050E00E947A22CE010E94AB0C80930B0798
:101D9000CE0101960E94AB0C80930C0780919502B6
:101DA000882341F08FE895E060910B0742E050E016
:101DB0000E947A2280919502882341F08FE895E075
:101DC00060910C0742E050E00E947A22DF91CF91AF
:101DD0001F910F9108952F923F924F925F926F92B1
:101DE0007F928F929F92AF92BF92CF92DF92EF92AB
:101DF000FF920F931F93DF93CF93CDB7DEB7CC57EE
:101E0000D0400FB6F894DEBF0FBECDBFFFC38BE44A
:101E100095E00E940718182F8091BF05882399F438
:101E20000E94AE1F60527E448040904060F41A30A1
:101E300011F01D3031F48091C0058F5F8093C00593
:101E400002C01092C00580E0612FAE01435F5F4F7A
:101E50009E012F5F3F4F0E943308882309F4D2C3AD
:101E600081E08093BF0580919E02863011F410922C
:101E70009E028C898D3109F450C38E3148F4813033
:101E800009F41BC18130A0F0883109F0BBC396C1B1
:101E90008A3409F4FEC28B3420F48E3109F0B2C3C7
:101EA00045C3853A09F46DC38D3F09F0ABC39FC3A9
:101EB00080919502882331F08FE895E064EA71E023
:101EC0000E94F42321E02093C1058A898093C205F2
:101ED0008B898093C305898D8093C4052D893E89A4
:101EE0003093C6052093C5058091C7059091C8051C
:101EF0002817390731F03093C8052093C7050E9491
:101F0000D00D1092C9058B8D87FFB9C38091F8045D
:101F1000882379F40E94D00D81E08093F8048091A9
:101F20004905816080934905809148058E7F8093A3
:101F3000480521E02093F7040E94AE1F0E94092566
:101F40006093CA057093CB058093CC059093CD0523
:101F500080919502823009F055C38FE895E065EBDA
:101F600071E00E940A2380919502882341F08FE856
:101F700095E06AE070E04AE050E00E94D82280914B
:101F80009502882331F08FE895E06BEB71E00E94B9
:101F90000A2380919502882351F06091C5057091C4
:101FA000C6058FE895E04AE050E00E9457228091F4
:101FB0009502882331F08FE895E065EC71E00E948E
:101FC0000A2380919502882341F08FE895E0609183
:101FD000F7044AE050E00E9468228091950288232D
:101FE00031F08FE895E06FEC71E00E940A23809158
:101FF0009502882341F08FE895E06091CE054AE094
:1020000050E00E94682280919502882331F08FE889
:1020100095E067ED71E00E940A2380919502882384
:1020200041F08FE895E06091CF054AE050E00E94D2
:10203000682280919502882331F08FE895E060EE68
:1020400071E00E940A2380919502882371F04091EB
:1020500038055091390560913A0570913B058FE83C
:1020600095E022E030E00E94F123809195028823E0
:1020700031F08FE895E06CEE71E00E940A238091C8
:102080009502882371F04091AF055091B0056091A1
:10209000B1057091B2058FE895E022E030E00E9432
:1020A000F12380919502882309F4ACC28FE895E072
:1020B0006BE171E00E94F423A5C26BA17CA180E0DA
:1020C00090E00E94092520E030E04AE754E40E94B5
:1020D00070246093AF057093B0058093B105909321
:1020E000B2058BA9C82EDD24C7FCD094D092D105AF
:1020F000C092D0050E94FB041091480510FD59C004
:102100006091AF057091B0058091B1059091B205D5
:1021100020E030E040E151E40E94BB2518160CF0AD
:1021200048C0136010934805E090AF05F090B005EB
:102130000091B1051091B205E0924305F09244057B
:102140000093450510934605C801B70120E030E033
:1021500040E951E40E94BB25181614F486E017C02C
:10216000C801B70120E030E040E751E40E94BB2500
:10217000181614F425E019C0C801B70120E030E0BA
:1021800040E451E40E94BB25181624F484E08093B7
:10219000D2050DC0C801B70120E030E040E151E4B4
:1021A0000E94BB2518161CF423E02093D205109240
:1021B0003E05D092D105C092D00524C26D8D7E8D92
:1021C0008F8D98A10E940B2520E836E948E15BE459
:1021D0000E9470247B018C016093D3057093D40519
:1021E0008093D5059093D60589A59AA564E670E0FD
:1021F0000E9451267093D8056093D705C801B70196
:1022000020E030E040E050E00E946C2488237CF421
:1022100083E58093F204D801C701BF778093D3058B
:102220009093D405A093D505B093D60503C02EE4B2
:102230002093F204E090D305F090D4050091D505E9
:102240001091D605C801B7010E94D824882777FDD0
:102250008095982F0E940B251B012C01C801B70106
:10226000A20191010E94072420E030E040E752E4FF
:102270000E94BF257B018C010E94D824882777FD0E
:102280008095982F0E940B253B014C01C801B70196
:10229000A40193010E94072420E030E040E752E4CB
:1022A0000E94BF255B016C01C201B10120E030E05A
:1022B00048EC52E40E94BF25A40193010E94082427
:1022C0007B018C01C601B50120E030E048EC52E40E
:1022D0000E9470249B01AC01C801B7010E94082430
:1022E0006093D3057093D4058093D5059093D6055C
:1022F00069A17AA18BA19CA10E940B2520E836E957
:1023000048E15BE40E9470247B018C016093ED0541
:102310007093EE058093EF059093F00520E030E098
:1023200040E050E00E946C2488237CF487E5809391
:10233000F304D801C701BF778093ED059093EE05B4
:10234000A093EF05B093F00503C025E42093F304B8
:10235000E090ED05F090EE050091EF051091F0058D
:10236000C801B7010E94D824882777FD8095982F4F
:102370000E940B253B014C016093D9057093DA054F
:102380008093DB059093DC05C801B701A40193019C
:102390000E9407246093DD057093DE058093DF05BE
:1023A0009093E00520E030E040E752E40E94BF2532
:1023B0005B016C010E94D824882777FD8095982FB7
:1023C0000E940B257B018C016093E1057093E2056F
:1023D0008093E3059093E405C601B501A801970138
:1023E0000E9407246093E5057093E6058093E70556
:1023F0009093E80520E030E040E752E40E94BF25DA
:102400005B016C016093E9057093EA058093EB052D
:102410009093EC05C401B30120E030E048EC52E4B5
:102420000E94BF25A80197010E9408247B018C010E
:10243000C601B50120E030E048EC52E40E9470246F
:102440009B01AC01C801B7010E9408246093ED050F
:102450007093EE058093EF059093F0056DA17EA13A
:102460008FA198A50E940B2520E030E04AE754E4B4
:102470000E9470246093F1057093F2058093F30538
:102480009093F40589A98093CE058AA98093CF05FE
:10249000B9C0898D9A8DAB8DBC8D8093F5059093D5
:1024A000F605A093F705B093F8056DA17EA18827E6
:1024B00077FD8095982F0E940B256093F905709306
:1024C000FA058093FB059093FC058FA198A5909346
:1024D000FE058093FD0585569040C19730F484E653
:1024E00090E09093FE058093FD058091FD0590910D
:1024F000FE058739910520F01092FE051092FD052A
:102500008D8D9E8DAF8DB8A18093FF0590930006B1
:10251000A0930106B093020675C089A19AA164E652
:1025200070E00E946526609303066CC06D8D7E8D01
:102530008F8D98A121EE3EE245E652E40E94BF2530
:102540000E94D82460930406698D7A8D8B8D9C8DB2
:1025500021EE3EE245E652E40E94BF250E94D824C7
:102560006093050669A17AA18BA19CA121EE3EE2B0
:1025700045E652E40E94BF250E94D82460930606D7
:1025800041C06D897E8980E090E00E94092520E0AD
:1025900030E04AE754E40E9470247B018C01609390
:1025A00038057093390580933A0590933B058F89E0
:1025B00080933C0510923D05C801B70120E030E052
:1025C00040E050E00E946C24882371F0C801B701FC
:1025D00020E030E040E850E40E946C24882324F49A
:1025E00081E0809337050EC0109237050BC08091B3
:1025F0009502882339F08FE895E06D894AE050E034
:102600000E947A228AE890E00E9415208BE495E0EF
:102610000E94D717181619060CF4F9CB80910706FB
:10262000909108062B853C85820F931F9093080696
:10263000809307062B818091090690910A06820FEC
:10264000911D90930A0680930906C458DF4F0FB678
:10265000F894DEBF0FBECDBFCF91DF911F910F91D8
:10266000FF90EF90DF90CF90BF90AF909F908F90B2
:102670007F906F905F904F903F902F9008951092B1
:10268000F7041092F80458CCEF92FF920F931F9327
:10269000CF93DF93CFE9D2E07C010027F7FC0095D0
:1026A000102F888161E00E941B21C801B7010E94A0
:1026B000BC1F888160E00E941B21C801B7010E94F5
:1026C000BC1F229682E0CB3AD80759F7DF91CF9111
:1026D0001F910F91FF90EF900895CF92DF92FF929C
:1026E0000F931F93CF93DF93182F83E795E06EE549
:1026F0000E94CE1CFF24C12EDD2449C08E010F5F35
:102700001A4F83E795E0F80160810E94CE1CF80122
:1027100061816D3559F06E3591F483E795E06DE593
:102720000E94CE1C83E795E06EE30BC083E795E043
:102730006DE50E94CE1C83E795E06DE302C083E760
:1027400095E00E94CE1CCF5FDA4F6A816D3559F05B
:102750006E3591F483E795E06DE50E94CE1C83E72A
:1027600095E06EE30BC083E795E06DE50E94CE1C1B
:1027700083E795E06DE302C083E795E00E94CE1CFD
:1027800083E795E06EE50E94CE1CF3E0FF0ECF2DAF
:10279000D0E0CC15DD050CF4B1CF80E0DF91CF9116
:1027A0001F910F91FF90DF90CF900895EF92FF92CD
:1027B0000F931F930E94AE1F9B01AC01209315073E
:1027C0003093160740931707509318078091190705
:1027D00090911A07A0911B07B0911C0779018A01FB
:1027E000E81AF90A0A0B1B0BD801C701893C9105AD
:1027F000A105B1050CF4F9C02093190730931A070D
:1028000040931B0750931C0701E000933205109181
:10281000330584E20E94F501180F1093330585E219
:102820000E94F501180F1093330586E20E94F5010E
:10283000180F1093330580E10E94F501180F1093D3
:10284000330581E20E94F501180F1093330582E0F1
:102850000E94F501180F1093330585E00E94F501E1
:10286000180F1093330586E00E94F501180F10939E
:10287000330588E20E94F501180F109333058AE3AF
:102880000E94F501180F109333058BE30E94F501A8
:10289000180F1093330583E00E94F501180F109371
:1028A000330510923205812F0E946D1380933305FA
:1028B0008091310565E00E944526992309F066C0A4
:1028C000809136058F5F809336050E942D0400931A
:1028D00032051091330584E10E94F501180F109321
:1028E00033058CE10E94F501180F1093330583E145
:1028F0000E94F501180F109333058BE10E94F5013A
:10290000180F1093330583E20E94F501180F1093FE
:10291000330582E10E94F501180F109333058AE117
:102920000E94F501180F1093330582E20E94F50111
:10293000180F1093330581E10E94F501180F1093D1
:10294000330589E10E94F501180F1093330581E0EA
:102950000E94F501180F1093330589E00E94F501DC
:10296000180F1093330584E00E94F501180F10939F
:10297000330588E10E94F501180F1093330510927A
:102980003205812F0E946D138093330580913105AC
:10299000893130F181E0809332051091330585E172
:1029A0000E94F501180F1093330586E10E94F5018E
:1029B000180F1093330587E10E94F501180F10934B
:1029C000330588E10E94F501180F1093330510922A
:1029D0003205812F0E946D138093330510923105CB
:1029E000809131058F5F809331051F910F91FF908A
:1029F000EF900895EF92FF920F931F930E94A80506
:102A00008091F904882309F4C3C00E94AE1F9B0182
:102A1000AC0120931D0730931E0740931F0750936E
:102A200020078091210790912207A0912307B09160
:102A3000240779018A01E81AF90A0A0B1B0BD8014D
:102A4000C701C397A105B105BCF0209321073093BE
:102A50002207409323075093240780910A078F5F32
:102A600080930A07803141F410920A078091950201
:102A7000843011F40E94DA060E94F50C80910A0756
:102A8000E0914A05F0E094E0EE0FFF1F9A95E1F720
:102A9000E80FF11DE653FC4F8091FE0460810E9417
:102AA0001B2180912507813041F50E94DA0562E300
:102AB00070E080E090E00E94BC1F0E94DA0562E3B3
:102AC00070E080E090E00E94BC1F0E94DA0562E3A3
:102AD00070E080E090E00E94BC1F109225071092E9
:102AE000AD020E94AE1F0E9409256093CA05709333
:102AF000CB058093CC059093CD058091BF058823AD
:102B000081F480919502882331F08FE895E068EF99
:102B100071E00E94F42381E08093250786E0809392
:102B20009E020E94EB0E88E695E00E94551A0E94D4
:102B3000B10C80910005882311F00E94D61380917A
:102B4000490580FD0CC080E090E0A0E0B0E08093FB
:102B5000FF0590930006A0930106B09302060E9421
:102B600073046091480561FF13C0862F8D7F8093A9
:102B700048056795662767956093470586E990E065
:102B80000E94370B87E990E06091D2050E94370BD5
:102B90001F910F91FF90EF9008950F931F93CF9384
:102BA000DF9384E0809395028BE495E040E051EE62
:102BB00060E070E00E9475178FE895E040E056E90C
:102BC00060E070E00E94981B80919502882331F0AC
:102BD0008FE895E060E172E00E94F4238091950215
:102BE000882331F08FE895E060E272E00E94F423E0
:102BF00084E10E945A208F5F934051F480919502A6
:102C0000882331F08FE895E061E472E00E94F423BC
:102C100084E10E945A208F5F934041F58BE08093BE
:102C200094021092A00210929F0287E090E090938D
:102C3000A2028093A10288E090E09093A402809386
:102C4000A30289E090E09093A6028093A5028AE017
:102C500090E09093A8028093A70283E090E0909385
:102C6000AA028093A90284E090E027C08AE08093C2
:102C700094021092A00210929F0288E090E090933C
:102C8000A2028093A10289E090E09093A402809335
:102C9000A3028AE090E09093A6028093A50284E0CC
:102CA00090E09093A8028093A70283E090E0909335
:102CB000AA028093A90282E090E09093AC028093F4
:102CC000AB0283E795E040E855E260E070E00E94E7
:102CD000981B88EE93E00E94AB0C082F8EEE93E0D9
:102CE0000E94AB0C10E0080F111D0B321105B1F062
:102CF00080919502882331F08FE895E066E572E0D7
:102D00000E940A230E943F0B80919502882331F094
:102D10008FE895E068E672E00E94F4238DE890E089
:102D20000E94AB0C8823B1F080919502882331F08A
:102D30008FE895E066E572E00E940A230E943F0B4F
:102D400080919502882331F08FE895E068E672E083
:102D50000E94F42380E890E00E94AB0C8093FA0478
:102D600081E890E00E94AB0C8093FB0482E890E045
:102D70000E94AB0C8093FC0483E890E00E94AB0CB3
:102D80008093FD0485E890E00E94AB0C8093FE04E4
:102D900088E990E00E94AB0C8093FF048CE890E0FF
:102DA0000E94AB0C809300058BE495E09093AC05FA
:102DB0008093AB05CFE9D2E0888161E00E94DC20FE
:102DC000229682E0CB3AD807B9F7C0E0D0E089E19B
:102DD00090E00E9444132196C630D105C1F7C0E0AF
:102DE000D0E00E94B60D64E670E080E090E00E94C2
:102DF000BC1F0E949C0D64E670E080E090E00E94A1
:102E0000BC1F2196C330D10561F70E94F50C8BE4FD
:102E100095E06FE672E00E940A230E94941ABC01BA
:102E20008BE495E04AE050E00E94EB22809195020D
:102E3000882349F00E94941ABC018FE895E04AE08B
:102E400050E00E94EB2288E695E06DE57DE022E30C
:102E500030E040E050E000E00E94071A88E695E08C
:102E60000E946D1A81E0809325078093F904809178
:102E70009502882331F08FE895E069E772E00E94BF
:102E8000F423809148051092D2058C7F80934805E9
:102E900086E990E00E94AB0C80934705909148052D
:102EA00087FF0AC091609093480587E990E00E94EF
:102EB000AB0C8093D20503C09E7F90934805809110
:102EC00049058E7F8093490580E090E0A0E0B0E066
:102ED0008093FF0590930006A0930106B09302062D
:102EE000DF91CF911F910F9108950F931F93DC01F4
:102EF000ED91FC910288F389E02D20E030E000E0C4
:102F000010E009951F910F9108958F92AF92CF9283
:102F1000EF92FF920F931F93DF93CF93CDB7DEB75E
:102F2000FC011382128288EE93E0A0E0B0E084837B
:102F30009583A683B7838EEC94E091838083558735
:102F4000448737872687118B008BF38AE28AC48AED
:102F5000A58A868A70E0CB0123E0880F991F2A9505
:102F6000E1F79C012A5D384F308F278B825D984FA7
:102F7000928F818F81E090E002C0880F991F6A953F
:102F8000E2F720913607282B20933607CF0140E047
:102F900051EE60E070E00E947517CF91DF911F91B4
:102FA0000F91FF90EF90CF90AF908F900895FC011C
:102FB000838D882319F42FEF3FEF0DC00788F08D24
:102FC000E02D2081318182819381281B390B8481FE
:102FD000958128233923C9010895FC01838D882315
:102FE00019F42FEF3FEF11C0018CF28DE02D2081FD
:102FF000318182819381281B390B20953095848102
:103000009581282339232F5F3F4FC9010895FC0183
:10301000838D882361F0A789B08D2D913C91119704
:1030200012968D919C9113972817390721F44FEF31
:103030005FEFCA01089512968D919C911397169691
:10304000ED91FC911797E80FF91F408112968D9131
:103050009C911397019614962D913C91159782237C
:10306000932313969C938E93129750E0E2CFFC012A
:10307000838D882351F00788F08DE02D20813181E8
:10308000828193812817390721F42FEF3FEFC9017F
:103090000895828193810680F781E02DE80FF91F62
:1030A0008081282F30E0F3CFDC015796ED91FC9121
:1030B000589782819381918380835996ED91FC91F9
:1030C0005A9780819181938382830895DC015B9676
:1030D0008C915B978823A9F15996ED91FC915A97B1
:1030E000208131812F5F3F4F8481958128233923AF
:1030F0005C968C915C97882329F0828193812817B4
:103100003907F9F08281938128173907D9F3808133
:1031100091810680F781E02DE80FF91F60835996B1
:10312000ED91FC915A97318320835296ED91FC9159
:103130005397808156969C91892B808321E030E0C3
:1031400002C020E030E0C9010895CF93DF93EC0185
:103150001B821A828A819B81998388831D821C82AB
:103160008E819F81009721F00E94CE1E1F821E82B9
:10317000DF91CF9108950F931F938C01DC0152963C
:10318000ED91FC915397208156968C9156975596C8
:103190009C915597892B80958223808357968D919A
:1031A0009C9158970E94A518F801818D928D0E94DC
:1031B000A518D8015B961C921F910F9108950F934B
:1031C0001F93CF93DF938C01FC01138212828281C3
:1031D00093819183808341E0A1E0B0E001C04F5F23
:1031E000FD01042E02C0EE0FFF1F0A94E2F79B01BF
:1031F00082E06130780710F020E032E0E217F30758
:1032000070F3C1E0D0E002C0CC0FDD1F4A95E2F7B9
:103210002197F801268137812115310541F08481FC
:1032200095818C179D0789F0C9010E94CE1EF80177
:10323000D583C483CE0101960E94311E9C01F80102
:103240009783868380E0232B09F081E0DF91CF9183
:103250001F910F910895AF92BF92CF92DF92EF929C
:10326000FF920F931F93CF93DF937C015A016B0161
:10327000E901DC015B968C915B978823F1F02115C5
:10328000310539F45796ED91FC915897C481D58159
:1032900021960115110549F4D7015996ED91FC913C
:1032A0005A97048115810F5F1F4FD701ED91FC9153
:1032B0000088F189E02DC7010995F7018789908D74
:1032C000209711F4C0E8D0E0BE010E94DF188823E7
:1032D00081F0D70159968D919C915A97011511054E
:1032E00011F400E110E0B8010E94DF18882309F012
:1032F0004DC0D701ED91FC910088F189E02DC70107
:10330000099567C0D7015096ED91FC915197B0E0B7
:10331000AB16B1EEBB06B0E0CB06B0E0DB0609F4BD
:1033200054C081E090E0D70154960C9002C0880F01
:10333000991F0A94E2F7808360E079E08DE390E0E2
:10334000A60195010E949A262150304040405040ED
:10335000CA01B90122E030E040E050E00E949A2624
:10336000D7011C96ED91FC911D9730831E96ED912F
:10337000FC911F972083D7015296ED91FC915397B2
:10338000808155969C91892B808323C0D7015996C3
:10339000ED91FC915A9713821282828193819183DD
:1033A00080835796ED91FC91589713821282828107
:1033B00093819183808381E05B968C931A141B0424
:1033C0001C041D040CF49ECFD6CF108220E130E007
:1033D000C7CFDF91CF911F910F91FF90EF90DF90BA
:1033E000CF90BF90AF900895F999FECF72BD61BDA7
:1033F000F89A80B50895F999FECF1FBA72BD61BDE4
:1034000040BD0FB6F894FA9AF99A0FBE08950F933B
:10341000FC016115710511F480E011C02183328334
:1034200043835483728761870170000F000F000F80
:103430008081877F802B82608B7F808381E00F91EA
:103440000895CF93DF93EC010E94AE1F9B01AC0166
:103450008D819E81AF81B885281739074A075B07A0
:1034600028F4888184FD02C060E00DC089819A81C2
:10347000AB81BC81820F931FA41FB51F8D839E83D8
:10348000AF83B88761E0222757FD23953327442770
:103490005527922F91709295907F88818F7E892BEE
:1034A0008883862FDF91CF910895CF93DF93EC012E
:1034B000888182FF0FC0CE010E94211A882351F01B
:1034C000E985FA85309709F00995888183FF02C064
:1034D0008B7F8883DF91CF910895CF93DF93EC01A9
:1034E00089859A85892BE1F089819A81AB81BC819C
:1034F0000097A105B105A1F00E94AE1F29813A8174
:103500004B815C81260F371F481F591F2D833E8337
:103510004F835887888184608F7E888381E001C0D3
:1035200080E0DF91CF910895DF93CF9300D0CDB7A6
:10353000DEB72091850730918607CE0101962115CF
:10354000310519F48958974002C0821B930B9A8366
:10355000898389819A810F900F90CF91DF9108958F
:103560000F931F93CF93DF93FC01738D769571704A
:10357000A685B7859585772329F08C91892309F451
:1035800054C004C08C91892309F04FC08389948969
:1035900020E001972FEF8F3F9207D9F7C589D68991
:1035A000A685B785158560E031E040E050E000E099
:1035B000CE01202F01972FEF8F3F9207D9F78C91E3
:1035C000812311F0632B03C0832F80956823330F71
:1035D0004F5F5F4F4830510559F78789908D20E044
:1035E00001972FEF8F3F9207D9F771116095809166
:1035F0007A0720917B0790E001968F73907030E0FE
:103600008217930779F0E0917A07F0E0E65CF84FD3
:10361000608380917A0790E001968F739070809319
:103620007A0703C0838D8160838FDF91CF911F91D3
:103630000F9108951F920F920FB60F9211242F939E
:103640003F934F935F936F937F938F939F93AF932A
:10365000BF93EF93FF9380913807909139070097BC
:1036600011F00E94B01AFF91EF91BF91AF919F911D
:103670008F917F916F915F914F913F912F910F901B
:103680000FBE0F901F9018951F920F920FB60F92BA
:1036900011242F933F934F935F936F937F938F9357
:1036A0009F93AF93BF93EF93FF93809138079091CF
:1036B0003907009711F00E94B01AFF91EF91BF9166
:1036C000AF919F918F917F916F915F914F913F91BA
:1036D0002F910F900FBE0F901F9018951F920F9271
:1036E0000FB60F9211242F933F934F935F936F93D5
:1036F0007F938F939F93AF93BF93EF93FF938091AB
:10370000380790913907009711F00E94B01AFF9185
:10371000EF91BF91AF919F918F917F916F915F9149
:103720004F913F912F910F900FBE0F901F901895C2
:10373000CF92DF92EF92FF920F931F93CF93DF937D
:10374000EC017A018B011A8E198E188E1F8A1E8A3F
:103750001D8A1C8A1B8A20E030E06901CC0CDD1C2C
:10376000C20ED31EB601660F771F660F771FAB011F
:1037700042525F4FFA0185919591A591B4918E15B2
:103780009F05A007B107E9F4FB01EE51FF4F8591BA
:1037900094919C8B8B8BFB01EC51FF4F8591949105
:1037A0009E8B8D8BFB01EA51FF4F85919491988FF1
:1037B0008F8BFB01E851FF4F859194919A8F898FF0
:1037C00006C02F5F3F4F2D30310509F0C6CF8F89DE
:1037D000988D892B09F449C04C85463108F03DC0CD
:1037E00090916800483010F484E005C04E3010F02D
:1037F00082E001C081E0892B80936800483028F482
:10380000EDE6F0E0ADE6B0E00BC04E3028F0ECE6BF
:10381000F0E0ACE6B0E004C0EBE6F0E0ABE6B0E030
:103820005081483040F481E090E002C0880F991F39
:103830004A95E2F710C0242F30E04E3018F428509B
:10384000304002C02E50304081E090E002C0880F2E
:10385000991F2A95E2F7852B8C93898D9A8D20E00C
:1038600001972FEF8F3F9207D9F7809138079091FA
:1038700039078C179D0781F08B8D8E7F8B8F9FB7BB
:10388000F89410927A0780917A0780937B07D093FF
:103890003907C09338079FBFDF91CF911F910F91D8
:1038A000FF90EF90DF90CF900895FC014485463162
:1038B00080F5483028F4EDE6F0E0ADE6B0E00BC06E
:1038C0004E3028F4EBE6F0E0ABE6B0E004C0ECE606
:1038D000F0E0ACE6B0E05081483040F481E090E0A8
:1038E00002C0880F991F4A95E2F710C0242F30E0DC
:1038F0004E3018F42850304002C02E50304081E045
:1039000090E002C0880F991F2A95E2F780958523E1
:103910008C930895FC0186EE94E091838083CF011F
:103920000E94551C089520913807309139072817B7
:10393000390731F490917B0780917A07981719F431
:103940002FEF3FEF0FC0E0917B07F0E0E65CF84F10
:10395000208180917B0790E001968F739070809317
:103960007B0730E0C901089520913807309139076D
:103970002817390719F020E030E00EC080917A074F
:1039800020917B0790E0805C9F4F821B910960E44F
:1039900070E00E9465269C01C90108950F931F9352
:1039A000DC0159968D919C915A97892B49F481E0BD
:1039B00090E013969C938E93129720E030E097C08E
:1039C0000FB7F8945B968C915B975196ED91FC91B3
:1039D000529750962C91509781FF8DC08081822BF9
:1039E000808359968D919C915A97059620E0019776
:1039F0002FEF8F3F9207D9F75B968C915B9781FFF2
:103A000035C031E040E050E070E010E0832F90E0FE
:103A1000862397235196ED91FC91529750962C91C5
:103A20005097892B29F0808120952823208303C07B
:103A30008081822B808359968D919C915A97212F5A
:103A400001972FEF8F3F9207D9F7330F4F5F5F4FEB
:103A500048305105D9F65196ED91FC9152979081DD
:103A600050968C9150978095892333C031E040E087
:103A700050E070E010E0832F90E08623972351966A
:103A8000ED91FC91529750962C915097892B21F0F3
:103A90008081822B808304C080812095282320830D
:103AA00059968D919C915A97212F01972FEF8F3F17
:103AB0009207D9F7330F4F5F5F4F48305105D9F662
:103AC0005196ED91FC915297808150969C91509720
:103AD000892B80830FBF59968D919C915A9720E036
:103AE00001972FEF8F3F9207D9F721E030E0C9010E
:103AF0001F910F910895808120952823208371CFF5
:103B000020913807309139072817390749F49FB7B2
:103B1000F89410927A0780917A0780937B079FBF71
:103B2000089520913807309139072817390731F463
:103B300090917B0780917A07981719F42FEF3FEF48
:103B40000AC0E0917B07F0E0E65CF84F8081282F07
:103B5000332727FD3095C90108951F93CF93DF9335
:103B6000EC01162F862F60E00E94DC208B8D81FDFA
:103B700004C0812F61E00E941B211C87212F30E0AF
:103B8000C90184559E4FFC0184918D8728563E4F74
:103B9000F9016491E62FF0E0EE0FFF1FE257FE4FB0
:103BA000859194919F878E87DF91CF911F91089582
:103BB000FF920F931F938C01F62E862F61E00E94D7
:103BC000DC208F2D61E00E941B218F2D90E0FC01F5
:103BD000E455FE4FE491D8015096EC9350978856E7
:103BE0009E4FFC016491E62FF0E0EE0FFF1FEC57B3
:103BF000FE4F8591949152969C938E9351971F916D
:103C00000F91FF900895FF920F931F938C01F62E52
:103C1000FC011382128288EE93E0A0E0B0E084837E
:103C20009583A683B78386EE94E091838083148A7C
:103C3000138A168A158A108E178A128E118E838D1A
:103C40002170220F8C7F822B838FC801642F0E94EA
:103C5000D81DC8016F2D0E94AD1D1F910F91FF90BF
:103C600008950F931F93CF93DF93BC01823091058A
:103C700010F462E070E0E0918707F091880740E07F
:103C800050E0A0E0B0E024C08081918186179707C2
:103C9000D0F08617970771F482819381109729F0ED
:103CA00013969C938E9312972CC0909388078093C1
:103CB000870727C04115510519F08417950718F497
:103CC0008D01AC01EF01DF01828193819C01F9013B
:103CD0003097D1F641155105F9F0CA01861B970BB3
:103CE0008430910580F48A819B810115110521F0B2
:103CF000F8019383828304C0909388078093870799
:103D0000FE01329645C0FE01E80FF91F61937193E1
:103D10000297998388833CC080918507909186079C
:103D2000892B41F48091B0029091B1029093860763
:103D3000809385074091B2025091B302411551051D
:103D400041F44DB75EB78091AE029091AF02481B2F
:103D5000590B209185073091860724173507B0F459
:103D6000CA01821B930B8617970780F0AB014E5F49
:103D70005F4F8417950750F0420F531F50938607EB
:103D800040938507F9016193719302C0E0E0F0E090
:103D9000CF01DF91CF911F910F910895CF93DF93C2
:103DA0009C01009709F48FC0EC0122971B821A82B4
:103DB00060918707709188076115710581F488818A
:103DC0009981820F931F20918507309186072817CC
:103DD000390739F5D0938607C093850774C0DB0196
:103DE00040E050E0AC17BD0708F1BB83AA83FE0199
:103DF00021913191E20FF31FAE17BF0779F48D9136
:103E00009C911197280F391F2E5F3F4F39832883CC
:103E100012968D919C9113979B838A83411551052E
:103E200071F4D0938807C09387074DC012968D9187
:103E30009C911397AD01009711F0DC01D3CFDA010B
:103E40001396DC93CE931297FA0121913191E20FF0
:103E5000F31FCE17DF0769F488819981280F391F76
:103E60002E5F3F4FFA01318320838A819B819383A8
:103E70008283E0E0F0E0DB0112968D919C91139734
:103E8000009719F0BC01FD01F6CFAB014E5F5F4F0B
:103E9000DB018D919C91840F951F209185073091B6
:103EA00086072817390779F4309729F41092880784
:103EB0001092870702C013821282425050405093E2
:103EC000860740938507DF91CF9108951F920F9247
:103ED0000FB60F9211242F933F938F939F93AF931D
:103EE000BF938091800790918107A0918207B09144
:103EF0008307309184070196A11DB11D232F2D5FEB
:103F00002D3720F02D570196A11DB11D2093840758
:103F10008093800790938107A0938207B0938307D3
:103F200080917C0790917D07A0917E07B0917F07DB
:103F30000196A11DB11D80937C0790937D07A093EE
:103F40007E07B0937F07BF91AF919F918F913F9173
:103F50002F910F900FBE0F901F9018958FB7F89468
:103F6000209180073091810740918207509183070B
:103F70008FBFB901CA0108959B01AC017FB7F894C6
:103F800080917C0790917D07A0917E07B0917F077B
:103F900066B5A89B05C06F3F19F00196A11DB11D24
:103FA0007FBFBA2FA92F982F8827860F911DA11D9B
:103FB000B11D62E0880F991FAA1FBB1F6A95D1F738
:103FC000BC012DC0FFB7F89480917C0790917D07CC
:103FD000A0917E07B0917F07E6B5A89B05C0EF3F93
:103FE00019F00196A11DB11DFFBFBA2FA92F982F5F
:103FF00088278E0F911DA11DB11DE2E0880F991F2A
:10400000AA1FBB1FEA95D1F7861B970B885E9340CA
:10401000C8F2215030404040504068517C4F21153B
:1040200031054105510571F60895019739F0880F62
:10403000991F880F991F02970197F1F708957894B7
:1040400084B5826084BD84B5816084BD85B582609D
:1040500085BD85B5816085BDEEE6F0E0808181603B
:104060008083E1E8F0E0108280818260808380813B
:1040700081608083E0E8F0E0808181608083E1EB13
:10408000F0E0808184608083E0EBF0E080818160FB
:104090008083EAE7F0E080818460808380818260B1
:1040A000808380818160808380818068808310929A
:1040B000C1000895982F8E3008F09E50977080911F
:1040C000B4028295880F880F807C892B80937C00B6
:1040D00080917A00806480937A0080917A0086FDD6
:1040E000FCCF2091780040917900942F80E030E05F
:1040F000282B392BC90108951F93CF93DF93182FD5
:10410000EB0161E00E94DC20209709F44AC0CF3F18
:10411000D10509F449C0E12FF0E0E054FE4F84914D
:104120008330C1F0843028F4813051F08230B1F511
:104130000CC0863019F1873049F1843079F514C00C
:1041400084B5806884BDC7BD33C084B5806284BD3A
:10415000C8BD2EC080918000806880938000D0937D
:104160008900C093880024C0809180008062809381
:104170008000D0938B00C0938A001AC08091B00059
:1041800080688093B000C093B30012C08091B000EB
:1041900080628093B000C093B4000AC0C038D105DB
:1041A0001CF4812F60E002C0812F61E00E941B217E
:1041B000DF91CF911F910895CF93DF93482F50E067
:1041C000CA0184559E4FFC01349148565E4FFA0156
:1041D0008491882369F190E0880F991FFC01E658CB
:1041E000FE4FA591B491FC01EC57FE4FC591D491BF
:1041F000662351F42FB7F8948C91932F90958923CF
:104200008C93888189230BC0623061F42FB7F894B6
:104210008C91932F909589238C938881832B88830D
:104220002FBF06C09FB7F8948C91832B8C939FBFB0
:10423000DF91CF910895482F50E0CA0180549E4FDE
:10424000FC012491CA0184559E4FFC01949148566B
:104250005E4FFA013491332309F440C0222351F117
:10426000233071F0243028F42130A1F0223011F5F0
:1042700014C02630B1F02730C1F02430D9F404C086
:10428000809180008F7703C0809180008F7D809324
:10429000800010C084B58F7702C084B58F7D84BD47
:1042A00009C08091B0008F7703C08091B0008F7DEE
:1042B0008093B000E32FF0E0EE0FFF1FEC57FE4FAE
:1042C000A591B4912FB7F894662321F48C91909521
:1042D000892302C08C91892B8C932FBF0895CF9393
:1042E000DF930E941F200E94CD15C0E0D0E00E9405
:1042F000FA142097E1F30E940000F9CFCF92DF92E9
:10430000EF92FF920F931F93CF93DF937C016B018A
:104310008A01C0E0D0E00FC0D6016D916D01D701D8
:10432000ED91FC910190F081E02DC7010995C80F36
:10433000D91F015010400115110571F7CE01DF9111
:10434000CF911F910F91FF90EF90DF90CF90089544
:10435000EF92FF920F931F938C01DC01ED91FC9182
:104360000190F081E02D6DE009957C01D801ED917F
:10437000FC910190F081E02DC8016AE009959C0153
:104380002E0D3F1DC9011F910F91FF90EF900895D1
:10439000CF93DF93EC016115710519F420E030E053
:1043A0000FC0DB010D900020E9F71197A61BB70B9A
:1043B000E881F9810280F381E02DAD0109959C012E
:1043C000C901DF91CF9108954F925F927F928F92B2
:1043D0009F92AF92BF92CF92DF92EF92FF920F9394
:1043E0001F93DF93CF93CDB7DEB7A1970FB6F894A5
:1043F000DEBF0FBECDBF2C01742ECB01223008F4DE
:104400002AE019A231E2C32ED12CCC0EDD1E822E61
:104410009924AA24BB24672D752FA50194010E941D
:10442000782679018A01C801B701A50194010E948B
:104430002626472D461B0894C108D1084A3014F49B
:10444000405D01C0495CF6014083E114F1040105BF
:10445000110521F07E2C5F2DC801DDCFC201B60110
:104460000E94C821A1960FB6F894DEBF0FBECDBF43
:10447000CF91DF911F910F91FF90EF90DF90CF9040
:10448000BF90AF909F908F907F905F904F900895D6
:10449000DC012115310541F4ED91FC910190F08191
:1044A000E02D642F099508950E94E4210895EF926C
:1044B000FF920F931F939A017B0100E010E0B80177
:1044C000A7010E9448221F910F91FF90EF9008953D
:1044D000EF92FF920F931F939A01E62EFF2400E0C4
:1044E00010E0B801A7010E9448221F910F91FF9090
:1044F000EF900895CF92DF92EF92FF920F931F9368
:104500006C01E62E9A01FF2400E010E0B801A7013B
:104510000E9448228C01C6010E94A821080F191F81
:10452000C8011F910F91FF90EF90DF90CF900895F9
:10453000CF92DF92EF92FF920F931F93CF93DF936F
:10454000EC016A017B012115310541F4E881F98113
:104550000190F081E02D642F09951FC02A303105AC
:10456000D1F477FF17C0E881F9810190F081E02D47
:104570006DE209958C0144275527BA014C195D0954
:104580006E097F09CE012AE00E94E4219801280FDC
:10459000391F04C02AE00E94E4219C01C901DF9177
:1045A000CF911F910F91FF90EF90DF90CF900895E2
:1045B000EF92FF920F931F937B019A010027F7FC64
:1045C0000095102FB801A7010E9498221F910F910A
:1045D000FF90EF900895CF92DF92EF92FF920F93AA
:1045E0001F936C017B019A010027F7FC0095102FA7
:1045F000B801A7010E9498228C01C6010E94A8213F
:10460000080F191FC8011F910F91FF90EF90DF90C5
:10461000CF9008950E94C82108957F928F929F9213
:10462000AF92BF92CF92DF92EF92FF920F931F93C0
:10463000CF93DF934C017A018B01722ECB01BA012B
:10464000A80197010E942226882321F0C40166E870
:1046500072E021C0C0E0D0E057016801E894D7F8CB
:10466000C601B5012FEF3FEF4FE75FE70E9422261B
:10467000882351F4C601B5012FEF3FEF4FE75FE705
:104680000E946C24181614F0C1E0D0E0219739F094
:10469000C4016AE872E00E94C821EC0193C0C8011D
:1046A000B7012FEF3FEF4FE75FE40E94BB251816DD
:1046B00054F0C801B7012FEF3FEF4FE75FEC0E94C6
:1046C0006C24882324F4C4016EE872E0E4CFC801AE
:1046D000B70120E030E040E050E00E946C2487FD0C
:1046E00003C0C0E0D0E00EC0D401ED91FC91019078
:1046F000F081E02DC4016DE20995EC0117FB1095E6
:1047000017F9109520E030E040E05FE3DD240BC0B6
:10471000CA01B90120E030E040E251E40E94702477
:104720009B01AC01D394D71498F3C801B7010E9440
:1047300008245B016C010E94DD247B018C01C40113
:10474000B801A7012AE030E00E944822C80FD91F13
:10475000772039F0C40162E972E00E94C821C80FD5
:10476000D91FC801B7010E9409259B01AC01C601F0
:10477000B5010E94072424C020E030E040E251E46B
:104780000E94BF257B018C010E94D8245B016C0133
:10479000CC24B7FCC094DC2CC401B601A5012AE0EE
:1047A00030E00E949822C80FD91FC601B5010E94AF
:1047B0000B259B01AC01C801B7010E9407247A9424
:1047C0007720D1F6CE01DF91CF911F910F91FF900D
:1047D000EF90DF90CF90BF90AF909F908F907F90A1
:1047E00008950E940D230895EF92FF920F931F9357
:1047F0007C010E94C8218C01C7010E94A821080FDA
:10480000191FC8011F910F91FF90EF900895505804
:10481000BB27AA270ED075C166D130F06BD120F02E
:1048200031F49F3F11F41EF45BC10EF4E095E7FBF9
:1048300051C1E92F77D180F3BA1762077307840754
:10484000950718F071F49EF58FC10EF4E0950B2ECC
:10485000BA2FA02D0B01B90190010C01CA01A001D2
:104860001124FF27591B99F0593F50F4503E68F12D
:104870001A16F040A22F232F342F4427585FF3CF6E
:10488000469537952795A795F0405395C9F77EF43F
:104890001F16BA0B620B730B840BBAF09150A1F088
:1048A000FF0FBB1F661F771F881FC2F70EC0BA0F0E
:1048B000621F731F841F48F4879577956795B79596
:1048C000F7959E3F08F0B3CF9395880F08F099278E
:1048D000EE0F979587950895D9D008F481E0089553
:1048E0000CD00FC107D140F0FED030F021F45F3F73
:1048F00019F0F0C0511139C1F3C014D198F39923C4
:10490000C9F35523B1F3951B550BBB27AA27621793
:104910007307840738F09F5F5F4F220F331F441FD8
:10492000AA1FA9F333D00E2E3AF0E0E830D0915010
:104930005040E695001CCAF729D0FE2F27D0660FFD
:10494000771F881FBB1F261737074807AB07B0E83C
:1049500009F0BB0B802DBF01FF2793585F4F2AF052
:104960009E3F510568F0B6C000C15F3FECF3983E32
:10497000DCF3869577956795B795F7959F5FC9F7AF
:10498000880F911D9695879597F90895E1E0660F38
:10499000771F881FBB1F621773078407BA0720F0B1
:1049A000621B730B840BBA0BEE1F88F7E09508951A
:1049B00004D06894B111D9C00895BCD088F09F5735
:1049C00090F0B92F9927B751A0F0D1F0660F771F5B
:1049D000881F991F1AF0BA95C9F712C0B13081F03B
:1049E000C3D0B1E00895C0C0672F782F8827B85F83
:1049F00039F0B93FCCF3869577956795B395D9F79C
:104A00003EF490958095709561957F4F8F4F9F4FA5
:104A10000895E89409C097FB3EF4909580957095B1
:104A200061957F4F8F4F9F4F9923A9F0F92F96E9FA
:104A3000BB279395F695879577956795B795F1116F
:104A4000F8CFFAF4BB0F11F460FF1BC06F5F7F4F0C
:104A50008F4F9F4F16C0882311F096E911C077231E
:104A600021F09EE8872F762F05C0662371F096E827
:104A7000862F70E060E02AF09A95660F771F881FF6
:104A8000DAF7880F9695879597F90895990F00089A
:104A9000550FAA0BE0E8FEEF16161706E807F90710
:104AA000C0F012161306E407F50798F0621B730BAB
:104AB000840B950B39F40A2661F0232B242B252B2C
:104AC00021F408950A2609F4A140A6958FEF811DCF
:104AD000811D089597F99F6780E870E060E0089570
:104AE0009FEF80EC089500240A9416161706180606
:104AF0000906089500240A941216130614060506E2
:104B00000895092E0394000C11F4882352F0BB0F72
:104B100040F4BF2B11F460FF04C06F5F7F4F8F4FD5
:104B20009F4F089557FD9058440F551F59F05F3F10
:104B300071F04795880F97FB991F61F09F3F79F0BF
:104B400087950895121613061406551FF2CF469541
:104B5000F1DF08C0161617061806991FF1CF8695C3
:104B60007105610508940895E894BB2766277727A7
:104B7000CB0197F908958ADF08F48FEF08950BD0E1
:104B8000C0CFB1DF28F0B6DF18F0952309F0A2CF2F
:104B9000A7CF1124EACFC6DFA0F3959FD1F3950FDD
:104BA00050E0551F629FF001729FBB27F00DB11DB1
:104BB000639FAA27F00DB11DAA1F649F6627B00D41
:104BC000A11D661F829F2227B00DA11D621F739F2A
:104BD000B00DA11D621F839FA00D611D221F749F38
:104BE0003327A00D611D231F849F600D211D822F7F
:104BF000762F6A2F11249F5750408AF0E1F08823C6
:104C00004AF0EE0FFF1FBB1F661F771F881F9150D2
:104C10005040A9F79E3F510570F05CCFA6CF5F3F93
:104C2000ECF3983EDCF3869577956795B795F79505
:104C3000E7959F5FC1F7FE2B880F911D969587958D
:104C400097F9089523DF880B990B0895629FD0018F
:104C5000739FF001829FE00DF11D649FE00DF11D37
:104C6000929FF00D839FF00D749FF00D659FF00DE6
:104C70009927729FB00DE11DF91F639FB00DE11DD3
:104C8000F91FBD01CF0111240895991B79E004C0DB
:104C9000991F961708F0961B881F7A95C9F780957B
:104CA0000895AA1BBB1B51E107C0AA1FBB1FA61773
:104CB000B70710F0A61BB70B881F991F5A95A9F7C5
:104CC00080959095BC01CD01089597FB092E07268C
:104CD0000AD077FD04D0E5DF06D000201AF47095E5
:104CE00061957F4F0895F6F7909581959F4F0895B0
:104CF000A1E21A2EAA1BBB1BFD010DC0AA1FBB1FE0
:104D0000EE1FFF1FA217B307E407F50720F0A21B51
:104D1000B30BE40BF50B661F771F881F991F1A94BE
:104D200069F760957095809590959B01AC01BD01E8
:104D3000CF01089597FB092E05260ED057FD04D00C
:104D4000D7DF0AD0001C38F4509540953095219556
:104D50003F4F4F4F5F4F0895F6F7909580957095B0
:104D600061957F4F8F4F9F4F0895EE0FFF1F059066
:104D7000F491E02D099411E0C6EDD1E004C0FE01EC
:104D80000E94B7262296C83DD107C9F7F894FFCFF5
:104D900052657175657374696E67207261746573AD
:104DA000003000504C3A20002C2000200053617449
:104DB000733A00204669783A00204D6F6465733A73
:104DC000002041726D65643A00205468723A0020F8
:104DD000435055566F6C743A0020426174566F6CA4
:104DE000743A0020416C743A00204864673A00200D
:104DF0005370643A00204C61743A00204C6F6E008E
:104E00002048646F7000454550524F4D20526573E5
:104E1000657420746F20666163746F7279207365A6
:104E20007474696E677300416C6C4F666600416C08
:104E30006C4F6E004D4156696E6B2048656172740F
:104E400042656174004D41563A200020204D6F6448
:104E500065733A2000202041726D65643A2000207D
:104E6000204649583A20002020536174733A2000AC
:104E70002020435055566F6C743A20002020426128
:104E800074566F6C743A2000456E61626C696E678F
:104E900020726571756573747320616761696E0056
:104EA000446562756720706F7274204F70656E0084
:104EB0004E6F20696E7075742066726F6D20746815
:104EC00069732073657269616C706F72742E202033
:104ED0000052756E6E696E6720494F426F61726451
:104EE0002076312E310057726974696E672045450E
:104EF00050524F4D2E2E2E0020646F6E652E0046B0
:104F00007265656D656D3A2000456E64206F6620A0
:104F10007365747570006E616E00696E66006F7601
:104F200066002E000A010C010000000003000600CC
:104F300000080009000A00040003000200018000CC
:104F40008907000001327C8900EDD96877000000F4
:104F5000590000000000000000D69FDCA81817AA26
:104F600090437327F6B968EDF4DED409FEE61C1C05
:104F700084DDE80B992927D6DF8D210F036418EF14
:104F8000EE1EC8B7008200941500347C00000014A7
:104F900000988F0000000000000000000000E7B74C
:104FA0003F3600000000000000AF669ED0380000D1
:104FB00000000000000000000000000000000000F1
:104FC00000000000000000000000000000000000E1
:104FD000000000000000000000000086DBD0BC5490
:104FE00016131586004E44BD7F2A151500000000DB
:104FF00000000000000000000000000000000000B1
:1050000000000000000000000000000000000000A0
:105010000000000000000000000000000000000090
:105020000000000000000000000000000000000080
:105030000000000000000000000000000000CC3173
:10504000AA2C532E000200020005000200050002F7
:10505000000200010203060A0B0C0101010101011B
:105060000101010101010101010100010001000133
:105070000001000100010001000101000100010028
:105080000100010001000100010001010000010117
:105090000000010100000101000001010101010106
:1050A00001010101000001010000010101010101F4
:1050B00001010101010101010101000000000000E6
:1050C00000000101010101010101000000000000D8
:1050D00000000000000000000000010101010101CA
:1050E00001010101010101010101010001000100B3
:1050F00001000100010001000100010001000100A8
:105100000100010001000100010001010000010196
:105110000000010100000101000001010101010185
:105120000101010100000101000001010101010173
:10513000010101010101010101010101010101015F
:10514000010100000000000000000000000000005D
:1051500000000000000000000000000000006618D1
:105160007E21D717071837185418ED177517BB1875
:105170002B1900000000CE1C7E21B41C931C911D35
:02518000801D90
:00000001FF
