:100000000C94EC000C9414010C9414010C94B41A8C
:100010000C94DE1A0C94081B0C9414010C9414011B
:100020000C9414010C9414010C9414010C941401FC
:100030000C9414010C9414010C9414010C941401EC
:100040000C94001F0C9414010C944C010C94880126
:100050000C9414010C9414010C9414010C941401CC
:100060000C9414010C9414010A0240024A025A0230
:1000700069027B02C502C5021B02C502C502C50298
:10008000C502C502C502C702DF02F70223036103EE
:100090007D0384038D039B03F0020803340376037E
:1000A000C502C502C502C502D80219035703A7033A
:1000B000B203BD03C5020904C502C502C502C502DB
:1000C000C502C502C502C502C502C502C502C502F8
:1000D000C502C502C502C502C502CD03DE0300C2CA
:1000E00001000100110011000C0000E100000A00F5
:1000F0002500250021000096000019003900390074
:100100003600127A00001F0046004600440080704E
:10011000000022004D004D004A00004B0000360058
:10012000750075007200403800004A009C009C0079
:100130009900802500007200EC00EC00E900C0127C
:100140000000E900DA01DA01D70160090000D701F7
:10015000B603B603B303B0040000B3036E076E0723
:100160006B07580200006E07DC0EDC0ED80E2C0167
:100170000000DC0EC11DC11DBE1D000000002400DA
:1001800027002A0000000000250028002B000000A6
:1001900000002300260029000404040404040404CD
:1001A0000202020202020303030303030102040822
:1001B00010204080010204081020010204081020D1
:1001C0000000000700020100000304060000000018
:1001D00000000000A1059A0511241FBECFEFD8E052
:1001E000DEBFCDBF14E0A0E0B1E0E4ECFCE402C06F
:1001F00005900D92A03FB107D9F717E0A0EFB4E04A
:1002000001C01D92A638B107E1F711E0C6EDD1E0BB
:1002100004C02297FE010E945126C43DD107C9F7B0
:100220000E9409210C9455260C940000CF92DF9275
:10023000EF92FF920F931F93CF93DF938C016B018B
:100240007A01C0E0D0E01CC0F601EC0FFD1F608118
:100250000115110521F00130110589F405C0E09167
:10026000A805F091A90504C0E091AA05F091AB059D
:10027000A081B1812D913C91CF01F9010995219681
:10028000CE15DF0508F3DF91CF911F910F91FF90FD
:10029000EF90DF90CF9008951F920F920FB60F92BC
:1002A00011242F933F934F938F939F93EF93FF933B
:1002B0004091C60020912307309124072F5F3F4FC4
:1002C00080912707909128072823392380912507BB
:1002D000909126072817390779F08091230790918C
:1002E0002407E0912907F0912A07E80FF91F4083BE
:1002F0003093240720932307FF91EF919F918F91D3
:100300004F913F912F910F900FBE0F901F90189516
:100310001F920F920FB60F9211242F933F938F933A
:100320009F93EF93FF9320912D0730912E0780919B
:100330002B0790912C0728173907E9F080912D079A
:1003400090912E07E0913107F0913207E80FF91FE5
:1003500080818093C60080912D0790912E07019691
:1003600020912F07309130078223932390932E07FB
:1003700080932D0710C020912B0730912C0780917E
:100380002D0790912E072817390729F48091C10075
:100390008F7D8093C100FF91EF919F918F913F914D
:1003A0002F910F900FBE0F901F901895423049F477
:1003B00020E031E040E050E00E943426C901DA013B
:1003C0000FC06F3F71058105910549F044F0413040
:1003D00031F4DC01CB019070A070B07001C003C09B
:1003E000BC012A2F9B2F822F0895EF92FF920F932B
:1003F0001F93CF93DF9390E0FC013197EB33F1052E
:1004000008F0C3C0EC5CFF4FEE0FFF1F0590F491A6
:10041000E02D099480913005C82FD0E0C250DB4F09
:1004200081E088836091EE057091EF058091F00581
:100430009091F105E9C1E090EE05F090EF05009193
:10044000F0051091F10580913005C82FD0E0C25021
:10045000DB4F89E08883C801B7010E947224882796
:1004600077FD8095982F0E94A5249B01AC01C801BF
:10047000B7010E94A12320E030E44CE156E4C2C160
:10048000E0913005F0E0E250FB4F82E08083809104
:1004900000065AC180913005E82FF0E0E250FB4F92
:1004A00083E080838091F504882311F086E64CC1B7
:1004B00084E34AC180913005C82FD0E0C250DB4FA1
:1004C00084E08883E090CD05F090CE0500E010E058
:1004D000B0C1E0913005F0E0E250FB4F85E0808351
:1004E0008091CC052AE0829FC00111242091CB0588
:1004F000280F21832AC1E0903B056091CF05E616C5
:1005000008F041C070E0882777FD8095982F0E9401
:10051000A5249B01AC016091AC057091AD05809163
:10052000AE059091AF050E940A2420E030E443E03C
:1005300055E40E94592526E636E646E850E40E9436
:100540000A240E94722460933C0570933D058093B9
:100550003E0590933F05E0913005F0E0E250FB4FFF
:1005600026E02083272F382F492F552747FD5A95FE
:100570002F70AE2DA295A07FA22BA1836283E3945E
:10058000E0923B0562C110923B0580E05FC1809123
:100590003005C82FD0E0C250DB4F80E188836091E6
:1005A000FC057091FD058091FE059091FF0599C0B5
:1005B000E0913005F0E0E250FB4F81E2ABC080916A
:1005C0003005C82FD0E0C250DB4F81E188836091B5
:1005D000F2057091F3058091F4059091F50581C0C5
:1005E000E0913005F0E0E250FB4F89E193C080914B
:1005F0003005C82FD0E0C250DB4F82E18883609184
:10060000EA057091EB058091EC059091ED0569C0CC
:1006100080913005C82FD0E0C250DB4F8AE188833B
:10062000E090EA05F090EB050091EC051091ED05E6
:100630002BC0E0913005F0E0E250FB4F82E2808376
:100640008091F10481C080913005C82FD0E0C25064
:10065000DB4F83E188836091D0057091D105809153
:10066000D2059091D3053DC080913005C82FD0E0D0
:10067000C250DB4F8BE18883E090D005F090D1052C
:100680000091D2051091D305C801B7010E947224D0
:100690000E94A5249B01AC01C801B7010E94A123BF
:1006A00020E030E44CE156E40E9459251AC0E09164
:1006B0003005F0E0E250FB4F83E280838091F0044C
:1006C00043C080913005C82FD0E0C250DB4F84E199
:1006D00088836091F6057091F7058091F8059091F7
:1006E000F9050E9472247B018C01A3C0E0913005C2
:1006F000F0E0E250FB4F8CE10DC0E0913005F0E0FE
:10070000E250FB4F85E106C0E0913005F0E0E25099
:10071000FB4F86E18083118218C0E0913005F0E044
:10072000E250FB4F87E18083809131058183809186
:10073000320582838AC0E0913005F0E0E250FB4F41
:1007400088E1808380913305818312827EC080910D
:100750003005C82FD0E0C250DB4F84E28883E090A0
:10076000020615C080913005C82FD0E0C250DB4F83
:1007700085E28883E09001060AC080913005C82F89
:10078000D0E0C250DB4F86E28883E090030684E627
:100790009E2D98027001112448C080913005C82F09
:1007A000D0E0C250DB4F8AE388836091AC05709142
:1007B000AD058091AE059091AF0526C080913005C2
:1007C000C82FD0E0C250DB4F8BE38883E090AC05AC
:1007D000F090AD050091AE051091AF05C801B701CD
:1007E0000E947224882777FD8095982F0E94A52467
:1007F0009B01AC01C801B7010E94A12320E030E0B9
:100800004AE754E40E9459250E9472247B018C011E
:100810000CC080913005C82FD0E0C250DB4F88E279
:100820008883E090F204F090F3040027F7FC009531
:10083000102FC801B70141E00E94D6016983C801A9
:10084000B70142E00E94D6016A8383E0DF91CF9135
:100850001F910F91FF90EF900895809133058C3395
:1008600038F010923305809132058F5F8093320506
:10087000809132058C3348F0109233051092320586
:10088000809131058F5F80933105809131058831EA
:1008900030F0109233051092320510923105089510
:1008A0006330B1F0643028F4613071F0623070F47C
:1008B00009C0653089F0653068F0663079F06730DE
:1008C00089F40EC080780895807408958072089528
:1008D00080710895887008958470089582700895D5
:1008E0008170089508958091CF05843099F1853005
:1008F00020F4833009F07EC057C08530B9F08630CF
:1009000009F078C06091FD0470E0882777FD80953C
:10091000982F0E94A5242CEE31E548E35EE30E9467
:10092000592520E030E040E951E427C06091FD0402
:1009300070E0882777FD8095982F0E94A5242AE9EA
:1009400039E949E15EE30E94592520E030E040E7C3
:1009500051E413C06091FD0470E0882777FD809515
:10096000982F0E94A5242FE832EC45EF5DE30E940A
:10097000592520E030E040E451E40E94A2239B018D
:10098000AC016091AC057091AD058091AE05909180
:10099000AF050E940624882324F483E080939E02FE
:1009A000089510929E0208956091FD0470E08827DA
:1009B00077FD8095982F0E94A5242CEE31E548EB19
:1009C0005DE30E94592520E030E040E151E40E94BF
:1009D000A2239B01AC016091AC057091AD058091A3
:1009E000AE059091AF050E940624880F880B837096
:1009F00080939E020895CF93DF93C0919C02D09183
:100A00009D02BE01882777FD8095982F0E94A5241E
:100A10009B01AC016091AC057091AD058091AE0574
:100A20009091AF050E940A2420E030E443E055E4B1
:100A30000E94592526E636E646E850E40E940A243C
:100A40000E94722488E0653378072CF4E0EBF5E02F
:100A500020E030E00DC0C630D105C4F72196D09318
:100A60009D02C0939C0207C0619371932F5F3F4F1B
:100A70002C173D07CCF3DF91CF9108958F92AF9261
:100A8000CF92EF92FF920F931F9381309105E9F57A
:100A90006F5F7F4F09F046C088E495E060E045EC69
:100AA00050E024EC30E000EC10E0F1ECEF2EF12C03
:100AB000CC24C394E8E9AE2E70E2872E0E941F1763
:100AC00010926605109267051092680510926905EC
:100AD00010926A0510926B0510926C0510926D05CC
:100AE00010926F0510926E051092650580E795E0F3
:100AF00066E045E021E00E949D1D8CE895E06CE0F9
:100B00004BE020E00E949D1D0DC0892B59F46F5FC2
:100B10007F4F41F48CE895E00E94241C80E795E02B
:100B20000E94241C1F910F91FF90EF90CF90AF90E7
:100B30008F90089580E090E06FEF7FEF0E943E0578
:100B4000089581E090E06FEF7FEF0E943E050895E9
:100B5000EF92FF920F931F930E94481F9B01AC01DD
:100B600020930A0730930B0740930C0750930D070F
:100B700080910E0790910F07A0911007B091110777
:100B800079018A01E81AF90A0A0B1B0BD801C7017F
:100B9000855F9140A040B04044F020930E07309311
:100BA0000F0740931007509311071F910F91FF906B
:100BB000EF9008952F923F924F925F926F927F92A3
:100BC0008F929F92AF92BF92CF92DF92EF92FF925D
:100BD0000F931F93DF93CF93CDB7DEB72E970FB64A
:100BE000F894DEBF0FBECDBF80919502882331F00F
:100BF0008CE895E060E071E00E948E2301EC13E048
:100C000063EBE62E63E0F62E53E0C52ED12CCC0E1E
:100C1000DD1E42E4242E3AE0432E512C4C0E5D1E84
:100C20002FE0622E712C6C0E7D1E99E0892E912C86
:100C30008C0E9D1E84E9382E5E010894A11CB11C07
:100C40002091BF053091C005F8014081F7018081F6
:100C500091819C838B832D833E834F83F1E0F887C2
:100C60008EEF898796E09A879091EF069B87809117
:100C700096028C87809197028D872E869F5F909336
:100C8000EF066FEF7FEFF2011CC021912627822F24
:100C90008295807F822790E0382F2227AC01A3E045
:100CA000440F551FAA95E1F724273527672F77278B
:100CB00062277327A4E095958795AA95E1F76827A1
:100CC0007927E615F70509F7F6011AC081918627FD
:100CD000282F2295207F282730E0722F6627C90110
:100CE00043E0880F991F4A95E1F7682779276A271B
:100CF0007B27B4E035952795BA95E1F762277327EE
:100D0000A72FBB27E815F90509F7862F8325282F7C
:100D10002295207F282730E0922F8827A90163E0C1
:100D2000440F551F6A95E1F7842795278A279B274B
:100D3000A4E035952795AA95E1F782279327898323
:100D40009A8380E090E0BF0146E050E00E941601E7
:100D500080E090E0B60146E050E00E94160180E09D
:100D600090E0B50142E050E00E9416010F5F1F4F76
:100D7000E2E0F0E0EE0EFF1EF3E0083C1F0709F092
:100D80005FCF2E960FB6F894DEBF0FBECDBFCF91CA
:100D9000DF911F910F91FF90EF90DF90CF90BF9068
:100DA000AF909F908F907F906F905F904F903F900B
:100DB0002F90089580919502882331F08CE895E07A
:100DC0006DE171E00E94A42280919502882341F098
:100DD0008CE895E06091CC054AE050E00E94022248
:100DE00080919502882331F08CE895E063E271E010
:100DF0000E94A42280919502882341F08CE895E01E
:100E00006091CB054AE050E00E9402228091950259
:100E1000882331F08CE895E069E271E00E94A42219
:100E200080919502882351F06091C2057091C305AD
:100E30008CE895E04AE050E00E94F1218091950213
:100E4000882331F08CE895E061E371E00E94A422F0
:100E500080919502882341F08CE895E06091F5043B
:100E60004AE050E00E94022280919502882331F0EE
:100E70008CE895E069E371E00E94A42280919502DC
:100E8000882351F06091FA057091FB058CE895E09C
:100E90004AE050E00E94F12180919502882331F0D0
:100EA0008CE895E06FE371E00E94A42280919502A6
:100EB000882371F0409135055091360560913705D2
:100EC000709138058CE895E022E030E00E948B2399
:100ED00080919502882331F08CE895E069E471E017
:100EE0000E94A42280919502882371F04091AC0564
:100EF0005091AD056091AE057091AF058CE895E01D
:100F000022E030E00E948B2380919502882331F00B
:100F10008CE895E063E571E00E94A422809195023F
:100F2000882371F04091FC055091FD056091FE050C
:100F30007091FF058CE895E022E030E00E948B2361
:100F400080919502882331F08CE895E069E571E0A5
:100F50000E94A42280919502882371F04091F605A9
:100F60005091F7056091F8057091F9058CE895E0CE
:100F700022E030E00E948B2380919502882331F09B
:100F80008CE895E06FE571E00E94A42280919502C3
:100F9000882371F04091F2055091F3056091F405BA
:100FA0007091F5058CE895E022E030E00E948B23FB
:100FB00080919502882331F08CE895E065E671E038
:100FC0000E94A42280919502882371F04091D0055F
:100FD0005091D1056091D2057091D3058CE895E0D0
:100FE00022E030E00E948B2380919502882331F02B
:100FF0008CE895E06BE671E00E94A4228091950256
:10100000882371F04091EA055091EB056091EC0561
:101010007091ED058CE895E022E030E00E948B2392
:1010200080919502882331F08CE895E060E771E0CB
:101030000E94A42280919502882351F06091D405EA
:101040007091D5058CE895E04AE050E00E94F121CE
:1010500080919502882331F08CE895E06BE171E096
:101060000E948E2308958F929F92AF92BF92CF924B
:10107000DF92FF920F931F93CF93DF93F62E4901D8
:10108000C82EDD248601000F111F5801AC0CBD1CB9
:10109000E501CC0FDD1FCC0FDD1FC851D94F1882E1
:1010A0008B819C818430910509F48EC08530910537
:1010B0005CF48230910509F443C0833091050CF053
:1010C000BFC09923C4F44FC28730910509F443C1CE
:1010D0008830910544F48530910509F4DEC0069707
:1010E00009F041C207C18830910509F47AC1099716
:1010F00009F039C2E7C18EEF681709F034C282E007
:1011000090E09C838B8380E790E0C89ED001C99ECD
:10111000B00DD89EB00D1124A85FB94F13961C9244
:10112000139788E390E0C89EF001C99EF00DD89E09
:10113000F00D1124EE0FFF1FE65FF94F6083A4C18D
:10114000E5E6E61788F489818F5F8983F501EE0F64
:10115000FF1FEE0FFF1FE651F94F80818F5F8083E5
:10116000188281E090E02DC080E790E0C89EF001F9
:10117000C99EF00DD89EF00D1124E85FF94F6383EE
:101180001D8280818627282F2295207F282730E006
:10119000522F4427C90163E0880F991F6A95E1F730
:1011A00048275927818190E04827592784E03595C1
:1011B00027958A95E1F7422753275183408384E09E
:1011C00090E09C838B83CFC18CE190E0C89EF001BE
:1011D000C99EF00DD89EF00D1124EE0FFF1FEE0FEB
:1011E000FF1FE45FF94F608380E790E0C89EF00145
:1011F000C99EF00DD89EF00D1124E85FF94F808153
:101200008627282F2295207F282730E0522F442739
:10121000C901B3E0880F991FBA95E1F7482759270C
:10122000818190E048275927A4E035952795AA9514
:10123000E1F7422753275183408383E090E0C1CFF9
:1012400080E790E0C89EF001C99EF00DD89EF00D99
:101250001124E85FF94F658380818627282F229526
:10126000207F282730E0522F4427C90163E0880FF0
:10127000991F6A95E1F748275927818190E048270F
:10128000592704E0359527950A95E1F7422753271A
:101290005183408385E090E094CF80E790E0C89E42
:1012A000F001C99EF00DD89EF00D1124E85FF94FB2
:1012B000668380818627282F2295207F282730E08B
:1012C000522F4427C901B3E0880F991FBA95E1F75F
:1012D00048275927818190E048275927A4E0359570
:1012E0002795AA95E1F7422753275183408386E04B
:1012F00090E067CF80E790E0C89EF001C99EF00DB6
:10130000D89EF00D1124E85FF94F6783808186270E
:10131000282F2295207F282730E0522F4427C9010B
:1013200063E0880F991F6A95E1F748275927818163
:1013300090E04827592794E0359527959A95E1F74D
:1013400042275327518340838381882309F446C071
:1013500087E090E036CF6D81F80183E0EE0FFF1F4C
:101360008A95E1F7E01BF10B319603E0EE0FFF1FCA
:101370000A95E1F7E60FF11DE85FF94FF0826F5F24
:101380006D8380E790E0C89EF001C99EF00DD89E65
:10139000F00D1124E85FF94F80818F25282F2295C9
:1013A000207F282730E0522F4427C901B3E0880F5F
:1013B000991FBA95E1F748275927818190E048277E
:1013C0005927A4E035952795AA95E1F74227532799
:1013D000518340838381681709F0C5C088E090E09D
:1013E000F0CE80E790E0C89ED001C99EB00DD89E97
:1013F000B00D1124A85FB94F9C911796EC911797E7
:10140000F0E0ED54FD4F80818927482F4295407FC1
:10141000482750E0342F2227CA0173E0880F991F14
:101420007A95E1F72827392711968C91119790E04A
:101430002827392764E0559547956A95E1F72427D1
:10144000352711963C932E938F2D90E030708217A4
:101450009307F9F0F501EE0FFF1FEE0FFF1FE651A6
:10146000F94F80818F5F8083188281E090E09C83B8
:101470008B83FEEFFF1609F076C082E090E09C833C
:101480008B8313961C9213978FEF9FEF8D939C93F2
:101490006AC089E090E09C838B83F80183E0EE0FC3
:1014A000FF1F8A95E1F7E01BF10B319613E0EE0F79
:1014B000FF1F1A95E1F78D81E80FF11DE85FF94FE5
:1014C000F08251C0262F30E080E790E0C89EB00146
:1014D000C99E700DD89E700D1124685F794FFB0175
:1014E000818190E028173907E9F0F501EE0FFF1F21
:1014F000EE0FFF1FE651F94F80818F5F80831882C6
:1015000081E090E09C838B83FEEFFF1661F582E023
:1015100090E09C838B83EB011B828FEF9FEF99837D
:10152000888321C081E0888381E090E09C838B8365
:10153000F801A3E0EE0FFF1FAA95E1F7E01BF10B06
:10154000319633E0EE0FFF1F3A95E1F78D81E80FFA
:10155000F11DE75FF94FF082DA01FB0180E70190AE
:101560000D928150E1F7D601AA0FBB1FAC0DBD1D36
:10157000AA0FBB1FAA0FBB1FA851B94F8C91813076
:1015800069F58CE190E0C89EF001C99EF00DD89EEF
:10159000F00D1124EE0FFF1FEE0FFF1FE45FF94F58
:1015A000808116968C93169718968D919C91199719
:1015B000892B21F41B961C921E921A97F601EE0FAE
:1015C000FF1FEC0DFD1DEE0FFF1FEE0FFF1FE8517B
:1015D000F94F80859185019691878087F601EE0FFE
:1015E000FF1FEC0DFD1DEE0FFF1FEE0FFF1FDF01B4
:1015F000A851B94F16968C9116978F5FE4018E8390
:1016000018968D919C91199799878887E651F94F83
:1016100080818A871B8610828C91DF91CF911F91E8
:101620000F91FF90DF90CF90BF90AF909F908F90E1
:101630000895DF92EF92FF920F931F938C01262F54
:10164000D42E34E3E32E37E0F32EC701B801422F46
:101650000E9495190F5F1F4FC701B8014D2D0E94C1
:1016600095191F910F91FF90EF90DF9008959C01C5
:10167000462F84E397E0B9010E949519089580915F
:101680009502882331F08CE895E066E771E00E94CE
:101690008E2380E090E060EC40E00E94190B82E035
:1016A00090E060EF40EF0E94190B84E090E068EF5B
:1016B00044E00E94190B86E090E06CEC4CEC0E9438
:1016C000190B88E090E068E848E80E94190B8AE06E
:1016D00090E06AEA40EA0E94190B8CE090E06AEA26
:1016E0004AEA0E94190B8EE090E060EA40EA0E940C
:1016F000190B80E190E060EC40EC0E94190B82E154
:1017000090E060E840E80E94190B84E190E060E816
:1017100040E80E94190B86E190E060E840E80E94F2
:10172000190B88E190E060E840E80E94190B8AE11B
:1017300090E060E840E80E94190B8CE190E060E8DE
:1017400040E80E94190B8EE190E060E840E80E94BA
:10175000190B80E290E060E040E00E94190B82E209
:1017600090E060E040E00E94190B84E290E060E0CD
:1017700040E00E94190B86E290E060E040E00E94A9
:10178000190B88E290E060E040E00E94190B8AE2C9
:1017900090E060E040E00E94190B8CE290E060E095
:1017A00040E00E94190B8EE290E060E040E00E9471
:1017B000190B80E390E060E040E00E94190B82E3A7
:1017C00090E060E040E00E94190B84E390E060E06C
:1017D00040E00E94190B86E390E060E040E00E9448
:1017E000190B88E390E060E040E00E94190B8AE367
:1017F00090E060E040E00E94190B8CE390E060E034
:1018000040E00E94190B8EE390E060E040E00E940F
:10181000190B80E490E060E041EA0E94190B82E439
:1018200090E061E042EA0E94190B84E490E062E0FB
:1018300043EA0E94190B86E490E063E044EA0E94C8
:10184000190B88E490E064E045EA0E94190B8AE4F1
:1018500090E065E046EA0E94190B8CE490E066E0B7
:1018600047EA0E94190B8EE490E067E048EA0E9484
:10187000190B80E590E068E049EA0E94190B82E5C7
:1018800090E069E04AEA0E94190B84E590E06AE082
:101890004BEA0E94190B86E590E06BE04CEA0E944F
:1018A000190B88E590E06CE04DEA0E94190B8AE57F
:1018B00090E06DE04EEA0E94190B8CE590E06EE03E
:1018C0004FEA0E94190B8EE590E06FE04FEB0E940B
:1018D000190B80E890E068E00E94370B81E890E007
:1018E00064E00E94370B82E890E069E00E94370BC9
:1018F00083E890E067E00E94370B84E890E060E0C6
:101900000E94370B85E890E06AE00E94370B8CE874
:1019100090E061E00E94370B88E990E06FE00E9460
:10192000370B88EE93E064E10E94370B8EEE93E074
:1019300065E10E94370B0895BC0184E397E00E94A3
:101940008E1908950E94481F9B01AC0170930107F6
:10195000609300078091020790910307B901681B0B
:10196000790B663071055CF1309303072093020711
:10197000209104078091050790910607222311F01A
:10198000019601C001979093060780930507609127
:101990000507709106076F3F71052CF0213059F44F
:1019A0001092040708C0653171052CF4222319F444
:1019B00081E0809304078091FA040E941620089524
:1019C00080910707E0919E02F0E054E0EE0FFF1FC8
:1019D0005A95E1F7E80FF11DE853FC4F8091F804A8
:1019E00060810E94B52080910707E0919E02F0E09F
:1019F00044E0EE0FFF1F4A95E1F7E80FF11DE85BA9
:101A0000FB4F8091F90460810E94B5200895809178
:101A1000FB0460E00E94B5200895609107076830DC
:101A200018F48091080703C06850809109070E944C
:101A30005004882321F08091FB0461E003C0809171
:101A4000FB0460E00E94B5200895EF92FF920F938F
:101A50001F930E94481F0E94A3247B018C01609168
:101A6000C7057091C8058091C9059091CA0520E00D
:101A700030E84BE355E40E94A2239B01AC01C8016E
:101A8000B7010E9406248823BCF48091BC058823FA
:101A900049F010929E0280913405882319F081E06C
:101AA00080939E028091F504882319F00E940D0D09
:101AB00006C00E94070D03C081E08093AB021F9116
:101AC0000F91FF90EF900895CF93DF93809195024F
:101AD000882331F088E495E067E971E00E948E2365
:101AE000CFE9D2E0888160E00E94B520229682E0B2
:101AF000CB3AD807B9F7DF91CF910895CF93DF9311
:101B000080919502882331F088E495E06EE971E0D8
:101B10000E948E23CFE9D2E0888161E00E94B52047
:101B2000229682E0CB3AD807B9F7DF91CF9108959A
:101B30000F931F93CF93DF939091C105923009F0DB
:101B400061C02091C2053091C3052115310531F4E2
:101B50001092F40481E0809347051CC021303105C8
:101B600031F481E08093F404909347051CC0223047
:101B7000310531F49093F40483E0809347051DC050
:101B80002330310539F483E08093F40484E08093BA
:101B900047051DC02430310531F485E08093F404FD
:101BA0008093470519C02530310539F484E08093CE
:101BB000F40486E08093470514C02630310539F4DB
:101BC00086E08093F40481E08093470512C02730BB
:101BD000310511F487E061C02830310511F488E047
:101BE00064C02930310529F489E08093F40484E04D
:101BF0005FC02A30310509F05DC08AE08093F404AB
:101C000085E056C0913009F055C02091C205309151
:101C1000C3052230310529F41092F404909347054E
:101C20001EC02115310539F48BE08093F40482E065
:101C3000809347051EC02C30310539F484E0809331
:101C4000F40483E0809347051CC02B30310539F440
:101C500086E08093F40484E0809347051AC0253021
:101C6000310539F48CE08093F40485E080934705D6
:101C700018C02630310529F48DE08093F40486E005
:101C800017C02F30310529F485E08093F40481E0FA
:101C90000FC02A30310529F483E08093F40482E0F8
:101CA00007C02130310531F487E08093F40483E0EC
:101CB00080934705809195028823B9F06091F404E0
:101CC00070E0605C7F4F8CE895E04AE050E00E9455
:101CD00085220BC0992341F08CE895E06091F404D3
:101CE0004AE050E00E9414220E5F1091F404C02FCD
:101CF000D0E0CE01805C9F4F0E949C0C9091950299
:101D0000181741F7992339F08CE895E0602F4AE0E5
:101D100050E00E941422CE010E949C0C8093080780
:101D2000CE0101960E949C0C809309078091950238
:101D3000882341F08CE895E06091080742E050E08C
:101D40000E94142280919502882341F08CE895E04E
:101D50006091090742E050E00E941422DF91CF9188
:101D60001F910F9108952F923F924F925F926F9221
:101D70007F928F929F92AF92BF92CF92DF92EF921B
:101D8000FF920F931F93DF93CF93CDB7DEB7CC575E
:101D9000D0400FB6F894DEBF0FBECDBFFFC388E4BE
:101DA00095E00E94A117182F8091BC05882399F413
:101DB0000E94481F60527E448040904060F41A3078
:101DC00011F01D3031F48091BD058F5F8093BD050A
:101DD00002C01092BD0580E0612FAE01435F5F4FEE
:101DE0009E012F5F3F4F0E943308882309F4D2C31E
:101DF00081E08093BC0580919E02863011F41092A0
:101E00009E028C898D3109F450C38E3148F48130A3
:101E100009F41BC18130A0F0883109F0BBC396C121
:101E20008A3409F4FEC28B3420F48E3109F0B2C337
:101E300045C3853A09F46DC38D3F09F0ABC39FC319
:101E400080919502882331F08CE895E064EA71E096
:101E50000E948E2321E02093BE058A898093BF05CE
:101E60008B898093C005898D8093C1052D893E891A
:101E70003093C3052093C2058091C4059091C50598
:101E80002817390731F03093C5052093C4050E9407
:101E9000980D1092C6058B8D87FFB9C38091F6040B
:101EA000882379F40E94980D81E08093F604809154
:101EB0004605816080934605809145058E7F80931D
:101EC000450521E02093F5040E94481F0E94A324A9
:101ED0006093C7057093C8058093C9059093CA05A0
:101EE00080919502823009F055C38CE895E065EB4E
:101EF00071E00E94A42280919502882341F08CE831
:101F000095E06AE070E04AE050E00E947222809121
:101F10009502882331F08CE895E06BEB71E00E942C
:101F2000A42280919502882351F06091C20570919E
:101F3000C3058CE895E04AE050E00E94F1218091D1
:101F40009502882331F08CE895E065EC71E00E9401
:101F5000A42280919502882341F08CE895E060915D
:101F6000F5044AE050E00E94022280919502882305
:101F700031F08CE895E06FEC71E00E94A422809132
:101F80009502882341F08CE895E06091CB054AE00A
:101F900050E00E94022280919502882331F08CE863
:101FA00095E067ED71E00E94A4228091950288235C
:101FB00041F08CE895E06091CC054AE050E00E9449
:101FC000022280919502882331F08CE895E060EE42
:101FD00071E00E94A42280919502882371F04091C3
:101FE00035055091360560913705709138058CE8BC
:101FF00095E022E030E00E948B23809195028823B7
:1020000031F08CE895E06CEE71E00E94A4228091A2
:102010009502882371F04091AC055091AD05609117
:10202000AE057091AF058CE895E022E030E00E94AB
:102030008B2380919502882309F4ACC28CE895E04B
:102040006BE171E00E948E23A5C26BA17CA180E0B0
:1020500090E00E94A32420E030E04AE754E40E948C
:102060000A246093AC057093AD058093AE05909300
:10207000AF058BA9C82EDD24C7FCD094D092CE0525
:10208000C092CD050E94FB041091450510FD59C07A
:102090006091AC057091AD058091AE059091AF0552
:1020A00020E030E040E151E40E94552518160CF084
:1020B00048C0136010934505E090AC05F090AD0565
:1020C0000091AE051091AF05E0924005F0924105F8
:1020D0000093420510934305C801B70120E030E0AA
:1020E00040E951E40E945525181614F486E017C003
:1020F000C801B70120E030E040E751E40E945525D7
:10210000181614F425E019C0C801B70120E030E02A
:1021100040E451E40E945525181624F484E080938D
:10212000CF050DC0C801B70120E030E040E151E427
:102130000E94552518161CF423E02093CF05109219
:102140003B05D092CE05C092CD0524C26D8D7E8D0B
:102150008F8D98A10E94A52420E836E948E15BE430
:102160000E940A247B018C016093D0057093D105F5
:102170008093D2059093D30589A59AA564E670E073
:102180000E94EB257093D5056093D405C801B70173
:1021900020E030E040E050E00E94062488237CF4F8
:1021A00083E58093F004D801C701BF778093D00501
:1021B0009093D105A093D205B093D30503C02EE42C
:1021C0002093F004E090D005F090D1050091D20565
:1021D0001091D305C801B7010E947224882777FDAA
:1021E0008095982F0E94A5241B012C01C801B701DE
:1021F000A20191010E94A12320E030E040E752E4D7
:102200000E9459257B018C010E947224882777FD4A
:102210008095982F0E94A5243B014C01C801B7016D
:10222000A40193010E94A12320E030E040E752E4A2
:102230000E9459255B016C01C201B10120E030E030
:1022400048EC52E40E945925A40193010E94A22364
:102250007B018C01C601B50120E030E048EC52E47E
:102260000E940A249B01AC01C801B7010E94A2236D
:102270006093D0057093D1058093D2059093D305D8
:1022800069A17AA18BA19CA10E94A52420E836E92E
:1022900048E15BE40E940A247B018C016093EA051B
:1022A0007093EB058093EC059093ED0520E030E012
:1022B00040E050E00E94062488237CF487E5809368
:1022C000F104D801C701BF778093EA059093EB052D
:1022D000A093EC05B093ED0503C025E42093F10431
:1022E000E090EA05F090EB050091EC051091ED050A
:1022F000C801B7010E947224882777FD8095982F26
:102300000E94A5243B014C016093D6057093D7052C
:102310008093D8059093D905C801B701A401930112
:102320000E94A1236093DA057093DB058093DC059E
:102330009093DD0520E030E040E752E40E9459250B
:102340005B016C010E947224882777FD8095982F8D
:102350000E94A5247B018C016093DE057093DF054C
:102360008093E0059093E105C601B501A8019701AE
:102370000E94A1236093E2057093E3058093E40536
:102380009093E50520E030E040E752E40E945925B3
:102390005B016C016093E6057093E7058093E805A7
:1023A0009093E905C401B30120E030E048EC52E429
:1023B0000E945925A80197010E94A2237B018C014C
:1023C000C601B50120E030E048EC52E40E940A2446
:1023D0009B01AC01C801B7010E94A2236093EA05EA
:1023E0007093EB058093EC059093ED056DA17EA1B4
:1023F0008FA198A50E94A52420E030E04AE754E48C
:102400000E940A246093EE057093EF058093F00517
:102410009093F10589A98093CB058AA98093CC0577
:10242000B9C0898D9A8DAB8DBC8D8093F205909348
:10243000F305A093F405B093F5056DA17EA188275F
:1024400077FD8095982F0E94A5246093F6057093E0
:10245000F7058093F8059093F9058FA198A59093BF
:10246000FB058093FA0585569040C19730F484E6C9
:1024700090E09093FB058093FA058091FA05909186
:10248000FB058739910520F01092FB051092FA05A3
:102490008D8D9E8DAF8DB8A18093FC059093FD0529
:1024A000A093FE05B093FF0575C089A19AA164E6CB
:1024B00070E00E94FF25609300066CC06D8D7E8DDC
:1024C0008F8D98A121EE3EE245E652E40E94592507
:1024D0000E94722460930106698D7A8D8B8D9C8D8C
:1024E00021EE3EE245E652E40E9459250E94722404
:1024F0006093020669A17AA18BA19CA121EE3EE224
:1025000045E652E40E9459250E9472246093030616
:1025100041C06D897E8980E090E00E94A32420E084
:1025200030E04AE754E40E940A247B018C01609366
:1025300035057093360580933705909338058F895C
:102540008093390510923A05C801B70120E030E0C8
:1025500040E050E00E940624882371F0C801B701D2
:1025600020E030E040E850E40E940624882324F470
:1025700081E0809334050EC0109234050BC0809129
:102580009502882339F08CE895E06D894AE050E0A7
:102590000E9414228AE890E00E94AF1F88E495E030
:1025A0000E947117181619060CF4F9CB80910406D5
:1025B000909105062B853C85820F931F909305060D
:1025C000809304062B818091060690910706820F66
:1025D000911D9093070680930606C458DF4F0FB6EF
:1025E000F894DEBF0FBECDBFCF91DF911F910F9149
:1025F000FF90EF90DF90CF90BF90AF909F908F9023
:102600007F906F905F904F903F902F900895109221
:10261000F5041092F60458CCEF92FF920F931F939B
:10262000CF93DF93CFE9D2E07C010027F7FC009540
:10263000102F888161E00E94B520C801B7010E9477
:10264000561F888160E00E94B520C801B7010E9432
:10265000561F229682E0CB3AD80759F7DF91CF91E7
:102660001F910F91FF90EF900895CF92DF92FF920C
:102670000F931F93CF93DF93182F80E795E06EE5BC
:102680000E94681CFF24C12EDD2449C08E01025027
:102690001B4F80E795E0F80160810E94681CF801FB
:1026A00061816D3559F06E3591F480E795E06DE507
:1026B0000E94681C80E795E06EE30BC080E795E020
:1026C0006DE50E94681C80E795E06DE302C080E73D
:1026D00095E00E94681CC250DB4F6A816D3559F04D
:1026E0006E3591F480E795E06DE50E94681C80E707
:1026F00095E06EE30BC080E795E06DE50E94681CF5
:1027000080E795E06DE302C080E795E00E94681CD9
:1027100080E795E06EE50E94681CF3E0FF0ECF2D88
:10272000D0E0CC15DD050CF4B1CF80E0DF91CF9186
:102730001F910F91FF90DF90CF900895EF92FF923D
:102740000F931F930E94481F9B01AC012093120717
:102750003093130740931407509315078091160781
:1027600090911707A0911807B091190779018A0174
:10277000E81AF90A0A0B1B0BD801C701893C91051D
:10278000A105B1050CF4F9C0209316073093170783
:10279000409318075093190701E000932F051091FB
:1027A000300584E20E94F501180F1093300585E290
:1027B0000E94F501180F1093300586E20E94F50182
:1027C000180F1093300580E10E94F501180F109347
:1027D000300581E20E94F501180F1093300582E068
:1027E0000E94F501180F1093300585E00E94F50155
:1027F000180F1093300586E00E94F501180F109312
:10280000300588E20E94F501180F109330058AE325
:102810000E94F501180F109330058BE30E94F5011B
:10282000180F1093300583E00E94F501180F1093E4
:10283000300510922F05812F0E94351380933005AB
:1028400080912E0565E00E94DF25992309F066C07E
:10285000809133058F5F809333050E942D04009390
:102860002F051091300584E10E94F501180F109397
:1028700030058CE10E94F501180F1093300583E1BB
:102880000E94F501180F109330058BE10E94F501AD
:10289000180F1093300583E20E94F501180F109372
:1028A000300582E10E94F501180F109330058AE18E
:1028B0000E94F501180F1093300582E20E94F50185
:1028C000180F1093300581E10E94F501180F109345
:1028D000300589E10E94F501180F1093300581E061
:1028E0000E94F501180F1093300589E00E94F50150
:1028F000180F1093300584E00E94F501180F109313
:10290000300588E10E94F501180F109330051092F0
:102910002F05812F0E9435138093300580912E055D
:10292000893130F181E080932F051091300585E1E8
:102930000E94F501180F1093300586E10E94F50101
:10294000180F1093300587E10E94F501180F1093BE
:10295000300588E10E94F501180F109330051092A0
:102960002F05812F0E9435138093300510922E057C
:1029700080912E058F5F80932E051F910F91FF9000
:10298000EF900895EF92FF920F931F930E94A80576
:102990008091F704882309F4BFC00E94481F9B015F
:1029A000AC0120931A0730931B0740931C075093E8
:1029B0001D0780911E0790911F07A0912007B091DD
:1029C000210779018A01E81AF90A0A0B1B0BD801C1
:1029D000C701C397A105B105BCF020931E07309332
:1029E0001F074093200750932107809107078F5FAF
:1029F00080930707803141F4109207078091950278
:102A0000843011F40E94DA060E94E00C80910707DE
:102A1000E0914705F0E064E0EE0FFF1F6A95E1F7F3
:102A2000E80FF11DE853FC4F8091FC0460810E9487
:102A3000B52080912207813041F50E94DA0562E3DA
:102A400070E080E090E00E94561F0E94DA0562E389
:102A500070E080E090E00E94561F0E94DA0562E379
:102A600070E080E090E00E94561F109222071092C2
:102A7000AB020E94481F0E94A3246093C705709375
:102A8000C8058093C9059093CA058091BC05882329
:102A900081F480919502882331F08CE895E068EF0D
:102AA00071E00E948E2381E08093220786E080936C
:102AB0009E020E94B30E85E695E00E94EF190E94E7
:102AC000A20C0E949E138091460580FD0CC080E000
:102AD00090E0A0E0B0E08093FC059093FD05A0930A
:102AE000FE05B093FF050E9473046091450561FFE8
:102AF00013C0862F8D7F8093450567956627679560
:102B00006093440586E990E00E94370B87E990E0E6
:102B10006091CF050E94370B1F910F91FF90EF90AE
:102B200008950F931F93CF93DF9384E080939502D2
:102B300088E495E040E051EE60E070E00E940F17FD
:102B40008CE895E040E056E960E070E00E94321BBE
:102B500080919502882331F08CE895E060E172E085
:102B60000E948E2380919502882331F08CE895E0B5
:102B700060E272E00E948E2384E10E94F41F8F5F66
:102B8000934051F480919502882331F08CE895E0D0
:102B900061E472E00E948E2384E10E94F41F8F5F43
:102BA000934021F58BE08093940287E090E090932E
:102BB000A00280939F0288E090E09093A20280930D
:102BC000A10289E090E09093A4028093A3028AE09E
:102BD00090E09093A6028093A50283E090E090930A
:102BE000A8028093A70284E090E023C08AE080934B
:102BF000940288E090E09093A00280939F0289E085
:102C000090E09093A2028093A1028AE090E09093DA
:102C1000A4028093A30284E090E09093A6028093A4
:102C2000A50283E090E09093A8028093A70282E03F
:102C300090E09093AA028093A90280E795E040E893
:102C400055E260E070E00E94321B88EE93E00E9443
:102C50009C0C082F8EEE93E00E949C0C10E0080F55
:102C6000111D09321105B1F080919502882331F0D0
:102C70008CE895E066E572E00E94A4220E943F0B7A
:102C800080919502882331F08CE895E068E672E047
:102C90000E948E2380E890E00E949C0C8093F804B0
:102CA00081E890E00E949C0C8093F90482E890E017
:102CB0000E949C0C8093FA0483E890E00E949C0C94
:102CC0008093FB0485E890E00E949C0C8093FC04B8
:102CD00088E990E00E949C0C8093FD0488E495E0D4
:102CE0009093A9058093A805CFE9D2E0888161E09F
:102CF0000E947620229682E0CB3AD807B9F7C0E04E
:102D0000D0E089E190E00E940C132196C630D105F5
:102D1000C1F7C0E0D0E00E947E0D64E670E080E084
:102D200090E00E94561F0E94640D64E670E080E00F
:102D300090E00E94561F2196C330D10561F70E9492
:102D4000E00C88E495E06FE672E00E94A4220E9405
:102D50002E1ABC0188E495E04AE050E00E948522EA
:102D600080919502882349F00E942E1ABC018CE8BC
:102D700095E04AE050E00E94852285E695E065E214
:102D80007DE022E330E040E050E000E00E94A11945
:102D900085E695E00E94071A81E0809322078093E0
:102DA000F70480919502882331F08CE895E069E77B
:102DB00072E00E948E23809145051092CF058C7F92
:102DC0008093450586E990E00E949C0C8093440521
:102DD0009091450587FF0AC091609093450587E96A
:102DE00090E00E949C0C8093CF0503C09E7F90933F
:102DF0004505809146058E7F8093460580E090E0F2
:102E0000A0E0B0E08093FC059093FD05A093FE0543
:102E1000B093FF05DF91CF911F910F9108950F930C
:102E20001F93DC01ED91FC910288F389E02D20E0F5
:102E300030E000E010E009951F910F9108958F9206
:102E4000AF92CF92EF92FF920F931F93DF93CF93A6
:102E5000CDB7DEB7FC011382128288EE93E0A0E0CA
:102E6000B0E084839583A683B7838CEC94E0918350
:102E700080835587448737872687118B008BF38A99
:102E8000E28AC48AA58A868A70E0CB0123E0880F93
:102E9000991F2A95E1F79C012D5D384F308F278BC4
:102EA000855D984F928F818F81E090E002C0880FFE
:102EB000991F6A95E2F720913307282B2093330757
:102EC000CF0140E051EE60E070E00E940F17CF911B
:102ED000DF911F910F91FF90EF90CF90AF908F9067
:102EE0000895FC01838D882319F42FEF3FEF0DC067
:102EF0000788F08DE02D2081318182819381281B0C
:102F0000390B8481958128233923C9010895FC0157
:102F1000838D882319F42FEF3FEF11C0018CF28DC0
:102F2000E02D2081318182819381281B390B2095EE
:102F3000309584819581282339232F5F3F4FC90124
:102F40000895FC01838D882361F0A789B08D2D91B0
:102F50003C91119712968D919C91139728173907E0
:102F600021F44FEF5FEFCA01089512968D919C9165
:102F700013971696ED91FC911797E80FF91F408172
:102F800012968D919C911397019614962D913C91D8
:102F900015978223932313969C938E93129750E058
:102FA000E2CFFC01838D882351F00788F08DE02D5E
:102FB00020813181828193812817390721F42FEFF5
:102FC0003FEFC9010895828193810680F781E02D4A
:102FD000E80FF91F8081282F30E0F3CFDC015796EE
:102FE000ED91FC91589782819381918380835996CA
:102FF000ED91FC915A97808191819383828308950A
:10300000DC015B968C915B978823A9F15996ED9131
:10301000FC915A97208131812F5F3F4F84819581A8
:10302000282339235C968C915C97882329F0828130
:10303000938128173907F9F082819381281739077E
:10304000D9F3808191810680F781E02DE80FF91F87
:1030500060835996ED91FC915A9731832083529663
:10306000ED91FC915397808156969C91892B80839A
:1030700021E030E002C020E030E0C9010895CF93A4
:10308000DF93EC011B821A828A819B81998388835A
:103090001D821C828E819F81009721F00E94681EF4
:1030A0001F821E82DF91CF9108950F931F938C0191
:1030B000DC015296ED91FC915397208156968C91AC
:1030C000569755969C915597892B8095822380839E
:1030D00057968D919C9158970E943F18F801818DC9
:1030E000928D0E943F18D8015B961C921F910F9100
:1030F00008950F931F93CF93DF938C01FC011382EC
:103100001282828193819183808341E0A1E0B0E0CB
:1031100001C04F5FFD01042E02C0EE0FFF1F0A9495
:10312000E2F79B0182E06130780710F020E032E0A6
:10313000E217F30770F3C1E0D0E002C0CC0FDD1F4F
:103140004A95E2F72197F80126813781211531054B
:1031500041F0848195818C179D0789F0C9010E94F7
:10316000681EF801D583C483CE0101960E94CB1D51
:103170009C01F8019783868380E0232B09F081E08E
:10318000DF91CF911F910F910895AF92BF92CF928F
:10319000DF92EF92FF920F931F93CF93DF937C0107
:1031A0005A016B01E901DC015B968C915B978823E6
:1031B000F1F02115310539F45796ED91FC915897AE
:1031C000C481D58121960115110549F4D70159967D
:1031D000ED91FC915A97048115810F5F1F4FD70124
:1031E000ED91FC910088F189E02DC7010995F70167
:1031F0008789908D209711F4C0E8D0E0BE010E942D
:103200007918882381F0D70159968D919C915A970E
:103210000115110511F400E110E0B8010E947918C0
:10322000882309F04DC0D701ED91FC910088F18908
:10323000E02DC701099567C0D7015096ED91FC912B
:103240005197B0E0AB16B1EEBB06B0E0CB06B0E0F4
:10325000DB0609F454C081E090E0D70154960C904D
:1032600002C0880F991F0A94E2F7808360E079E03A
:103270008DE390E0A60195010E9434262150304054
:1032800040405040CA01B90122E030E040E050E047
:103290000E943426D7011C96ED91FC911D97308336
:1032A0001E96ED91FC911F972083D7015296ED91C8
:1032B000FC915397808155969C91892B808323C0E4
:1032C000D7015996ED91FC915A971382128282810F
:1032D0009381918380835796ED91FC915897138247
:1032E0001282828193819183808381E05B968C93AB
:1032F0001A141B041C041D040CF49ECFD6CF10829C
:1033000020E130E0C7CFDF91CF911F910F91FF9067
:10331000EF90DF90CF90BF90AF900895F999FECFD6
:1033200072BD61BDF89A80B50895F999FECF1FBAB4
:1033300072BD61BD40BD0FB6F894FA9AF99A0FBEFE
:1033400008950F93FC016115710511F480E011C01F
:103350002183328343835483728761870170000F16
:10336000000F000F8081877F802B82608B7F80839E
:1033700081E00F910895CF93DF93EC010E94481FE5
:103380009B01AC018D819E81AF81B88528173907DB
:103390004A075B0728F4888184FD02C060E00DC005
:1033A00089819A81AB81BC81820F931FA41FB51FB5
:1033B0008D839E83AF83B88761E0222757FD2395D5
:1033C000332744275527922F91709295907F8881BB
:1033D0008F7E892B8883862FDF91CF910895CF939D
:1033E000DF93EC01888182FF0FC0CE010E94BB19E0
:1033F000882351F0E985FA85309709F0099588818D
:1034000083FF02C08B7F8883DF91CF910895CF9394
:10341000DF93EC0189859A85892BE1F089819A8176
:10342000AB81BC810097A105B105A1F00E94481FA6
:1034300029813A814B815C81260F371F481F591F14
:103440002D833E834F835887888184608F7E888355
:1034500081E001C080E0DF91CF910895DF93CF93A9
:1034600000D0CDB7DEB72091820730918307CE011F
:1034700001962115310519F48658974002C0821B28
:10348000930B9A83898389819A810F900F90CF91B2
:10349000DF9108950F931F93CF93DF93FC01738DFA
:1034A00076957170A685B7859585772329F08C91DF
:1034B000892309F454C004C08C91892309F04FC0BA
:1034C0008389948920E001972FEF8F3F9207D9F7E6
:1034D000C589D689A685B785158560E031E040E0CD
:1034E00050E000E0CE01202F01972FEF8F3F920791
:1034F000D9F78C91812311F0632B03C0832F809522
:103500006823330F4F5F5F4F4830510559F7878964
:10351000908D20E001972FEF8F3F9207D9F771111F
:103520006095809177072091780790E001968F73DE
:10353000907030E08217930779F0E0917707F0E020
:10354000E95CF84F60838091770790E001968F7374
:1035500090708093770703C0838D8160838FDF91A4
:10356000CF911F910F9108951F920F920FB60F9256
:1035700011242F933F934F935F936F937F938F9378
:103580009F93AF93BF93EF93FF93809135079091F3
:103590003607009711F00E944A1AFF91EF91BF91F0
:1035A000AF919F918F917F916F915F914F913F91DB
:1035B0002F910F900FBE0F901F9018951F920F9292
:1035C0000FB60F9211242F933F934F935F936F93F6
:1035D0007F938F939F93AF93BF93EF93FF938091CC
:1035E000350790913607009711F00E944A1AFF9113
:1035F000EF91BF91AF919F918F917F916F915F916B
:103600004F913F912F910F900FBE0F901F901895E3
:103610001F920F920FB60F9211242F933F934F9347
:103620005F936F937F938F939F93AF93BF93EF932A
:10363000FF938091350790913607009711F00E9413
:103640004A1AFF91EF91BF91AF919F918F917F9116
:103650006F915F914F913F912F910F900FBE0F90FF
:103660001F901895CF92DF92EF92FF920F931F93C6
:10367000CF93DF93EC017A018B011A8E198E188E8D
:103680001F8A1E8A1D8A1C8A1B8A20E030E069017D
:10369000CC0CDD1CC20ED31EB601660F771F660F61
:1036A000771FAB0142525F4FFA0185919591A59129
:1036B000B4918E159F05A007B107E9F4FB01EE5107
:1036C000FF4F859194919C8B8B8BFB01EC51FF4FAD
:1036D000859194919E8B8D8BFB01EA51FF4F8591D3
:1036E0009491988F8F8BFB01E851FF4F85919491B6
:1036F0009A8F898F06C02F5F3F4F2D30310509F01B
:10370000C6CF8F89988D892B09F449C04C854631E5
:1037100008F03DC090916800483010F484E005C086
:103720004E3010F082E001C081E0892B8093680068
:10373000483028F4EDE6F0E0ADE6B0E00BC04E30E6
:1037400028F0ECE6F0E0ACE6B0E004C0EBE6F0E038
:10375000ABE6B0E05081483040F481E090E002C038
:10376000880F991F4A95E2F710C0242F30E04E30A1
:1037700018F42850304002C02E50304081E090E0D4
:1037800002C0880F991F2A95E2F7852B8C93898DAB
:103790009A8D20E001972FEF8F3F9207D9F7809104
:1037A0003507909136078C179D0781F08B8D8E7FA2
:1037B0008B8F9FB7F894109277078091770780934B
:1037C0007807D0933607C09335079FBFDF91CF911D
:1037D0001F910F91FF90EF90DF90CF900895FC0123
:1037E0004485463180F5483028F4EDE6F0E0ADE65A
:1037F000B0E00BC04E3028F4EBE6F0E0ABE6B0E012
:1038000004C0ECE6F0E0ACE6B0E05081483040F4B3
:1038100081E090E002C0880F991F4A95E2F710C03E
:10382000242F30E04E3018F42850304002C02E5083
:10383000304081E090E002C0880F991F2A95E2F79E
:10384000809585238C930895FC0184EE94E0918308
:103850008083CF010E94EF1B08952091350730919E
:1038600036072817390731F4909178078091770748
:10387000981719F42FEF3FEF0FC0E0917807F0E0B1
:10388000E95CF84F20818091780790E001968F7372
:1038900090708093780730E0C90108952091350732
:1038A000309136072817390719F020E030E00EC0B4
:1038B000809177072091780790E0805C9F4F821B72
:1038C000910960E470E00E94FF259C01C901089500
:1038D0000F931F93DC0159968D919C915A97892BD8
:1038E00049F481E090E013969C938E93129720E028
:1038F00030E097C00FB7F8945B968C915B97519628
:10390000ED91FC91529750962C91509781FF8DC06C
:103910008081822B808359968D919C915A97059630
:1039200020E001972FEF8F3F9207D9F75B968C919C
:103930005B9781FF35C031E040E050E070E010E07F
:10394000832F90E0862397235196ED91FC91529717
:1039500050962C915097892B29F08081209528230F
:10396000208303C08081822B808359968D919C9106
:103970005A97212F01972FEF8F3F9207D9F7330FD7
:103980004F5F5F4F48305105D9F65196ED91FC914C
:103990005297908150968C9150978095892333C08F
:1039A00031E040E050E070E010E0832F90E08623AB
:1039B00097235196ED91FC91529750962C915097E8
:1039C000892B21F08081822B808304C08081209507
:1039D0002823208359968D919C915A97212F0197E6
:1039E0002FEF8F3F9207D9F7330F4F5F5F4F48306C
:1039F0005105D9F65196ED91FC91529780815096E0
:103A00009C915097892B80830FBF59968D919C91E3
:103A10005A9720E001972FEF8F3F9207D9F721E0C7
:103A200030E0C9011F910F910895808120952823CE
:103A3000208371CF20913507309136072817390739
:103A400049F49FB7F8941092770780917707809395
:103A500078079FBF089520913507309136072817C2
:103A6000390731F49091780780917707981719F406
:103A70002FEF3FEF0AC0E0917807F0E0E95CF84FE4
:103A80008081282F332727FD3095C90108951F9382
:103A9000CF93DF93EC01162F862F60E00E947620F3
:103AA0008B8D81FD04C0812F61E00E94B5201C87B1
:103AB000212F30E0C90184559E4FFC0184918D87F0
:103AC00028563E4FF9016491E62FF0E0EE0FFF1FFC
:103AD000E257FE4F859194919F878E87DF91CF911A
:103AE0001F910895FF920F931F938C01F62E862F3E
:103AF00061E00E9476208F2D61E00E94B5208F2D1D
:103B000090E0FC01E455FE4FE491D8015096EC930F
:103B1000509788569E4FFC016491E62FF0E0EE0F1F
:103B2000FF1FEC57FE4F8591949152969C938E9374
:103B300051971F910F91FF900895FF920F931F933C
:103B40008C01F62EFC011382128288EE93E0A0E035
:103B5000B0E084839583A683B78384EE94E0918359
:103B60008083148A138A168A158A108E178A128EF9
:103B7000118E838D2170220F8C7F822B838FC80141
:103B8000642F0E94721DC8016F2D0E94471D1F9156
:103B90000F91FF9008950F931F93CF93DF93BC0174
:103BA0008230910510F462E070E0E0918407F091BA
:103BB000850740E050E0A0E0B0E024C08081918122
:103BC00086179707D0F08617970771F48281938143
:103BD000109729F013969C938E9312972CC0909374
:103BE00085078093840727C04115510519F0841774
:103BF000950718F48D01AC01EF01DF0182819381FB
:103C00009C01F9013097D1F641155105F9F0CA012F
:103C1000861B970B8430910580F48A819B81011566
:103C2000110521F0F8019383828304C090938507E6
:103C300080938407FE01329645C0FE01E80FF91F0C
:103C4000619371930297998388833CC08091820726
:103C500090918307892B41F48091AE029091AF023D
:103C600090938307809382074091B0025091B102F4
:103C70004115510541F44DB75EB78091AC0290916A
:103C8000AD02481B590B20918207309183072417FE
:103C90003507B0F4CA01821B930B8617970780F093
:103CA000AB014E5F5F4F8417950750F0420F531FD3
:103CB0005093830740938207F9016193719302C087
:103CC000E0E0F0E0CF01DF91CF911F910F910895D7
:103CD000CF93DF939C01009709F48FC0EC012297EA
:103CE0001B821A82609184077091850761157105A6
:103CF00081F488819981820F931F209182073091EE
:103D000083072817390739F5D0938307C0938207B3
:103D100074C0DB0140E050E0AC17BD0708F1BB8385
:103D2000AA83FE0121913191E20FF31FAE17BF0765
:103D300079F48D919C911197280F391F2E5F3F4F79
:103D40003983288312968D919C9113979B838A8344
:103D50004115510571F4D0938507C09384074DC078
:103D600012968D919C911397AD01009711F0DC0193
:103D7000D3CFDA011396DC93CE931297FA012191F7
:103D80003191E20FF31FCE17DF0769F48881998123
:103D9000280F391F2E5F3F4FFA01318320838A811C
:103DA0009B8193838283E0E0F0E0DB0112968D91AA
:103DB0009C911397009719F0BC01FD01F6CFAB0160
:103DC0004E5F5F4FDB018D919C91840F951F209179
:103DD0008207309183072817390779F4309729F43F
:103DE000109285071092840702C0138212824250FB
:103DF00050405093830740938207DF91CF910895FD
:103E00001F920F920FB60F9211242F933F938F930F
:103E10009F93AF93BF9380917D0790917E07A09170
:103E20007F07B0918007309181070196A11DB11DD8
:103E3000232F2D5F2D3720F02D570196A11DB11D89
:103E40002093810780937D0790937E07A0937F073F
:103E5000B09380078091790790917A07A0917B07B2
:103E6000B0917C070196A11DB11D809379079093B5
:103E70007A07A0937B07B0937C07BF91AF919F9186
:103E80008F913F912F910F900FBE0F901F9018951B
:103E90008FB7F89420917D0730917E0740917F077E
:103EA000509180078FBFB901CA0108959B01AC01F1
:103EB0007FB7F8948091790790917A07A0917B075A
:103EC000B0917C0766B5A89B05C06F3F19F00196BD
:103ED000A11DB11D7FBFBA2FA92F982F8827860F4C
:103EE000911DA11DB11D62E0880F991FAA1FBB1F64
:103EF0006A95D1F7BC012DC0FFB7F894809179077E
:103F000090917A07A0917B07B0917C07E6B5A89BBA
:103F100005C0EF3F19F00196A11DB11DFFBFBA2FDB
:103F2000A92F982F88278E0F911DA11DB11DE2E0AA
:103F3000880F991FAA1FBB1FEA95D1F7861B970B05
:103F4000885E9340C8F22150304040405040685154
:103F50007C4F211531054105510571F608950197F2
:103F600039F0880F991F880F991F02970197F1F771
:103F70000895789484B5826084BD84B5816084BDE1
:103F800085B5826085BD85B5816085BDEEE6F0E0D2
:103F9000808181608083E1E8F0E01082808182602E
:103FA0008083808181608083E0E8F0E080818160AF
:103FB0008083E1EBF0E0808184608083E0EBF0E0DF
:103FC000808181608083EAE7F0E080818460808383
:103FD000808182608083808181608083808180682D
:103FE00080831092C1000895982F8E3008F09E5063
:103FF00097708091B2028295880F880F807C892B00
:1040000080937C0080917A00806480937A00809114
:104010007A0086FDFCCF2091780040917900942FA2
:1040200080E030E0282B392BC90108951F93CF93EE
:10403000DF93182FEB0161E00E947620209709F4AE
:104040004AC0CF3FD10509F449C0E12FF0E0E05468
:10405000FE4F84918330C1F0843028F4813051F0D8
:104060008230B1F50CC0863019F1873049F18430C7
:1040700079F514C084B5806884BDC7BD33C084B5EC
:10408000806284BDC8BD2EC080918000806880930E
:104090008000D0938900C093880024C08091800064
:1040A000806280938000D0938B00C0938A001AC0F6
:1040B0008091B00080688093B000C093B30012C0BC
:1040C0008091B00080628093B000C093B4000AC0B9
:1040D000C038D1051CF4812F60E002C0812F61E05F
:1040E0000E94B520DF91CF911F910895CF93DF9368
:1040F000482F50E0CA0184559E4FFC013491485628
:104100005E4FFA018491882369F190E0880F991F2E
:10411000FC01E658FE4FA591B491FC01EC57FE4F0F
:10412000C591D491662351F42FB7F8948C91932FB5
:10413000909589238C93888189230BC0623061F428
:104140002FB7F8948C91932F909589238C93888125
:10415000832B88832FBF06C09FB7F8948C91832B45
:104160008C939FBFDF91CF910895482F50E0CA01F3
:1041700080549E4FFC012491CA0184559E4FFC013E
:10418000949148565E4FFA013491332309F440C0AC
:10419000222351F1233071F0243028F42130A1F092
:1041A000223011F514C02630B1F02730C1F0243090
:1041B000D9F404C0809180008F7703C08091800083
:1041C0008F7D8093800010C084B58F7702C084B546
:1041D0008F7D84BD09C08091B0008F7703C080912E
:1041E000B0008F7D8093B000E32FF0E0EE0FFF1F53
:1041F000EC57FE4FA591B4912FB7F894662321F4A4
:104200008C919095892302C08C91892B8C932FBF20
:104210000895CF93DF930E94B91F0E949115C0E0CB
:10422000D0E00E94C2142097E1F30E940000F9CF71
:10423000CF92DF92EF92FF920F931F93CF93DF9372
:104240007C016B018A01C0E0D0E00FC0D6016D9106
:104250006D01D701ED91FC910190F081E02DC70136
:104260000995C80FD91F015010400115110571F7AC
:10427000CE01DF91CF911F910F91FF90EF90DF90D2
:10428000CF900895EF92FF920F931F938C01DC0162
:10429000ED91FC910190F081E02D6DE009957C019C
:1042A000D801ED91FC910190F081E02DC8016AE008
:1042B00009959C012E0D3F1DC9011F910F91FF9083
:1042C000EF900895CF93DF93EC016115710519F418
:1042D00020E030E00FC0DB010D900020E9F71197DE
:1042E000A61BB70BE881F9810280F381E02DAD01B7
:1042F00009959C01C901DF91CF9108954F925F927A
:104300007F928F929F92AF92BF92CF92DF92EF9265
:10431000FF920F931F93DF93CF93CDB7DEB7A19793
:104320000FB6F894DEBF0FBECDBF2C01742ECB01AB
:10433000223008F42AE019A231E2C32ED12CCC0E8F
:10434000DD1E822E9924AA24BB24672D752FA5017A
:1043500094010E94122679018A01C801B701A501C2
:1043600094010E94C025472D461B0894C108D1081E
:104370004A3014F4405D01C0495CF6014083E11409
:10438000F1040105110521F07E2C5F2DC801DDCF60
:10439000C201B6010E946221A1960FB6F894DEBF59
:1043A0000FBECDBFCF91DF911F910F91FF90EF9086
:1043B000DF90CF90BF90AF909F908F907F905F9055
:1043C0004F900895DC012115310541F4ED91FC91E8
:1043D0000190F081E02D642F099508950E947E21BF
:1043E0000895EF92FF920F931F939A017B0100E0D3
:1043F00010E0B801A7010E94E2211F910F91FF90E8
:10440000EF900895EF92FF920F931F939A01E62E7B
:10441000FF2400E010E0B801A7010E94E2211F91F3
:104420000F91FF90EF900895CF92DF92EF92FF925D
:104430000F931F936C01E62E9A01FF2400E010E019
:10444000B801A7010E94E2218C01C6010E9442210D
:10445000080F191FC8011F910F91FF90EF90DF9077
:10446000CF900895CF92DF92EF92FF920F931F9318
:10447000CF93DF93EC016A017B012115310541F4F3
:10448000E881F9810190F081E02D642F09951FC02A
:104490002A303105D1F477FF17C0E881F981019006
:1044A000F081E02D6DE209958C0144275527BA0172
:1044B0004C195D096E097F09CE012AE00E947E2118
:1044C0009801280F391F04C02AE00E947E219C0118
:1044D000C901DF91CF911F910F91FF90EF90DF9075
:1044E000CF900895EF92FF920F931F937B019A0153
:1044F0000027F7FC0095102FB801A7010E94322277
:104500001F910F91FF90EF900895CF92DF92EF925D
:10451000FF920F931F936C017B019A010027F7FC18
:104520000095102FB801A7010E9432228C01C6010C
:104530000E944221080F191FC8011F910F91FF907F
:10454000EF90DF90CF9008950E94622108957F92AE
:104550008F929F92AF92BF92CF92DF92EF92FF9293
:104560000F931F93CF93DF934C017A018B01722E2F
:10457000CB01BA01A80197010E94BC25882321F034
:10458000C40166E872E021C0C0E0D0E057016801D4
:10459000E894D7F8C601B5012FEF3FEF4FE75FE78B
:1045A0000E94BC25882351F4C601B5012FEF3FEFCF
:1045B0004FE75FE70E940624181614F0C1E0D0E030
:1045C000219739F0C4016AE872E00E946221EC018F
:1045D00093C0C801B7012FEF3FEF4FE75FE40E94A0
:1045E0005525181654F0C801B7012FEF3FEF4FE7DC
:1045F0005FEC0E940624882324F4C4016EE872E074
:10460000E4CFC801B70120E030E040E050E00E9474
:10461000062487FD03C0C0E0D0E00EC0D401ED91B8
:10462000FC910190F081E02DC4016DE20995EC014F
:1046300017FB109517F9109520E030E040E05FE39C
:10464000DD240BC0CA01B90120E030E040E251E4B2
:104650000E940A249B01AC01D394D71498F3C8019B
:10466000B7010E94A2235B016C010E9477247B01A9
:104670008C01C401B801A7012AE030E00E94E221C8
:10468000C80FD91F772039F0C40162E972E00E9497
:104690006221C80FD91FC801B7010E94A3249B0142
:1046A000AC01C601B5010E94A12324C020E030E086
:1046B00040E251E40E9459257B018C010E94722442
:1046C0005B016C01CC24B7FCC094DC2CC401B601A6
:1046D000A5012AE030E00E943222C80FD91FC6018E
:1046E000B5010E94A5249B01AC01C801B7010E943D
:1046F000A1237A947720D1F6CE01DF91CF911F913B
:104700000F91FF90EF90DF90CF90BF90AF909F9070
:104710008F907F9008950E94A7220895EF92FF92B4
:104720000F931F937C010E9462218C01C7010E949C
:104730004221080F191FC8011F910F91FF90EF90A0
:1047400008955058BB27AA270ED075C166D130F006
:104750006BD120F031F49F3F11F41EF45BC10EF4D5
:10476000E095E7FB51C1E92F77D180F3BA176207D3
:1047700073078407950718F071F49EF58FC10EF446
:10478000E0950B2EBA2FA02D0B01B90190010C0161
:10479000CA01A0011124FF27591B99F0593F50F479
:1047A000503E68F11A16F040A22F232F342F4427D1
:1047B000585FF3CF469537952795A795F0405395C9
:1047C000C9F77EF41F16BA0B620B730B840BBAF099
:1047D0009150A1F0FF0FBB1F661F771F881FC2F704
:1047E0000EC0BA0F621F731F841F48F48795779518
:1047F0006795B795F7959E3F08F0B3CF9395880FCF
:1048000008F09927EE0F979587950895D9D008F469
:1048100081E008950CD00FC107D140F0FED030F0F8
:1048200021F45F3F19F0F0C0511139C1F3C014D128
:1048300098F39923C9F35523B1F3951B550BBB2767
:10484000AA2762177307840738F09F5F5F4F220F14
:10485000331F441FAA1FA9F333D00E2E3AF0E0E80D
:1048600030D091505040E695001CCAF729D0FE2F59
:1048700027D0660F771F881FBB1F261737074807EB
:10488000AB07B0E809F0BB0B802DBF01FF279358A1
:104890005F4F2AF09E3F510568F0B6C000C15F3FF0
:1048A000ECF3983EDCF3869577956795B795F79589
:1048B0009F5FC9F7880F911D9695879597F9089581
:1048C000E1E0660F771F881FBB1F6217730784071D
:1048D000BA0720F0621B730B840BBA0BEE1F88F72C
:1048E000E095089504D06894B111D9C00895BCD062
:1048F00088F09F5790F0B92F9927B751A0F0D1F0C9
:10490000660F771F881F991F1AF0BA95C9F712C052
:10491000B13081F0C3D0B1E00895C0C0672F782FC7
:104920008827B85F39F0B93FCCF3869577956795BE
:10493000B395D9F73EF490958095709561957F4F2A
:104940008F4F9F4F0895E89409C097FB3EF49095D0
:104950008095709561957F4F8F4F9F4F9923A9F058
:10496000F92F96E9BB279395F695879577956795E7
:10497000B795F111F8CFFAF4BB0F11F460FF1BC02B
:104980006F5F7F4F8F4F9F4F16C0882311F096E9BE
:1049900011C0772321F09EE8872F762F05C066236C
:1049A00071F096E8862F70E060E02AF09A95660F25
:1049B000771F881FDAF7880F9695879597F90895DE
:1049C000990F0008550FAA0BE0E8FEEF1616170620
:1049D000E807F907C0F012161306E407F50798F088
:1049E000621B730B840B950B39F40A2661F0232BA1
:1049F000242B252B21F408950A2609F4A140A6951D
:104A00008FEF811D811D089597F99F6780E870E001
:104A100060E008959FEF80EC089500240A94161634
:104A2000170618060906089500240A94121613069C
:104A3000140605060895092E0394000C11F488232A
:104A400052F0BB0F40F4BF2B11F460FF04C06F5F46
:104A50007F4F8F4F9F4F089557FD9058440F551F1C
:104A600059F05F3F71F04795880F97FB991F61F0F0
:104A70009F3F79F087950895121613061406551F67
:104A8000F2CF4695F1DF08C0161617061806991FD3
:104A9000F1CF86957105610508940895E894BB27C8
:104AA00066277727CB0197F908958ADF08F48FEFFF
:104AB00008950BD0C0CFB1DF28F0B6DF18F09523F2
:104AC00009F0A2CFA7CF1124EACFC6DFA0F3959FAC
:104AD000D1F3950F50E0551F629FF001729FBB27E5
:104AE000F00DB11D639FAA27F00DB11DAA1F649F91
:104AF0006627B00DA11D661F829F2227B00DA11D44
:104B0000621F739FB00DA11D621F839FA00D611DC9
:104B1000221F749F3327A00D611D231F849F600DEA
:104B2000211D822F762F6A2F11249F5750408AF023
:104B3000E1F088234AF0EE0FFF1FBB1F661F771FAF
:104B4000881F91505040A9F79E3F510570F05CCFEF
:104B5000A6CF5F3FECF3983EDCF38695779567959B
:104B6000B795F795E7959F5FC1F7FE2B880F911DCD
:104B70009695879597F9089523DF880B990B0895EB
:104B8000629FD001739FF001829FE00DF11D649F31
:104B9000E00DF11D929FF00D839FF00D749FF00DBD
:104BA000659FF00D9927729FB00DE11DF91F639F5E
:104BB000B00DE11DF91FBD01CF0111240895991B0E
:104BC00079E004C0991F961708F0961B881F7A9504
:104BD000C9F780950895AA1BBB1B51E107C0AA1F06
:104BE000BB1FA617B70710F0A61BB70B881F991F8E
:104BF0005A95A9F780959095BC01CD01089597FB32
:104C0000092E07260AD077FD04D0E5DF06D0002064
:104C10001AF4709561957F4F0895F6F790958195F8
:104C20009F4F0895A1E21A2EAA1BBB1BFD010DC0C8
:104C3000AA1FBB1FEE1FFF1FA217B307E407F5074C
:104C400020F0A21BB30BE40BF50B661F771F881F28
:104C5000991F1A9469F760957095809590959B01BE
:104C6000AC01BD01CF01089597FB092E05260ED09A
:104C700057FD04D0D7DF0AD0001C38F4509540957A
:104C8000309521953F4F4F4F5F4F0895F6F7909520
:104C90008095709561957F4F8F4F9F4F0895EE0FD0
:104CA000FF1F0590F491E02D099411E0C6EDD1E0CD
:104CB00004C0FE010E9451262296C83DD107C9F7C3
:044CC000F894FFCF96
:104CC40052657175657374696E672072617465737A
:104CD400003000504C3A20002C2000200053617416
:104CE400733A00204669783A00204D6F6465733A40
:104CF400002041726D65643A00205468723A0020C5
:104D0400435055566F6C743A0020426174566F6C70
:104D1400743A0020416C743A00204864673A0020D9
:104D24005370643A00204C61743A00204C6F6E005A
:104D34002048646F7000454550524F4D20526573B2
:104D4400657420746F20666163746F727920736573
:104D54007474696E677300416C6C4F666600416CD5
:104D64006C4F6E004D4156696E6B204865617274DC
:104D740042656174004D41563A200020204D6F6415
:104D840065733A2000202041726D65643A2000204A
:104D9400204649583A20002020536174733A200079
:104DA4002020435055566F6C743A200020204261F5
:104DB40074566F6C743A2000456E61626C696E675C
:104DC40020726571756573747320616761696E0023
:104DD400446562756720706F7274204F70656E0051
:104DE4004E6F20696E7075742066726F6D207468E2
:104DF40069732073657269616C706F72742E202000
:104E04000052756E6E696E6720494F426F6172641D
:104E14002076312E310057726974696E67204545DA
:104E240050524F4D2E2E2E0020646F6E652E00467C
:104E34007265656D656D3A2000456E64206F66206D
:104E44007365747570006E616E00696E66006F76CE
:104E540066002E000A010C01000000000300060891
:104E64000009000A00040003000200018000860714
:104E7400000001327C8900EDD968770000005900F8
:104E840000000000000000D69FDCA81817AA904379
:104E94007327F6B968EDF4DED409FEE61C1C84DD44
:104EA400E80B992927D6DF8D210F036418EFEE1E36
:104EB400C8B7008200941500347C000000140098E8
:104EC4008F0000000000000000000000E7B73F363C
:104ED40000000000000000AF669ED0380000000013
:104EE40000000000000000000000000000000000BE
:104EF40000000000000000000000000000000000AE
:104F040000000000000000000086DBD0BC54161333
:104F14001586004E44BD7F2A1515000000000000D0
:104F2400000000000000000000000000000000007D
:104F3400000000000000000000000000000000006D
:104F4400000000000000000000000000000000005D
:104F5400000000000000000000000000000000004D
:104F6400000000000000000000000000CC31AA2C6A
:104F7400532E000200020005000200050002000298
:104F840000010203060A0B0C0101010101010101E8
:104F94000101010101010101000100010001000101
:104FA40000010001000100010100010001000100F5
:104FB40001000100010001000101000001010000E5
:104FC40001010000010100000101010101010101D1
:104FD40001010000010100000101010101010101C1
:104FE40001010101010101010000000000000000B5
:104FF40001010101010101010000000000000000A5
:105004000000000000000000010101010101010194
:105014000101010101010101010001000100010080
:105024000100010001000100010001000100010074
:105034000100010001000100010100000101000064
:105044000101000001010000010101010101010150
:105054000101000001010000010101010101010140
:10506400010101010101010101010101010101012C
:10507400000000000000000000000000000000002C
:1050840000000000000000000000000000181821CB
:105094007117A117D117EE1787170F175518C518D1
:1050A40000000000681C18214E1C2D1C2B1D1A1D0D
:00000001FF
