:100000000C94EC000C9414010C9414010C942B1916
:100010000C9455190C947F190C9414010C94140130
:100020000C9414010C9414010C9414010C941401FC
:100030000C9414010C9414010C9414010C941401EC
:100040000C94771D0C9414010C944C010C948801B1
:100050000C9414010C9414010C9414010C941401CC
:100060000C9414010C94140154108A109410D210A2
:10007000E110F3105210521065105210521052102D
:100080005210521052102F1147115F118B11C911CC
:10009000E511EC11F5110312581170119C11DE11CC
:1000A000521052105210521040118111BF110F12F4
:1000B0001F122F1252107B12521052105210521057
:1000C0005210521052105210521052105210521020
:1000D000521052105210521052103F12501200C2C1
:1000E00001000100110011000C0000E100000A00F5
:1000F0002500250021000096000019003900390074
:100100003600127A00001F0046004600440080704E
:10011000000022004D004D004A00004B0000360058
:10012000750075007200403800004A009C009C0079
:100130009900802500007200EC00EC00E900C0127C
:100140000000E900DA01DA01D70160090000D701F7
:10015000B603B603B303B0040000B3036E076E0723
:100160006B07580200006E07DC0EDC0ED80E2C0167
:100170000000DC0EC11DC11DBE1D000000002400DA
:1001800027002A0000000000250028002B000000A6
:1001900000002300260029000404040404040404CD
:1001A0000202020202020303030303030102040822
:1001B00010204080010204081020010204081020D1
:1001C0000000000700020100000304060000000018
:1001D00000000000E102DA0211241FBECFEFD8E0D8
:1001E000DEBFCDBF15E0A0E0B1E0E4E4FAE402C078
:1001F00005900D92A830B107D9F717E0A8E0B5E057
:1002000001C01D92A039B107E1F711E0C6EDD1E0C0
:1002100004C02297FE010E941125C43DD107C9F7F1
:100220000E94801F0C9415250C940000CF92DF9241
:10023000EF92FF920F931F93CF93DF938C016B018B
:100240007A01C0E0D0E01CC0F601EC0FFD1F608118
:100250000115110521F00130110589F405C0E09167
:10026000B305F091B40504C0E091B505F091B60571
:10027000A081B1812D913C91CF01F9010995219681
:10028000CE15DF0508F3DF91CF911F910F91FF90FD
:10029000EF90DF90CF9008951F920F920FB60F92BC
:1002A00011242F933F934F938F939F93EF93FF933B
:1002B0004091C60020912D0730912E072F5F3F4FB0
:1002C00080913107909132072823392380912F079D
:1002D000909130072817390779F080912D07909178
:1002E0002E07E0913307F0913407E80FF91F4083A0
:1002F00030932E0720932D07FF91EF919F918F91BF
:100300004F913F912F910F900FBE0F901F90189516
:100310001F920F920FB60F9211242F933F938F933A
:100320009F93EF93FF932091370730913807809187
:1003300035079091360728173907E9F0809137077C
:1003400090913807E0913B07F0913C07E80FF91FC7
:1003500080818093C600809137079091380701967D
:100360002091390730913A078223932390933807DD
:100370008093370710C02091350730913607809160
:100380003707909138072817390729F48091C10061
:100390008F7D8093C100FF91EF919F918F913F914D
:1003A0002F910F900FBE0F901F901895423049F477
:1003B00020E031E040E050E00E94E024C901DA0191
:1003C0000FC06F3F71058105910549F044F0413040
:1003D00031F4DC01CB019070A070B07001C003C09B
:1003E000BC012A2F9B2F822F089580914A058C33C0
:1003F00038F010924A05809149058F5F8093490536
:10040000809149058C3348F010924A0510924905B5
:10041000809148058F5F8093480580914805883119
:1004200030F010924A05109249051092480508953F
:100430006330B1F0643028F4613071F0623070F4F0
:1004400009C0653089F0653068F0663079F0673052
:1004500089F40EC08078089580740895807208959C
:100460008071089588700895847008958270089549
:10047000817008950895CF93DF93C091B402D09115
:10048000B502BE01882777FD8095982F0E946523CD
:100490009B01AC016091B7057091B8058091B905D9
:1004A0009091BA050E94CA2220E030E443E055E46E
:1004B0000E94192426E636E646E850E40E94CA2245
:1004C0000E94322388E0653378072CF4EBEBF5E0EB
:1004D00020E030E00DC0C630D105C4F72196D0939E
:1004E000B502C093B40207C0619371932F5F3F4F71
:1004F0002C173D07CCF3DF91CF9108958F92AF92E7
:10050000CF92EF92FF920F931F9381309105E9F5FF
:100510006F5F7F4F09F046C083E595E060E045ECF2
:1005200050E024EC30E000EC10E0F1ECEF2EF12C88
:10053000CC24C394E8E9AE2E70E2872E0E94961573
:100540001092710510927205109273051092740545
:100550001092750510927605109277051092780525
:1005600010927A0510927905109270058BE795E04C
:1005700066E045E021E00E94141C87E995E06CE00C
:100580004BE020E00E94141C0DC0892B59F46F5FD2
:100590007F4F41F487E995E00E949B1A8BE795E035
:1005A0000E949B1A1F910F91FF90EF90CF90AF90F8
:1005B0008F90089580E090E06FEF7FEF0E947E02C1
:1005C000089581E090E06FEF7FEF0E947E02089532
:1005D0002F923F924F925F926F927F928F929F9253
:1005E000AF92BF92CF92DF92EF92FF920F931F9341
:1005F000DF93CF93CDB7DEB72E970FB6F894DEBF5B
:100600000FBECDBF8091AD02882331F087E995E020
:1006100060E071E00E9405220DEC13E06FEBE62E26
:1006200063E0F62E53E0C52ED12CCC0EDD1E42E445
:10063000242E3AE0432E512C4C0E5D1E2FE0622EEC
:10064000712C6C0E7D1E99E0892E912C8C0E9D1EB6
:1006500084E9382E5E010894A11CB11C2091CA05C2
:100660003091CB05F8014081F701808191819C8315
:100670008B832D833E834F83F1E0F8878EEF89874C
:1006800096E09A879091F7069B878091AE028C87BF
:100690008091AF028D872E869F5F9093F7066FEF54
:1006A0007FEFF2011CC021912627822F8295807F47
:1006B000822790E0382F2227AC01A3E0440F551F7A
:1006C000AA95E1F724273527672F77276227732715
:1006D000A4E095958795AA95E1F768277927E6150F
:1006E000F70509F7F6011AC081918627282F229570
:1006F000207F282730E0722F6627C90143E0880F4A
:10070000991F4A95E1F7682779276A277B27B4E084
:1007100035952795BA95E1F762277327A72FBB2751
:10072000E815F90509F7862F8325282F2295207FC4
:10073000282730E0922F8827A90163E0440F551F36
:100740006A95E1F7842795278A279B27A4E03595AA
:100750002795AA95E1F78227932789839A8380E0DA
:1007600090E0BF0146E050E00E94160180E090E07A
:10077000B60146E050E00E94160180E090E0B5012D
:1007800042E050E00E9416010F5F1F4FE2E0F0E0F0
:10079000EE0EFF1EF3E0043D1F0709F05FCF2E961B
:1007A0000FB6F894DEBF0FBECDBFCF91DF911F9182
:1007B0000F91FF90EF90DF90CF90BF90AF909F9000
:1007C0008F907F906F905F904F903F902F90089503
:1007D0008091AD02882331F087E995E06DE171E009
:1007E0000E941B218091AD02882341F087E995E0AA
:1007F0006091D7054AE050E00E9479208091AD02D7
:10080000882331F087E995E063E271E00E941B21C3
:100810008091AD02882341F087E995E06091D6058B
:100820004AE050E00E9479208091AD02882331F0A7
:1008300087E995E069E271E00E941B218091AD0299
:10084000882351F06091CD057091CE0587E995E040
:100850004AE050E00E9468208091AD02882331F088
:1008600087E995E061E371E00E941B218091AD0270
:10087000882341F087E995E060910D054AE050E05A
:100880000E9479208091AD02882331F087E995E0BC
:1008900069E371E00E941B218091AD02882351F031
:1008A000609102067091030687E995E04AE050E006
:1008B0000E9468208091AD02882331F087E995E09D
:1008C0006FE371E00E941B218091AD02882371F0DB
:1008D00040914C0550914D0560914E0570914F052A
:1008E00087E995E022E030E00E9402228091AD028B
:1008F000882331F087E995E069E471E00E941B21CB
:100900008091AD02882371F04091B7055091B805F0
:100910006091B9057091BA0587E995E022E030E071
:100920000E9402228091AD02882331F087E995E090
:1009300063E571E00E941B218091AD02882371F074
:1009400040910406509105066091060670910706D5
:1009500087E995E022E030E00E9402228091AD021A
:10096000882331F087E995E069E571E00E941B2159
:100970008091AD02882371F04091FE055091FF05F2
:10098000609100067091010687E995E022E030E071
:100990000E9402228091AD02882331F087E995E020
:1009A0006FE571E00E941B218091AD02882371F0F8
:1009B0004091FA055091FB056091FC057091FD0591
:1009C00087E995E022E030E00E9402228091AD02AA
:1009D000882331F087E995E065E671E00E941B21EC
:1009E0008091AD02882371F04091DA055091DB05CA
:1009F0006091DC057091DD0587E995E022E030E04B
:100A00000E9402228091AD02882331F087E995E0AF
:100A10006BE671E00E941B218091AD02882371F08A
:100A20004091F2055091F3056091F4057091F50540
:100A300087E995E022E030E00E9402228091AD0239
:100A4000882331F087E995E06BE171E00E9405228F
:100A500008958F929F92AF92BF92CF92DF92FF92B2
:100A60000F931F93CF93DF93F62E4901C82EDD24F9
:100A70008601000F111F5801AC0CBD1CE501CC0F05
:100A8000DD1FCC0FDD1FC051D94F18828B819C8197
:100A90008430910509F48EC0853091055CF4823074
:100AA000910509F443C0833091050CF0BFC0992330
:100AB000C4F44FC28730910509F443C188309105D1
:100AC00044F48530910509F4DEC0069709F041C26F
:100AD00007C18830910509F47AC1099709F039C234
:100AE000E7C18EEF681709F034C282E090E09C8382
:100AF0008B8380E790E0C89ED001C99EB00DD89E40
:100B0000B00D1124A05FB94F13961C92139788E380
:100B100090E0C89EF001C99EF00DD89EF00D112402
:100B2000EE0FFF1FEE5EF94F6083A4C1E5E6E61706
:100B300088F489818F5F8983F501EE0FFF1FEE0F27
:100B4000FF1FEE50F94F80818F5F8083188281E014
:100B500090E02DC080E790E0C89EF001C99EF00DA6
:100B6000D89EF00D1124E05FF94F63831D828081D0
:100B70008627282F2295207F282730E0522F4427D0
:100B8000C90163E0880F991F6A95E1F74827592743
:100B9000818190E04827592784E0359527958A95EB
:100BA000E1F7422753275183408384E090E09C8300
:100BB0008B83CFC18CE190E0C89EF001C99EF00DFF
:100BC000D89EF00D1124EE0FFF1FEE0FFF1FEC5EFD
:100BD000F94F608380E790E0C89EF001C99EF00D58
:100BE000D89EF00D1124E05FF94F80818627282FD1
:100BF0002295207F282730E0522F4427C901B3E0F7
:100C0000880F991FBA95E1F748275927818190E00D
:100C100048275927A4E035952795AA95E1F742275B
:100C200053275183408383E090E0C1CF80E790E079
:100C3000C89EF001C99EF00DD89EF00D1124E05F12
:100C4000F94F658380818627282F2295207F2827CA
:100C500030E0522F4427C90163E0880F991F6A953D
:100C6000E1F748275927818190E04827592704E078
:100C7000359527950A95E1F74227532751834083FD
:100C800085E090E094CF80E790E0C89EF001C99E97
:100C9000F00DD89EF00D1124E05FF94F668380813E
:100CA0008627282F2295207F282730E0522F44279F
:100CB000C901B3E0880F991FBA95E1F74827592772
:100CC000818190E048275927A4E035952795AA957A
:100CD000E1F7422753275183408386E090E067CFB6
:100CE00080E790E0C89EF001C99EF00DD89EF00DFF
:100CF0001124E05FF94F678380818627282F229592
:100D0000207F282730E0522F4427C90163E0880F55
:100D1000991F6A95E1F748275927818190E0482774
:100D2000592794E0359527959A95E1F7422753275F
:100D3000518340838381882309F446C087E090E093
:100D400036CF6D81F80183E0EE0FFF1F8A95E1F742
:100D5000E01BF10B319603E0EE0FFF1F0A95E1F760
:100D6000E60FF11DE05FF94FF0826F5F6D8380E762
:100D700090E0C89EF001C99EF00DD89EF00D1124A0
:100D8000E05FF94F80818F25282F2295207F28272B
:100D900030E0522F4427C901B3E0880F991FBA955C
:100DA000E1F748275927818190E048275927A4E097
:100DB00035952795AA95E1F742275327518340831C
:100DC0008381681709F0C5C088E090E0F0CE80E725
:100DD00090E0C89ED001C99EB00DD89EB00D1124E0
:100DE000A05FB94F9C911796EC911797F0E0E154F2
:100DF000FD4F80818927482F4295407F482750E04A
:100E0000342F2227CA0173E0880F991F7A95E1F7E2
:100E10002827392711968C91119790E02827392798
:100E200064E0559547956A95E1F724273527119693
:100E30003C932E938F2D90E0307082179307F9F03A
:100E4000F501EE0FFF1FEE0FFF1FEE50F94F8081EF
:100E50008F5F8083188281E090E09C838B83FEEF1C
:100E6000FF1609F076C082E090E09C838B83139696
:100E70001C9213978FEF9FEF8D939C936AC089E02C
:100E800090E09C838B83F80183E0EE0FFF1F8A952F
:100E9000E1F7E01BF10B319613E0EE0FFF1F1A95FF
:100EA000E1F78D81E80FF11DE05FF94FF08251C04D
:100EB000262F30E080E790E0C89EB001C99E700DFB
:100EC000D89E700D1124605F794FFB01818190E005
:100ED00028173907E9F0F501EE0FFF1FEE0FFF1F8E
:100EE000EE50F94F80818F5F8083188281E090E01F
:100EF0009C838B83FEEFFF1661F582E090E09C837C
:100F00008B83EB011B828FEF9FEF9983888321C036
:100F100081E0888381E090E09C838B83F801A3E0EB
:100F2000EE0FFF1FAA95E1F7E01BF10B319633E0BE
:100F3000EE0FFF1F3A95E1F78D81E80FF11DEF5E8F
:100F4000F94FF082DA01FB0180E701900D928150A8
:100F5000E1F7D601AA0FBB1FAC0DBD1DAA0FBB1F29
:100F6000AA0FBB1FA051B94F8C91813069F58CE15C
:100F700090E0C89EF001C99EF00DD89EF00D11249E
:100F8000EE0FFF1FEE0FFF1FEC5EF94F80811696EC
:100F90008C93169718968D919C911997892B21F413
:100FA0001B961C921E921A97F601EE0FFF1FEC0D76
:100FB000FD1DEE0FFF1FEE0FFF1FE051F94F808563
:100FC0009185019691878087F601EE0FFF1FEC0D4A
:100FD000FD1DEE0FFF1FEE0FFF1FDF01A051B94FE8
:100FE00016968C9116978F5FE4018E8318968D91DB
:100FF0009C91199799878887EE50F94F80818A874D
:101000001B8610828C91DF91CF911F910F91FF90E1
:10101000DF90CF90BF90AF909F908F900895DF9218
:10102000EF92FF920F931F938C01262FD42E3EE355
:10103000E32E37E0F32EC701B801422F0E940C18AF
:101040000F5F1F4FC701B8014D2D0E940C181F9153
:101050000F91FF90EF90DF9008959C01462F8EE353
:1010600097E0B9010E940C1808958091AD02882381
:1010700031F087E995E060E771E00E94052280E0A9
:1010800090E060EC40E00E940F0882E090E060EFAA
:1010900040EF0E940F0884E090E068EF44E00E9477
:1010A0000F0886E090E06CEC4CEC0E940F0888E0A2
:1010B00090E068E848E80E940F088AE090E06AEA59
:1010C00040EA0E940F088CE090E06AEA4AEA0E9437
:1010D0000F088EE090E060EA40EA0E940F0880E18D
:1010E00090E060EC40EC0E940F0882E190E060E844
:1010F00040E80E940F0884E190E060E840E80E9428
:101100000F0886E190E060E840E80E940F0888E15F
:1011100090E060E840E80E940F088AE190E060E813
:1011200040E80E940F088CE190E060E840E80E94EF
:101130000F088EE190E060E840E80E940F0880E22E
:1011400090E060E040E00E940F0882E290E060E002
:1011500040E00E940F0884E290E060E040E00E94DE
:101160000F0886E290E060E040E00E940F0888E20D
:1011700090E060E040E00E940F088AE290E060E0CA
:1011800040E00E940F088CE290E060E040E00E94A6
:101190000F088EE290E060E040E00E940F0880E3DC
:1011A00090E060E040E00E940F0882E390E060E0A1
:1011B00040E00E940F0884E390E060E040E00E947D
:1011C0000F0886E390E060E040E00E940F0888E3AB
:1011D00090E060E040E00E940F088AE390E060E069
:1011E00040E00E940F088CE390E060E040E00E9445
:1011F0000F088EE390E060E040E00E940F0880E47A
:1012000090E060E041EA0E940F0882E490E061E033
:1012100042EA0E940F0884E490E062E043EA0E9400
:101220000F0886E490E063E044EA0E940F0888E437
:1012300090E064E045EA0E940F088AE490E065E0EF
:1012400046EA0E940F088CE490E066E047EA0E94BC
:101250000F088EE490E067E048EA0E940F0880E5FE
:1012600090E068E049EA0E940F0882E590E069E0BA
:101270004AEA0E940F0884E590E06AE04BEA0E9487
:101280000F0886E590E06BE04CEA0E940F0888E5C5
:1012900090E06CE04DEA0E940F088AE590E06DE076
:1012A0004EEA0E940F088CE590E06EE04FEA0E9443
:1012B0000F088EE590E06FE04FEB0E940F0880E88A
:1012C00090E068E00E942D0881E890E064E00E94D0
:1012D0002D0882E890E069E00E942D0883E890E004
:1012E0006AE00E942D0884E890E060E00E942D08EA
:1012F00085E890E06DE00E942D088CE890E061E0C8
:101300000E942D0888EE93E064E10E942D088EEE85
:1013100093E064E10E942D080895BC018EE397E0FC
:101320000E94051808950E94BF1D9B01AC01709397
:1013300009076093080780910A0790910B07B9018C
:10134000681B790B663071055CF130930B072093B5
:101350000A0720910C0780910D0790910E07222318
:1013600011F0019601C0019790930E0780930D072D
:1013700060910D0770910E076F3F71052CF02130C1
:1013800059F410920C0708C0653171052CF4222322
:1013900019F481E080930C07809112050E948D1E44
:1013A000089580910F07E091B602F0E054E0EE0F4F
:1013B000FF1F5A95E1F7E80FF11DE052FC4F8091B5
:1013C000100560810E942C1F80910F07E091B602EA
:1013D000F0E044E0EE0FFF1F4A95E1F7E80FF11D42
:1013E000E05AFB4F8091110560810E942C1F0895E7
:1013F0008091130560E00E942C1F089560910F07F3
:10140000683018F48091100703C06850809111076C
:101410000E941802882321F08091130561E003C027
:101420008091130560E00E942C1F0895EF92FF92B7
:101430000F931F930E94BF1D0E9463237B018C01A9
:101440006091D2057091D3058091D4059091D50516
:1014500020E030E84BE355E40E9462229B01AC019E
:10146000C801B7010E94C62288231CF58091C705D8
:10147000882399F01092B60280914B05882369F079
:1014800081E08093B6028091AD02882331F087E934
:1014900095E061E971E00E94052280910D058823A5
:1014A00019F00E94FE0902C00E94F8090E94D109A9
:1014B00006C081E08093B70286E08093B6021F9158
:1014C0000F91FF90EF900895EF92FF920F931F936B
:1014D0000E94BF1D9B01AC0120931207309313079C
:1014E00040931407509315078091160790911707A2
:1014F000A0911807B091190779018A01E81AF90A31
:101500000A0B1B0BD801C701895E9340A040B04075
:10151000C4F0209316073093170740931807509391
:10152000190780915205882321F481E080935205A8
:1015300002C01092520580911405609152050E94DC
:101540002C1F1F910F91FF90EF900895CF93DF9381
:101550008091AD02882331F083E595E064EA71E083
:101560000E940522C4EDD3E0888160E00E942C1F18
:10157000229683E0C03ED807B9F7DF91CF91089556
:10158000CF93DF938091AD02882331F083E595E01E
:101590006BEA71E00E940522C4EDD3E0888161E02E
:1015A0000E942C1F229683E0C03ED807B9F7DF9136
:1015B000CF9108950F931F93CF93DF938091CC0524
:1015C000823009F047C02091CD053091CE0521151C
:1015D000310519F410920C0514C02130310521F4A5
:1015E00081E080930C0514C02230310519F48093FA
:1015F0000C0515C02330310521F483E080930C05E0
:1016000015C02430310521F485E080930C0512C00B
:101610002530310521F484E080930C0510C026307C
:10162000310521F486E080930C050EC0273031058A
:1016300009F44AC02830310511F488E046C0293049
:10164000310511F489E041C02A30310509F03FC06D
:101650008AE03BC08130D9F52091CD053091CE058F
:101660002230310519F410920C0515C021153105F1
:1016700021F48BE080930C0515C02C30310521F44A
:1016800084E080930C0513C02B30310521F486E0F3
:1016900080930C0511C02530310521F48CE0809336
:1016A0000C050FC02630310511F48DE00EC02F302F
:1016B000310511F485E009C02A30310511F483E0C9
:1016C00004C02130310519F487E080930C05809126
:1016D000AD028823B9F060910C0570E0605C7F4F2B
:1016E00087E995E04AE050E00E94FC200BC0992376
:1016F00041F087E995E060910C054AE050E00E94D6
:101700008B200E5F10910C05C02FD0E0CE01805CC5
:101710009F4F0E948D099091AD02181741F79923B0
:1017200039F087E995E0602F4AE050E00E948B2075
:10173000CE010E948D0980931007CE0101960E9470
:101740008D09809311078091AD02882341F087E9CC
:1017500095E06091100742E050E00E948B2080915C
:10176000AD02882341F087E995E06091110742E0DE
:1017700050E00E948B20DF91CF911F910F9108952F
:101780002F923F924F925F926F927F928F929F9291
:10179000AF92BF92CF92DF92EF92FF920F931F937F
:1017A000DF93CF93CDB7DEB7CC57D0400FB6F894C8
:1017B000DEBF0FBECDBF8BC383E595E00E94181638
:1017C000182F8091C705882399F40E94BF1D60528D
:1017D0007E448040904060F41A3011F01D3031F4A6
:1017E0008091C8058F5F8093C80502C01092C8051C
:1017F00080E0612FAE01435F5F4F9E012F5F3F4F3F
:101800000E942905882309F45EC381E08093C705FF
:101810008091B602863011F41092B6028C898D3117
:1018200009F4DCC28E3148F4813009F411C18130F1
:10183000A0F0883109F047C32EC18A3409F48AC266
:101840008B3420F48E3109F03EC3D1C2853A09F4BD
:10185000F9C28D3F09F037C32BC38091AD028823B5
:1018600031F087E995E061EB71E00E94052221E00B
:101870002093C9058A898093CA058B898093CB05FB
:10188000898D8093CC052D893E893093CE05209398
:10189000CD058091CF059091D0052817390731F0FB
:1018A0003093D0052093CF050E94DA0A1092D1051B
:1018B0008B8D87FF45C380910E05882329F40E94F4
:1018C000DA0A81E080930E0521E020930D050E9445
:1018D000BF1D0E9463236093D2057093D30580934C
:1018E000D4059093D5058091AD02823009F0EBC20A
:1018F00087E995E062EC71E00E941B218091AD02C6
:10190000882341F087E995E06AE070E04AE050E022
:101910000E94E9208091AD02882331F087E995E0AB
:1019200068EC71E00E941B218091AD02882351F088
:101930006091CD057091CE0587E995E04AE050E0D1
:101940000E9468208091AD02882331F087E995E0FC
:1019500062ED71E00E941B218091AD02882341F06D
:1019600087E995E060910D054AE050E00E947920FA
:101970008091AD02882331F087E995E06CED71E04C
:101980000E941B218091AD02882341F087E995E0F8
:101990006091D6054AE050E00E9479208091AD0226
:1019A000882331F087E995E064EE71E00E941B2105
:1019B0008091AD02882341F087E995E06091D705D9
:1019C0004AE050E00E9479208091AD02882331F0F6
:1019D00087E995E06DEE71E00E941B218091AD02D8
:1019E000882371F040914C0550914D0560914E0552
:1019F00070914F0587E995E022E030E00E940222D5
:101A00008091AD02882331F087E995E069EF71E0BC
:101A10000E941B218091AD02882371F04091B7058F
:101A20005091B8056091B9057091BA0587E995E0C4
:101A300022E030E00E9402228091AD02882309F466
:101A400042C287E995E06BE171E00E9405223BC24A
:101A50006BA17CA180E090E00E94632320E030E055
:101A60004AE754E40E94CA226093B7057093B80510
:101A70008093B9059093BA050BA9112707FD10951E
:101A80001093D9050093D8050E943B021093D90505
:101A90000093D80518C26D8D7E8D8F8D98A10E9400
:101AA000652320E836E948E15BE40E94CA227B0115
:101AB0008C016093DA057093DB058093DC059093CD
:101AC000DD0520E030E040E050E00E94C62288239F
:101AD0007CF483E580930805D801C701BF77809324
:101AE000DA059093DB05A093DC05B093DD0503C018
:101AF0002EE420930805E090DA05F090DB050091D4
:101B0000DC051091DD05C801B7010E94322388274A
:101B100077FD8095982F0E9465231B012C01C80139
:101B2000B701A20191010E94612220E030E040E76C
:101B300052E40E9419247B018C010E9432238827E1
:101B400077FD8095982F0E9465233B014C01C801C9
:101B5000B701A40193010E94612220E030E040E738
:101B600052E40E9419245B016C01C201B10120E022
:101B700030E048EC52E40E941924A40193010E9431
:101B800062227B018C01C601B50120E030E048EC07
:101B900052E40E94CA229B01AC01C801B7010E9415
:101BA00062226093DA057093DB058093DC059093E5
:101BB000DD0569A17AA18BA19CA10E94652320E883
:101BC00036E948E15BE40E94CA227B018C01609304
:101BD000F2057093F3058093F4059093F50520E0EA
:101BE00030E040E050E00E94C62288237CF487E584
:101BF00080930905D801C701BF778093F2059093C0
:101C0000F305A093F405B093F50503C025E42093F4
:101C10000905E090F205F090F3050091F4051091AC
:101C2000F505C801B7010E943223882777FD80950A
:101C3000982F0E9465233B014C016093DE05709351
:101C4000DF058093E0059093E105C801B701A40189
:101C500093010E9461226093E2057093E3058093F3
:101C6000E4059093E50520E030E040E752E40E946F
:101C700019245B016C010E943223882777FD80952F
:101C8000982F0E9465237B018C016093E605709379
:101C9000E7058093E8059093E905C601B501A80121
:101CA00097010E9461226093EA057093EB0580938F
:101CB000EC059093ED0520E030E040E752E40E940F
:101CC00019245B016C016093EE057093EF0580931E
:101CD000F0059093F105C401B30120E030E048EC39
:101CE00052E40E941924A80197010E9462227B01FC
:101CF0008C01C601B50120E030E048EC52E40E94BE
:101D0000CA229B01AC01C801B7010E946222609304
:101D1000F2057093F3058093F4059093F5056DA19A
:101D20007EA18FA198A50E94652320E030E04AE7BC
:101D300054E40E94CA226093F6057093F7058093DD
:101D4000F8059093F90589A98093D6058AA980930F
:101D5000D705B9C0898D9A8DAB8DBC8D8093FA055E
:101D60009093FB05A093FC05B093FD056DA17EA1AA
:101D7000882777FD8095982F0E9465236093FE0544
:101D80007093FF0580930006909301068FA198A59C
:101D9000909303068093020685569040C19730F4D5
:101DA00084E690E0909303068093020680910206F9
:101DB000909103068739910520F010920306109246
:101DC00002068D8D9E8DAF8DB8A1809304069093F1
:101DD0000506A0930606B093070675C089A19AA1CF
:101DE00064E670E00E94AB24609308066CC06D8DC1
:101DF0007E8D8F8D98A121EE3EE245E652E40E9451
:101E000019240E94322360930906698D7A8D8B8D87
:101E10009C8D21EE3EE245E652E40E9419240E9488
:101E2000322360930A0669A17AA18BA19CA121EEBD
:101E30003EE245E652E40E9419240E943223609358
:101E40000B0641C06D897E8980E090E00E9463238B
:101E500020E030E04AE754E40E94CA227B018C0172
:101E600060934C0570934D0580934E0590934F05FC
:101E70008F898093500510925105C801B70120E069
:101E800030E040E050E00E94C622882371F0C80193
:101E9000B70120E030E040E850E40E94C6228823E9
:101EA00024F481E080934B050EC010924B050BC0CB
:101EB0008091AD02882339F087E995E06D894AE089
:101EC00050E00E948B208AE890E00E94261E83E565
:101ED00095E00E94E815181619060CF46DCC809157
:101EE0000C0690910D062B853C85820F931F9093D5
:101EF0000D0680930C062B8180910E0690910F06A3
:101F0000820F911D90930F0680930E06C458DF4FE9
:101F10000FB6F894DEBF0FBECDBFCF91DF911F91FA
:101F20000F91FF90EF90DF90CF90BF90AF909F9078
:101F30008F907F906F905F904F903F902F9008957B
:101F400010920D0510920E05C2CCCF92DF92EF9247
:101F5000FF921F93CF93DF93C4EDD3E06C01EE2487
:101F6000D7FCE094FE2C1881812F61E00E942C1F89
:101F7000C701B6010E94CD1D812F60E00E942C1F79
:101F8000C701B6010E94CD1D229683E0C03ED8074E
:101F900051F7DF91CF911F91FF90EF90DF90CF909D
:101FA0000895CF92DF92FF920F931F93CF93DF9309
:101FB000182F8BE795E06EE50E94DF1AFF24C12EF3
:101FC000DD2449C08E010B5E1A4F8BE795E0F801C6
:101FD00060810E94DF1AF80161816D3559F06E351C
:101FE00091F48BE795E06DE50E94DF1A8BE795E0B1
:101FF0006EE30BC08BE795E06DE50E94DF1A8BE77F
:1020000095E06DE302C08BE795E00E94DF1ACB5E9E
:10201000DA4F6A816D3559F06E3591F48BE795E0B2
:102020006DE50E94DF1A8BE795E06EE30BC08BE74E
:1020300095E06DE50E94DF1A8BE795E06DE302C045
:102040008BE795E00E94DF1A8BE795E06EE50E9432
:10205000DF1AF3E0FF0ECF2DD0E0CC15DD050CF438
:10206000B1CF80E0DF91CF911F910F91FF90DF9072
:10207000CF900895AF92BF92CF92DF92EF92FF92EE
:102080000F931F93CF93DF9390E0FC013197EB33D5
:10209000F10540F4EC5CFF4FEE0FFF1F0590F4914B
:1020A000E02D099480E044C280914705C82FD0E01C
:1020B000CB5EDA4F81E088836091F6057091F70579
:1020C0008091F8059091F90511C2E090F605F09025
:1020D000F7050091F8051091F90580914705C82F83
:1020E000D0E0CB5EDA4F89E08883C801B7010E9457
:1020F0003223882777FD8095982F0E9465239B01C6
:10210000AC01C801B7010E94612220E030E44CE13B
:1021100056E4EAC1E0914705F0E0EB5EFA4F82E059
:1021200080838091080678C180914705C82FD0E050
:10213000CB5EDA4F83E0888380910D05882379F1A7
:1021400000D000D0609102067091030680E090E01C
:1021500022E430E040E050E0EDB7FEB72183328367
:102160004383548320E030E040E050E014E6E12E69
:10217000F12C012D112DB2E2AB2EB12CC12CD12CA2
:102180000E9418226983E0914705F0E0EB5EFA4F68
:10219000128283E00F900F900F900F90C9C11982A7
:1021A0001A82C5C180914705C82FD0E0CB5EDA4FB7
:1021B00084E08883E090D805F090D90500E010E035
:1021C000AAC1E0914705F0E0EB5EFA4F85E080831D
:1021D0008091D7052AE0829FC00111242091D60565
:1021E000280F21831AC1C0911A07D0911B07809133
:1021F000B4029091B502C817D90764F5FE01EE0F3D
:10220000FF1FE554FA4FE080F1800027F7FC0095AE
:10221000102FC801B70142E00E94D601D62EC80196
:10222000B70141E00E94D601E0914705F0E0EB5E86
:10223000FA4F86E08083CE0174E0880F991F7A956B
:10224000E1F7D80ED18262832196D0931B07C09309
:102250001A076DC110921B0710921A0769C180916D
:102260004705C82FD0E0CB5EDA4F80E188836091CC
:10227000040670910506809106069091070699C0A4
:10228000E0914705F0E0EB5EFA4F81E2ABC0809150
:102290004705C82FD0E0CB5EDA4F81E1888360919B
:1022A000FA057091FB058091FC059091FD0581C0B8
:1022B000E0914705F0E0EB5EFA4F89E193C0809131
:1022C0004705C82FD0E0CB5EDA4F82E1888360916A
:1022D000F2057091F3058091F4059091F50569C0C0
:1022E00080914705C82FD0E0CB5EDA4F8AE1888322
:1022F000E090F205F090F3050091F4051091F505DA
:102300002BC0E0914705F0E0EB5EFA4F82E280835C
:102310008091090581C080914705C82FD0E0CB5E30
:10232000DA4F83E188836091DA057091DB05809153
:10233000DC059091DD053DC080914705C82FD0E0B8
:10234000CB5EDA4F8BE18883E090DA05F090DB0515
:102350000091DC051091DD05C801B7010E94322310
:102360000E9465239B01AC01C801B7010E94612254
:1023700020E030E44CE156E40E9419241AC0E091B8
:102380004705F0E0EB5EFA4F83E280838091080519
:1023900043C080914705C82FD0E0CB5EDA4F84E17F
:1023A00088836091FE057091FF05809100069091F1
:1023B00001060E9432237B018C01ADC0E0914705EC
:1023C000F0E0EB5EFA4F8CE10DC0E0914705F0E0E4
:1023D000EB5EFA4F85E106C0E0914705F0E0EB5E69
:1023E000FA4F86E18083118218C0E0914705F0E042
:1023F000EB5EFA4F87E1808380914805818380916D
:102400004905828394C0E0914705F0E0EB5EFA4F06
:1024100088E1808380914A058183128288C08091FF
:102420004705C82FD0E0CB5EDA4F84E28883E09086
:102430000A0684E6FE2DF8027001112468C080911E
:102440004705C82FD0E0CB5EDA4F85E28883E09065
:10245000090684E69E2D98027001112458C08091CF
:102460004705C82FD0E0CB5EDA4F86E28883E09044
:102470000B0684E6EE2DE8027001112448C080911D
:102480004705C82FD0E0CB5EDA4F8AE3888360919E
:10249000B7057091B8058091B9059091BA0526C02D
:1024A00080914705C82FD0E0CB5EDA4F8BE388835D
:1024B000E090B705F090B8050091B9051091BA0504
:1024C000C801B7010E943223882777FD8095982F95
:1024D0000E9465239B01AC01C801B7010E946122E3
:1024E00020E030E04AE754E40E9419240E9432239D
:1024F0007B018C010CC080914705C82FD0E0CB5EDA
:10250000DA4F88E28883E0900A05F0900B050027F7
:10251000F7FC0095102FC801B70141E00E94D601D9
:102520006983C801B70142E00E94D6016A8383E053
:10253000DF91CF911F910F91FF90EF90DF90CF909F
:10254000BF90AF900895EF92FF920F931F930E9458
:10255000BF1D9B01AC0120931C0730931D074093C6
:102560001E0750931F078091200790912107A0918B
:102570002207B091230779018A01E81AF90A0A0BA8
:102580001B0BD801C701893C9105A105B1050CF4CD
:10259000F9C02093200730932107409322075093DE
:1025A000230701E0009346051091470584E20E944D
:1025B0003A10180F1093470585E20E943A10180F41
:1025C0001093470586E20E943A10180F10934705B2
:1025D00080E10E943A10180F1093470581E20E9493
:1025E0003A10180F1093470582E00E943A10180F16
:1025F0001093470585E00E943A10180F1093470585
:1026000086E00E943A10180F1093470588E20E9456
:102610003A10180F109347058AE30E943A10180FDA
:10262000109347058BE30E943A10180F109347054B
:1026300083E00E943A10180F109347051092460548
:10264000812F0E94D10F809347058091450565E059
:102650000E949F24992309F066C080914A058F5FEC
:1026600080934A050E94F5010093460510914705A5
:1026700084E10E943A10180F109347058CE10E94E4
:102680003A10180F1093470583E10E943A10180F73
:10269000109347058BE10E943A10180F10934705DD
:1026A00083E20E943A10180F1093470582E10E94BE
:1026B0003A10180F109347058AE10E943A10180F3C
:1026C0001093470582E20E943A10180F10934705B5
:1026D00081E10E943A10180F1093470589E10E948A
:1026E0003A10180F1093470581E00E943A10180F16
:1026F0001093470589E00E943A10180F1093470580
:1027000084E00E943A10180F1093470588E10E9458
:102710003A10180F1093470510924605812F0E941A
:10272000D10F8093470580914505893130F181E0D3
:10273000809346051091470585E10E943A10180FD5
:102740001093470586E10E943A10180F1093470531
:1027500087E10E943A10180F1093470588E10E9404
:102760003A10180F1093470510924605812F0E94CA
:10277000D10F8093470510924505809145058F5FE5
:10278000809345051F910F91FF90EF900895EF9270
:10279000FF920F931F93CF93DF930E94640A80915F
:1027A0000F05882309F4A8C00E94BF1D9B01AC013E
:1027B000209324073093250740932607509327073B
:1027C0008091280790912907A0912A07B0912B07A3
:1027D00079018A01E81AF90A0A0B1B0BD801C70113
:1027E000C397A105B105BCF02093280730932907B2
:1027F00040932A0750932B0780910F078F5F809398
:102800000F07803141F410920F078091AD028430A0
:1028100011F40E94E8030E94D10980912C078130B5
:1028200009F04BC08091AD02882331F087E995E033
:1028300065E072E00E9405228091100561E00E942F
:102840002C1F8091110561E00E942C1F0E94E8025C
:1028500062E370E080E090E00E94CD1D0E94E802FB
:1028600062E370E080E090E00E94CD1D0E94E802EB
:1028700062E370E080E090E00E94CD1D10922C0792
:10288000C0E0D0E061E070E080E090E00E94CD1D0B
:102890000E949309219607E0C13DD00799F7109255
:1028A000B7020E94BF1D0E9463236093D2057093FC
:1028B000D3058093D4059093D5058091C7058823CF
:1028C00081F48091AD02882331F087E995E060E1E1
:1028D00072E00E94052281E080932C0786E08093BD
:1028E000B6020E94C00B80E795E00E9466180E9425
:1028F00093090E94A31202C00E94A60ADF91CF9101
:102900001F910F91FF90EF9008950F931F93CF9316
:10291000DF9384E08093AD0283E595E040E051EEE3
:1029200060E070E00E94861587E995E040E056E996
:1029300060E070E00E94A9198091AD02882331F017
:1029400087E995E068E272E00E9405228091AD027D
:10295000882331F087E995E068E372E00E94052260
:1029600084E10E946B1E8F5F934051F48091AD0211
:10297000882331F087E995E069E572E00E9405223D
:1029800084E10E946B1E8F5F934019F48BE080936B
:10299000AC028BE795E040E855E260E070E00E9411
:1029A000A91988EE93E00E948D09082F8EEE93E01E
:1029B0000E948D0910E0080F111D08321105B1F0B9
:1029C0008091AD02882331F087E995E06EE672E0F0
:1029D0000E941B210E9435088091AD02882331F0AE
:1029E00087E995E060E872E00E94052280E890E0C7
:1029F0000E948D098093100581E890E00E948D0966
:102A00008093110582E890E00E948D098093120561
:102A100083E890E00E948D098093130585E890E09B
:102A20000E948D098093140583E595E09093B40589
:102A30008093B305C4EDD3E0888161E00E94ED1E70
:102A4000229683E0C03ED807B9F7C0E0D0E089E124
:102A500090E00E94A50F2196C630D105C1F7C0E0D5
:102A6000D0E00E94C00A64E670E080E090E00E943E
:102A7000CD1D0E94A60A64E670E080E090E00E940E
:102A8000CD1D2196C330D10561F70E94D10983E5A0
:102A900095E067E872E00E941B210E94A518BC0126
:102AA00083E595E04AE050E00E94FC208091AD0271
:102AB000882349F00E94A518BC0187E995E04AE007
:102AC00050E00E94FC2080E795E066E17AE022E396
:102AD00030E040E050E000E00E94181880E795E008
:102AE0000E947E1881E080932C0780930F058091CF
:102AF000AD02882331F087E995E061E972E00E9438
:102B00000522DF91CF911F910F9108950F931F938D
:102B1000DC01ED91FC910288F389E02D20E030E0AA
:102B200000E010E009951F910F9108958F92AF92E8
:102B3000CF92EF92FF920F931F93DF93CF93CDB776
:102B4000DEB7FC011382128288EE93E0A0E0B0E0D1
:102B500084839583A683B78384EE94E091838083F6
:102B60005587448737872687118B008BF38AE28A43
:102B7000C48AA58A868A70E0CB0123E0880F991F5A
:102B80002A95E1F79C01235D384F308F278B8B5CB2
:102B9000984F928F818F81E090E002C0880F991F3B
:102BA0006A95E2F720913D07282B20933D07CF013E
:102BB00040E051EE60E070E00E948615CF91DF9119
:102BC0001F910F91FF90EF90CF90AF908F9008954D
:102BD000FC01838D882319F42FEF3FEF0DC0078888
:102BE000F08DE02D2081318182819381281B390B6A
:102BF0008481958128233923C9010895FC01838D9F
:102C0000882319F42FEF3FEF11C0018CF28DE02DD6
:102C10002081318182819381281B390B2095309549
:102C200084819581282339232F5F3F4FC90108955F
:102C3000FC01838D882361F0A789B08D2D913C9193
:102C4000119712968D919C9113972817390721F4AB
:102C50004FEF5FEFCA01089512968D919C911397E3
:102C60001696ED91FC911797E80FF91F4081129687
:102C70008D919C911397019614962D913C911597E7
:102C80008223932313969C938E93129750E0E2CF66
:102C9000FC01838D882351F00788F08DE02D208181
:102CA0003181828193812817390721F42FEF3FEF7B
:102CB000C9010895828193810680F781E02DE80F94
:102CC000F91F8081282F30E0F3CFDC015796ED917A
:102CD000FC91589782819381918380835996ED91DD
:102CE000FC915A9780819181938382830895DC01BE
:102CF0005B968C915B978823A9F15996ED91FC9195
:102D00005A97208131812F5F3F4F848195812823FD
:102D100039235C968C915C97882329F0828193817A
:102D200028173907F9F08281938128173907D9F3D9
:102D3000808191810680F781E02DE80FF91F608383
:102D40005996ED91FC915A97318320835296ED91DB
:102D5000FC915397808156969C91892B808321E02A
:102D600030E002C020E030E0C9010895CF93DF9346
:102D7000EC011B821A828A819B81998388831D8240
:102D80001C828E819F81009721F00E94DF1C1F8290
:102D90001E82DF91CF9108950F931F938C01DC0168
:102DA0005296ED91FC915397208156968C915697AF
:102DB00055969C915597892B8095822380835796B1
:102DC0008D919C9158970E94B616F801818D928D35
:102DD0000E94B616D8015B961C921F910F91089520
:102DE0000F931F93CF93DF938C01FC011382128208
:102DF000828193819183808341E0A1E0B0E001C0B2
:102E00004F5FFD01042E02C0EE0FFF1F0A94E2F790
:102E10009B0182E06130780710F020E032E0E21799
:102E2000F30770F3C1E0D0E002C0CC0FDD1F4A957C
:102E3000E2F72197F801268137812115310541F00C
:102E4000848195818C179D0789F0C9010E94DF1C40
:102E5000F801D583C483CE0101960E94421C9C01D7
:102E6000F8019783868380E0232B09F081E0DF91CE
:102E7000CF911F910F910895AF92BF92CF92DF92A1
:102E8000EF92FF920F931F93CF93DF937C015A0130
:102E90006B01E901DC015B968C915B978823F1F073
:102EA0002115310539F45796ED91FC915897C4815D
:102EB000D58121960115110549F4D7015996ED9157
:102EC000FC915A97048115810F5F1F4FD701ED9137
:102ED000FC910088F189E02DC7010995F7018789E8
:102EE000908D209711F4C0E8D0E0BE010E94F0164A
:102EF000882381F0D70159968D919C915A9701159D
:102F0000110511F400E110E0B8010E94F0168823C9
:102F100009F04DC0D701ED91FC910088F189E02DB9
:102F2000C701099567C0D7015096ED91FC91519763
:102F3000B0E0AB16B1EEBB06B0E0CB06B0E0DB060E
:102F400009F454C081E090E0D70154960C9002C07F
:102F5000880F991F0A94E2F7808360E079E08DE39F
:102F600090E0A60195010E94E024215030404040AD
:102F70005040CA01B90122E030E040E050E00E9438
:102F8000E024D7011C96ED91FC911D9730831E968D
:102F9000ED91FC911F972083D7015296ED91FC9102
:102FA0005397808155969C91892B808323C0D701AC
:102FB0005996ED91FC915A971382128282819381E6
:102FC000918380835796ED91FC91589713821282DA
:102FD000828193819183808381E05B968C931A1424
:102FE0001B041C041D040CF49ECFD6CF108220E1DC
:102FF00030E0C7CFDF91CF911F910F91FF90EF90FD
:10300000DF90CF90BF90AF900895F999FECF72BD39
:1030100061BDF89A80B50895F999FECF1FBA72BDC7
:1030200061BD40BD0FB6F894FA9AF99A0FBE0895A3
:103030000F93FC016115710511F480E011C021832B
:10304000328343835483728761870170000F000FBE
:10305000000F8081877F802B82608B7F808381E05F
:103060000F910895CF93DF93EC010E94BF1D9B0148
:10307000AC018D819E81AF81B885281739074A0739
:103080005B0728F4888184FD02C060E00DC089815F
:103090009A81AB81BC81820F931FA41FB51F8D83C2
:1030A0009E83AF83B88761E0222757FD239533279E
:1030B00044275527922F91709295907F88818F7E1B
:1030C000892B8883862FDF91CF910895CF93DF934B
:1030D000EC01888182FF0FC0CE010E943218882344
:1030E00051F0E985FA85309709F00995888183FFC9
:1030F00002C08B7F8883DF91CF910895CF93DF93B8
:10310000EC0189859A85892BE1F089819A81AB81CF
:10311000BC810097A105B105A1F00E94BF1D2981C6
:103120003A814B815C81260F371F481F591F2D8321
:103130003E834F835887888184608F7E888381E0B7
:1031400001C080E0DF91CF910895DF93CF9300D04D
:10315000CDB7DEB720918C0730918D07CE01019657
:103160002115310519F48059974002C0821B930B39
:103170009A83898389819A810F900F90CF91DF91F3
:1031800008950F931F93CF93DF93FC01738D769572
:103190007170A685B7859585772329F08C91892351
:1031A00009F454C004C08C91892309F04FC083896D
:1031B000948920E001972FEF8F3F9207D9F7C589B7
:1031C000D689A685B785158560E031E040E050E0FE
:1031D00000E0CE01202F01972FEF8F3F9207D9F704
:1031E0008C91812311F0632B03C0832F809568237A
:1031F000330F4F5F5F4F4830510559F78789908DE6
:1032000020E001972FEF8F3F9207D9F7711160955A
:10321000809181072091820790E001968F739070D2
:1032200030E08217930779F0E0918107F0E0EF5BDF
:10323000F84F60838091810790E001968F739070C2
:103240008093810703C0838D8160838FDF91CF914D
:103250001F910F9108951F920F920FB60F92112494
:103260002F933F934F935F936F937F938F939F938E
:10327000AF93BF93EF93FF9380913F0790914007E7
:10328000009711F00E94C118FF91EF91BF91AF918B
:103290009F918F917F916F915F914F913F912F916E
:1032A0000F900FBE0F901F9018951F920F920FB6A0
:1032B0000F9211242F933F934F935F936F937F93BC
:1032C0008F939F93AF93BF93EF93FF9380913F07AB
:1032D00090914007009711F00E94C118FF91EF9163
:1032E000BF91AF919F918F917F916F915F914F911E
:1032F0003F912F910F900FBE0F901F9018951F9226
:103300000F920FB60F9211242F933F934F935F9319
:103310006F937F938F939F93AF93BF93EF93FF939D
:1033200080913F0790914007009711F00E94C118CB
:10333000FF91EF91BF91AF919F918F917F916F918D
:103340005F914F913F912F910F900FBE0F901F9063
:103350001895CF92DF92EF92FF920F931F93CF9326
:10336000DF93EC017A018B011A8E198E188E1F8A59
:103370001E8A1D8A1C8A1B8A20E030E06901CC0C61
:10338000DD1CC20ED31EB601660F771F660F771FB6
:10339000AB0142525F4FFA0185919591A591B4918D
:1033A0008E159F05A007B107E9F4FB01EE51FF4F11
:1033B000859194919C8B8B8BFB01EC51FF4F8591F8
:1033C00094919E8B8D8BFB01EA51FF4F85919491D7
:1033D000988F8F8BFB01E851FF4F859194919A8FC5
:1033E000898F06C02F5F3F4F2D30310509F0C6CFC2
:1033F0008F89988D892B09F449C04C85463108F096
:103400003DC090916800483010F484E005C04E3013
:1034100010F082E001C081E0892B80936800483081
:1034200028F4EDE6F0E0ADE6B0E00BC04E3028F059
:10343000ECE6F0E0ACE6B0E004C0EBE6F0E0ABE6D2
:10344000B0E05081483040F481E090E002C0880F45
:10345000991F4A95E2F710C0242F30E04E3018F43F
:103460002850304002C02E50304081E090E002C031
:10347000880F991F2A95E2F7852B8C93898D9A8D59
:1034800020E001972FEF8F3F9207D9F780913F07F8
:10349000909140078C179D0781F08B8D8E7F8B8FCD
:1034A0009FB7F894109281078091810780938207DB
:1034B000D0934007C0933F079FBFDF91CF911F91EB
:1034C0000F91FF90EF90DF90CF900895FC0144851D
:1034D000463180F5483028F4EDE6F0E0ADE6B0E0A6
:1034E0000BC04E3028F4EBE6F0E0ABE6B0E004C0F1
:1034F000ECE6F0E0ACE6B0E05081483040F481E02A
:1035000090E002C0880F991F4A95E2F710C0242F5F
:1035100030E04E3018F42850304002C02E50304079
:1035200081E090E002C0880F991F2A95E2F780950C
:1035300085238C930895FC018CEF94E09183808324
:10354000CF010E94661A089520913F0730914007ED
:103550002817390731F490918207809181079817D5
:1035600019F42FEF3FEF0FC0E0918207F0E0EF5B1F
:10357000F84F20818091820790E001968F739070C0
:103580008093820730E0C901089520913F07309170
:1035900040072817390719F020E030E00EC080916D
:1035A00081072091820790E0805C9F4F821B9109E8
:1035B00060E470E00E94AB249C01C90108950F9360
:1035C0001F93DC0159968D919C915A97892B49F450
:1035D00081E090E013969C938E93129720E030E068
:1035E00097C00FB7F8945B968C915B975196ED91CD
:1035F000FC91529750962C91509781FF8DC08081FD
:10360000822B808359968D919C915A97059620E044
:1036100001972FEF8F3F9207D9F75B968C915B97BD
:1036200081FF35C031E040E050E070E010E0832FD2
:1036300090E0862397235196ED91FC9152975096F6
:103640002C915097892B29F0808120952823208365
:1036500003C08081822B808359968D919C915A97CB
:10366000212F01972FEF8F3F9207D9F7330F4F5F2D
:103670005F4F48305105D9F65196ED91FC91529724
:10368000908150968C9150978095892333C031E07A
:1036900040E050E070E010E0832F90E08623972315
:1036A0005196ED91FC91529750962C915097892B01
:1036B00021F08081822B808304C080812095282383
:1036C000208359968D919C915A97212F01972FEF26
:1036D0008F3F9207D9F7330F4F5F5F4F4830510547
:1036E000D9F65196ED91FC915297808150969C911C
:1036F0005097892B80830FBF59968D919C915A9733
:1037000020E001972FEF8F3F9207D9F721E030E0BB
:10371000C9011F910F91089580812095282320834E
:1037200071CF20913F07309140072817390749F49E
:103730009FB7F89410928107809181078093820748
:103740009FBF089520913F07309140072817390700
:1037500031F49091820780918107981719F42FEF27
:103760003FEF0AC0E0918207F0E0EF5BF84F808105
:10377000282F332727FD3095C90108951F93CF9334
:10378000DF93EC01162F862F60E00E94ED1E8B8DDB
:1037900081FD04C0812F61E00E942C1F1C87212F16
:1037A00030E0C90184559E4FFC0184918D872856D5
:1037B0003E4FF9016491E62FF0E0EE0FFF1FE25754
:1037C000FE4F859194919F878E87DF91CF911F91B6
:1037D0000895FF920F931F938C01F62E862F61E0C0
:1037E0000E94ED1E8F2D61E00E942C1F8F2D90E016
:1037F000FC01E455FE4FE491D8015096EC935097AC
:1038000088569E4FFC016491E62FF0E0EE0FFF1FFB
:10381000EC57FE4F8591949152969C938E935197BD
:103820001F910F91FF900895FF920F931F938C01AA
:10383000F62EFC011382128288EE93E0A0E0B0E045
:1038400084839583A683B7838CEF94E091838083F0
:10385000148A138A168A158A108E178A128E118E70
:10386000838D2170220F8C7F822B838FC801642F60
:103870000E94E91BC8016F2D0E94BE1B1F910F9172
:10388000FF9008950F931F93CF93DF93BC01823075
:10389000910510F462E070E0E0918E07F0918F07DF
:1038A00040E050E0A0E0B0E024C080819181861724
:1038B0009707D0F08617970771F48281938110974C
:1038C00029F013969C938E9312972CC090938F0798
:1038D00080938E0727C04115510519F0841795076D
:1038E00018F48D01AC01EF01DF01828193819C010D
:1038F000F9013097D1F641155105F9F0CA01861B3F
:10390000970B8430910580F48A819B810115110504
:1039100021F0F8019383828304C090938F078093F2
:103920008E07FE01329645C0FE01E80FF91F619334
:1039300071930297998388833CC080918C07909102
:103940008D07892B41F48091BA029091BB0290932C
:103950008D0780938C074091BC025091BD024115A8
:10396000510541F44DB75EB78091B8029091B9020C
:10397000481B590B20918C0730918D072417350770
:10398000B0F4CA01821B930B8617970780F0AB0136
:103990004E5F5F4F8417950750F0420F531F5093AF
:1039A0008D0740938C07F9016193719302C0E0E0A9
:1039B000F0E0CF01DF91CF911F910F910895CF9348
:1039C000DF939C01009709F48FC0EC0122971B82C2
:1039D0001A8260918E0770918F076115710581F4CD
:1039E00088819981820F931F20918C0730918D07D8
:1039F0002817390739F5D0938D07C0938C0774C009
:103A0000DB0140E050E0AC17BD0708F1BB83AA839F
:103A1000FE0121913191E20FF31FAE17BF0779F438
:103A20008D919C911197280F391F2E5F3F4F39833D
:103A3000288312968D919C9113979B838A834115BD
:103A4000510571F4D0938F07C0938E074DC0129625
:103A50008D919C911397AD01009711F0DC01D3CFAC
:103A6000DA011396DC93CE931297FA0121913191EA
:103A7000E20FF31FCE17DF0769F488819981280FC1
:103A8000391F2E5F3F4FFA01318320838A819B814A
:103A900093838283E0E0F0E0DB0112968D919C91AC
:103AA0001397009719F0BC01FD01F6CFAB014E5FF3
:103AB0005F4FDB018D919C91840F951F20918C07A6
:103AC00030918D072817390779F4309729F410922F
:103AD0008F0710928E0702C013821282425050400C
:103AE00050938D0740938C07DF91CF9108951F92DB
:103AF0000F920FB60F9211242F933F938F939F93A2
:103B0000AF93BF938091870790918807A091890711
:103B1000B0918A0730918B070196A11DB11D232F0B
:103B20002D5F2D3720F02D570196A11DB11D20933B
:103B30008B078093870790938807A0938907B0939A
:103B40008A078091830790918407A0918507B0919F
:103B500086070196A11DB11D80938307909384076A
:103B6000A0938507B0938607BF91AF919F918F91E6
:103B70003F912F910F900FBE0F901F9018958FB708
:103B8000F8942091870730918807409189075091D8
:103B90008A078FBFB901CA0108959B01AC017FB7A5
:103BA000F8948091830790918407A0918507B09144
:103BB000860766B5A89B05C06F3F19F00196A11D49
:103BC000B11D7FBFBA2FA92F982F8827860F911D6F
:103BD000A11DB11D62E0880F991FAA1FBB1F6A9526
:103BE000D1F7BC012DC0FFB7F89480918307909165
:103BF0008407A0918507B0918607E6B5A89B05C00C
:103C0000EF3F19F00196A11DB11DFFBFBA2FA92FDB
:103C1000982F88278E0F911DA11DB11DE2E0880FFE
:103C2000991FAA1FBB1FEA95D1F7861B970B885EC9
:103C30009340C8F2215030404040504068517C4F82
:103C4000211531054105510571F60895019739F0A7
:103C5000880F991F880F991F02970197F1F7089510
:103C6000789484B5826084BD84B5816084BD85B557
:103C7000826085BD85B5816085BDEEE6F0E080811E
:103C800081608083E1E8F0E010828081826080833F
:103C9000808181608083E0E8F0E0808181608083C2
:103CA000E1EBF0E0808184608083E0EBF0E08081F4
:103CB00081608083EAE7F0E0808184608083808196
:103CC000826080838081816080838081806880833E
:103CD0001092C1000895982F8E3008F09E50977072
:103CE0008091BE028295880F880F807C892B8093FB
:103CF0007C0080917A00806480937A0080917A00C1
:103D000086FDFCCF2091780040917900942F80E0CF
:103D100030E0282B392BC90108951F93CF93DF93EF
:103D2000182FEB0161E00E94ED1E209709F44AC0B4
:103D3000CF3FD10509F449C0E12FF0E0E054FE4F38
:103D400084918330C1F0843028F4813051F0823086
:103D5000B1F50CC0863019F1873049F1843079F51E
:103D600014C084B5806884BDC7BD33C084B580628B
:103D700084BDC8BD2EC08091800080688093800083
:103D8000D0938900C093880024C080918000806215
:103D900080938000D0938B00C0938A001AC08091DA
:103DA000B00080688093B000C093B30012C08091CF
:103DB000B00080628093B000C093B4000AC0C038E5
:103DC000D1051CF4812F60E002C0812F61E00E94C8
:103DD0002C1FDF91CF911F910895CF93DF93482F30
:103DE00050E0CA0184559E4FFC01349148565E4F05
:103DF000FA018491882369F190E0880F991FFC01F2
:103E0000E658FE4FA591B491FC01EC57FE4FC591C9
:103E1000D491662351F42FB7F8948C91932F9095F9
:103E200089238C93888189230BC0623061F42FB77A
:103E3000F8948C91932F909589238C938881832B70
:103E400088832FBF06C09FB7F8948C91832B8C93E7
:103E50009FBFDF91CF910895482F50E0CA01805451
:103E60009E4FFC012491CA0184559E4FFC01949100
:103E700048565E4FFA013491332309F440C022239F
:103E800051F1233071F0243028F42130A1F0223098
:103E900011F514C02630B1F02730C1F02430D9F428
:103EA00004C0809180008F7703C0809180008F7D57
:103EB0008093800010C084B58F7702C084B58F7D59
:103EC00084BD09C08091B0008F7703C08091B0009D
:103ED0008F7D8093B000E32FF0E0EE0FFF1FEC57D3
:103EE000FE4FA591B4912FB7F894662321F48C91DD
:103EF0009095892302C08C91892B8C932FBF0895B4
:103F0000CF93DF930E94301E0E948514C0E0D0E062
:103F10000E94C7132097E1F30E940000F9CFCF92CF
:103F2000DF92EF92FF920F931F93CF93DF937C0169
:103F30006B018A01C0E0D0E00FC0D6016D916D0128
:103F4000D701ED91FC910190F081E02DC701099519
:103F5000C80FD91F015010400115110571F7CE018E
:103F6000DF91CF911F910F91FF90EF90DF90CF9055
:103F70000895EF92FF920F931F938C01DC01ED9156
:103F8000FC910190F081E02D6DE009957C01D80154
:103F9000ED91FC910190F081E02DC8016AE0099556
:103FA0009C012E0D3F1DC9011F910F91FF90EF90B5
:103FB0000895CF93DF93EC016115710519F420E0AA
:103FC00030E00FC0DB010D900020E9F71197A61B30
:103FD000B70BE881F9810280F381E02DAD010995ED
:103FE0009C01C901DF91CF9108954F925F927F921A
:103FF0008F929F92AF92BF92CF92DF92EF92FF92F9
:104000000F931F93DF93CF93CDB7DEB7A1970FB672
:10401000F894DEBF0FBECDBF2C01742ECB01223031
:1040200008F42AE019A231E2C32ED12CCC0EDD1EF9
:10403000822E9924AA24BB24672D752FA5019401F3
:104040000E94BE2479018A01C801B701A50194012B
:104050000E948024472D461B0894C108D1084A308D
:1040600014F4405D01C0495CF6014083E114F104A1
:104070000105110521F07E2C5F2DC801DDCFC201A5
:10408000B6010E94D91FA1960FB6F894DEBF0FBEED
:10409000CDBFCF91DF911F910F91FF90EF90DF90F7
:1040A000CF90BF90AF909F908F907F905F904F90F8
:1040B0000895DC012115310541F4ED91FC91019049
:1040C000F081E02D642F099508950E94F51F089551
:1040D000EF92FF920F931F939A017B0100E010E093
:1040E000B801A7010E9459201F910F91FF90EF90F6
:1040F0000895EF92FF920F931F939A01E62EFF24EB
:1041000000E010E0B801A7010E9459201F910F9113
:10411000FF90EF900895CF92DF92EF92FF920F936E
:104120001F936C01E62E9A01FF2400E010E0B80115
:10413000A7010E9459208C01C6010E94B91F080FD7
:10414000191FC8011F910F91FF90EF90DF90CF9042
:104150000895CF92DF92EF92FF920F931F93CF9328
:10416000DF93EC016A017B012115310541F4E881FF
:10417000F9810190F081E02D642F09951FC02A304C
:104180003105D1F477FF17C0E881F9810190F08102
:10419000E02D6DE209958C0144275527BA014C1991
:1041A0005D096E097F09CE012AE00E94F51F980182
:1041B000280F391F04C02AE00E94F51F9C01C90185
:1041C000DF91CF911F910F91FF90EF90DF90CF90F3
:1041D0000895EF92FF920F931F937B019A0100279E
:1041E000F7FC0095102FB801A7010E94A9201F918C
:1041F0000F91FF90EF900895CF92DF92EF92FF9290
:104200000F931F936C017B019A010027F7FC009527
:10421000102FB801A7010E94A9208C01C6010E949D
:10422000B91F080F191FC8011F910F91FF90EF9040
:10423000DF90CF9008950E94D91F08957F928F92AA
:104240009F92AF92BF92CF92DF92EF92FF920F9325
:104250001F93CF93DF934C017A018B01722ECB0118
:10426000BA01A80197010E947C24882321F0C4018F
:104270006EE972E021C0C0E0D0E057016801E89427
:10428000D7F8C601B5012FEF3FEF4FE75FE70E9478
:104290007C24882351F4C601B5012FEF3FEF4FE78F
:1042A0005FE70E94C622181614F0C1E0D0E0219703
:1042B00039F0C40162EA72E00E94D91FEC0193C098
:1042C000C801B7012FEF3FEF4FE75FE40E941524CD
:1042D000181654F0C801B7012FEF3FEF4FE75FEC1E
:1042E0000E94C622882324F4C40166EA72E0E4CF67
:1042F000C801B70120E030E040E050E00E94C62253
:1043000087FD03C0C0E0D0E00EC0D401ED91FC9168
:104310000190F081E02DC4016DE20995EC0117FBDD
:10432000109517F9109520E030E040E05FE3DD24C0
:104330000BC0CA01B90120E030E040E251E40E9424
:10434000CA229B01AC01D394D71498F3C801B701DA
:104350000E9462225B016C010E9437237B018C0169
:10436000C401B801A7012AE030E00E945920C80F1B
:10437000D91F772039F0C4016AEA72E00E94D91F80
:10438000C80FD91FC801B7010E9463239B01AC016C
:10439000C601B5010E94612224C020E030E040E265
:1043A00051E40E9419247B018C010E9432235B019D
:1043B0006C01CC24B7FCC094DC2CC401B601A5016F
:1043C0002AE030E00E94A920C80FD91FC601B5011C
:1043D0000E9465239B01AC01C801B7010E946122C4
:1043E0007A947720D1F6CE01DF91CF911F910F9172
:1043F000FF90EF90DF90CF90BF90AF909F908F9005
:104400007F9008950E941E210895EF92FF920F93CE
:104410001F937C010E94D91F8C01C7010E94B91F04
:10442000080F191FC8011F910F91FF90EF90089579
:104430002F923F924F925F926F927F928F929F92B4
:10444000AF92BF92CF92DF92EF92FF920F931F93A2
:10445000DF93CF93CDB7DEB73B014C0119012A01A1
:104460006D897E898F89988D6A197B098C099D09D0
:10447000621A730A840A950AA40193010E94802497
:10448000E218F30804091509A80197010E94E02425
:104490002A0D3B1D4C1D5D1DB901CA01CF91DF9155
:1044A0001F910F91FF90EF90DF90CF90BF90AF9052
:1044B0009F908F907F906F905F904F903F902F9044
:1044C00008955058BB27AA270ED075C166D130F089
:1044D0006BD120F031F49F3F11F41EF45BC10EF458
:1044E000E095E7FB51C1E92F77D180F3BA17620756
:1044F00073078407950718F071F49EF58FC10EF4C9
:10450000E0950B2EBA2FA02D0B01B90190010C01E3
:10451000CA01A0011124FF27591B99F0593F50F4FB
:10452000503E68F11A16F040A22F232F342F442753
:10453000585FF3CF469537952795A795F04053954B
:10454000C9F77EF41F16BA0B620B730B840BBAF01B
:104550009150A1F0FF0FBB1F661F771F881FC2F786
:104560000EC0BA0F621F731F841F48F4879577959A
:104570006795B795F7959E3F08F0B3CF9395880F51
:1045800008F09927EE0F979587950895D9D008F4EC
:1045900081E008950CD00FC107D140F0FED030F07B
:1045A00021F45F3F19F0F0C0511139C1F3C014D1AB
:1045B00098F39923C9F35523B1F3951B550BBB27EA
:1045C000AA2762177307840738F09F5F5F4F220F97
:1045D000331F441FAA1FA9F333D00E2E3AF0E0E890
:1045E00030D091505040E695001CCAF729D0FE2FDC
:1045F00027D0660F771F881FBB1F2617370748076E
:10460000AB07B0E809F0BB0B802DBF01FF27935823
:104610005F4F2AF09E3F510568F0B6C000C15F3F72
:10462000ECF3983EDCF3869577956795B795F7950B
:104630009F5FC9F7880F911D9695879597F9089503
:10464000E1E0660F771F881FBB1F6217730784079F
:10465000BA0720F0621B730B840BBA0BEE1F88F7AE
:10466000E095089504D06894B111D9C00895BCD0E4
:1046700088F09F5790F0B92F9927B751A0F0D1F04B
:10468000660F771F881F991F1AF0BA95C9F712C0D5
:10469000B13081F0C3D0B1E00895C0C0672F782F4A
:1046A0008827B85F39F0B93FCCF386957795679541
:1046B000B395D9F73EF490958095709561957F4FAD
:1046C0008F4F9F4F0895E89409C097FB3EF4909553
:1046D0008095709561957F4F8F4F9F4F9923A9F0DB
:1046E000F92F96E9BB279395F6958795779567956A
:1046F000B795F111F8CFFAF4BB0F11F460FF1BC0AE
:104700006F5F7F4F8F4F9F4F16C0882311F096E940
:1047100011C0772321F09EE8872F762F05C06623EE
:1047200071F096E8862F70E060E02AF09A95660FA7
:10473000771F881FDAF7880F9695879597F9089560
:10474000990F0008550FAA0BE0E8FEEF16161706A2
:10475000E807F907C0F012161306E407F50798F00A
:10476000621B730B840B950B39F40A2661F0232B23
:10477000242B252B21F408950A2609F4A140A6959F
:104780008FEF811D811D089597F99F6780E870E084
:1047900060E008959FEF80EC089500240A941616B7
:1047A000170618060906089500240A94121613061F
:1047B000140605060895092E0394000C11F48823AD
:1047C00052F0BB0F40F4BF2B11F460FF04C06F5FC9
:1047D0007F4F8F4F9F4F089557FD9058440F551F9F
:1047E00059F05F3F71F04795880F97FB991F61F073
:1047F0009F3F79F087950895121613061406551FEA
:10480000F2CF4695F1DF08C0161617061806991F55
:10481000F1CF86957105610508940895E894BB274A
:1048200066277727CB0197F908958ADF08F48FEF81
:1048300008950BD0C0CFB1DF28F0B6DF18F0952374
:1048400009F0A2CFA7CF1124EACFC6DFA0F3959F2E
:10485000D1F3950F50E0551F629FF001729FBB2767
:10486000F00DB11D639FAA27F00DB11DAA1F649F13
:104870006627B00DA11D661F829F2227B00DA11DC6
:10488000621F739FB00DA11D621F839FA00D611D4C
:10489000221F749F3327A00D611D231F849F600D6D
:1048A000211D822F762F6A2F11249F5750408AF0A6
:1048B000E1F088234AF0EE0FFF1FBB1F661F771F32
:1048C000881F91505040A9F79E3F510570F05CCF72
:1048D000A6CF5F3FECF3983EDCF38695779567951E
:1048E000B795F795E7959F5FC1F7FE2B880F911D50
:1048F0009695879597F9089523DF880B990B08956E
:10490000629FD001739FF001829FE00DF11D649FB3
:10491000E00DF11D929FF00D839FF00D749FF00D3F
:10492000659FF00D9927729FB00DE11DF91F639FE0
:10493000B00DE11DF91FBD01CF0111240895991B90
:1049400079E004C0991F961708F0961B881F7A9586
:10495000C9F78095089597FB092E07260AD077FDA1
:1049600004D049D006D000201AF4709561957F4F8D
:104970000895F6F7909581959F4F0895A1E21A2E1C
:10498000AA1BBB1BFD010DC0AA1FBB1FEE1FFF1FF3
:10499000A217B307E407F50720F0A21BB30BE40B43
:1049A000F50B661F771F881F991F1A9469F760958A
:1049B0007095809590959B01AC01BD01CF01089544
:1049C00097FB092E05260ED057FD04D0D7DF0AD05D
:1049D000001C38F450954095309521953F4F4F4F2E
:1049E0005F4F0895F6F790958095709561957F4F8C
:1049F0008F4F9F4F0895AA1BBB1B51E107C0AA1FF1
:104A0000BB1FA617B70710F0A61BB70B881F991F6F
:104A10005A95A9F780959095BC01CD010895EE0FA8
:104A2000FF1F0590F491E02D099411E0C6EDD1E04F
:104A300004C0FE010E9411252296C83DD107C9F786
:044A4000F894FFCF18
:104A440052657175657374696E67207261746573FC
:104A5400003000504C3A20002C2000200053617498
:104A6400733A00204669783A00204D6F6465733AC2
:104A7400002041726D65643A00205468723A002047
:104A8400435055566F6C743A0020426174566F6CF3
:104A9400743A0020416C743A00204864673A00205C
:104AA4005370643A00204C61743A00204C6F6E00DD
:104AB400454550524F4D20526573657420746F20E4
:104AC400666163746F72792073657474696E677359
:104AD40000414C41524D2C206C6F7720766F6C74E2
:104AE40061676500416C6C4F666600416C6C4F6E8B
:104AF400004D4156696E6B20486561727442656170
:104B040074004D41563A200020204D6F6465733A7D
:104B14002000202041726D65643A2000202046491F
:104B2400583A20002020536174733A200020204317
:104B34005055566F6C743A20002020426174566FB1
:104B44006C743A2000494E20454E41205245510094
:104B5400456E61626C696E67207265717565737408
:104B64007320616761696E00446562756720706FC8
:104B74007274204F70656E004E6F20696E7075748C
:104B84002066726F6D207468697320736572696141
:104B94006C706F72742E20200052756E6E696E6791
:104BA40020494F426F6172642076312E3100577272
:104BB4006974696E6720454550524F4D2E2E2E0064
:104BC40020646F6E652E00467265656D656D3A20D2
:104BD40000456E64206F66207365747570006E61A5
:104BE4006E00696E66006F7666002E000A010C0185
:104BF400000000000300060180009007000001325D
:104C04007C8900EDD968770000005900000000009D
:104C1400000000D69FDCA81817AA90437327F6B9A2
:104C240068EDF4DED409FEE61C1C84DDE80B99294A
:104C340027D6DF8D210F036418EFEE1EC8B700825C
:104C440000941500347C0000001400988F000000CC
:104C54000000000000000000E7B73F36000000003D
:104C6400000000AF669ED038000000000000000085
:104C74000000000000000000000000000000000030
:104C84000000000000000000000000000000000020
:104C9400000000000086DBD0BC5416131586004EBD
:104CA40044BD7F2A1515000000000000000000002C
:104CB40000000000000000000000000000000000F0
:104CC40000000000000000000000000000000000E0
:104CD40000000000000000000000000000000000D0
:104CE40000000000000000000000000000000000C0
:104CF4000000000000000000CC31AA2C532E00025A
:104D04000002000500020005000200020001020387
:104D1400060A0B0C080009000A0004000300020044
:104D2400010101010101010101010101010101016F
:104D34000001000100010001000100010001000167
:104D44000100010001000100010001000100010057
:104D54000101000001010000010100000101000047
:104D64000101010101010101010100000101000033
:104D7400010101010101010101010101010101011F
:104D84000000000000000000010101010101010117
:104D9400000000000000000000000000000000000F
:104DA40001010101010101010101010101010101EF
:104DB40001000100010001000100010001000100E7
:104DC40001000100010001000100010001000100D7
:104DD40001010000010100000101000001010000C7
:104DE40001010101010101010101000001010000B3
:104DF400010101010101010101010101010101019F
:104E04000101010101010101000000000000000096
:104E1400000000000000000000000000000000008E
:104E24000000000077168F1FE8151816481665163F
:104E3400FE158615CC163C1700000000DF1A8F1FE4
:084E4400C51AA41AA21B911B60
:00000001FF
